:020000040800F2
:1000000080180020390200084F0600084706000843
:100010004B06000841060008C10C00080000000063
:10002000000000000000000000000000250800089B
:100030004506000800000000EF020008150900084E
:10004000530200085302000853020008530200083C
:10005000530200085302000853020008530200082C
:10006000530200085302000853020008530200081C
:10007000530200085302000853020008530200080C
:1000800053020008530200085302000853020008FC
:1000900053020008530200085302000853020008EC
:1000A0005302000853020008530200088D0900089B
:1000B000530200085D0A00085302000853020008BA
:1000C00053020008530200085302000853020008BC
:1000D00053020008050C00085302000853020008F0
:1000E000530200085302000853020008530200089C
:1000F000530200085302000853020008530200088C
:10010000530200085302000853020008530200087B
:100110005302000853020008350B00085302000880
:10012000530200085302000853020008530200085B
:10013000530200085302000853020008530200084B
:10014000530200085302000853020008530200083B
:10015000530200085302000853020008530200082B
:10016000530200085302000853020008530200081B
:10017000530200085302000853020008530200080B
:10018000530200085302000800F002F800F044F89F
:100190000AA090E8000C82448344AAF10107DA45E2
:1001A00001D100F039F8AFF2090EBAE80F0013F0F0
:1001B000010F18BFFB1A43F001031847301D000060
:1001C000501D0000103A24BF78C878C1FAD85207F1
:1001D00024BF30C830C144BF04680C6070470000C1
:1001E0000023002400250026103A28BF78C1FBD840
:1001F000520728BF30C148BF0B607047642900F028
:100200001581732900F0BC81002070471FB501F0F3
:10021000E3FD1FBD10B510BD00F0E4F91146FFF776
:10022000F5FF01F05DF900F002FA03B4FFF7F2FF09
:1002300003BC00F047FD000009488047094800471B
:10024000FEE7FEE7FEE7FEE7FEE7FEE7FEE7FEE786
:10025000FEE7FEE704480549054A064B70470000E3
:10026000250900088901000880120020801800205C
:100270008014002080140020EFF3098141B1F1EED9
:10028000101A40F8041D20ED200A29490A68106060
:100290007047B0EC200A02C8E1EE101A25490A683E
:1002A00010607047EFF3108072B6704780F31088CB
:1002B000704721484FF0FF010170002080F309884A
:1002C0001E48016881F308881D48012101701D48FE
:1002D0004FF08051016062B6FEE71A484FF080513E
:1002E0000160704717484FF080510160704772B647
:1002F000EFF3098028B1203880E8F00F0C49096835
:10030000086000B5104880475DF804EB0F481049BD
:100310000A780270064807490A680260106890E887
:10032000F00F203080F309884EF0F40E62B670476B
:10033000540000205C00002022ED00E0740000204A
:100340004E00002004ED00E00507000843000020F7
:1003500044000020704700000FB4044910B503AA00
:10036000029800F011F910BC5DF814FB1000002099
:100370002DE9F0410E460446002020622046E16847
:10038000884730B3252805D0D4E901219047206A59
:10039000401CF2E7E168204600278847050018D096
:1003A000A5F14100192802D820354FF400673246E4
:1003B000294620462760FFF721FF40B1012804D0DD
:1003C000F61D26F007060836D8E7361DD6E728467C
:1003D000DAE7206ABDE8F08170B50C460546012ACF
:1003E00005D02878800600D5EA69002302E00123C1
:1003F00005E05B1C934202D2E05C0028F9D1A869B9
:10040000E618C01AA861286A184428622846AFF383
:10041000008004E0D5E9012114F8010B9047B442B3
:10042000F8D32846AFF3008070BD00002DE9F041FD
:100430000646002410687529314616A510D0AFF382
:100440000080002802DA404213A507E031688A07DD
:1004500001D512A502E0490704D511A5012401E048
:10046000AFF3008000210A2206F1240709E0B0FB67
:10047000F2FCB0FBF2F302FB1C003030785418465B
:10048000491C0028F3D123462A463046BDE8F041F6
:1004900000F00BB8000000002D0000002B00000051
:1004A000200000007047704770472DE9F0470D4667
:1004B00099469246044600F124080168880604D54E
:1004C000E06921F01001216000E00120A84201DD77
:1004D000471B00E00027A1697A1902EB0900081AFE
:1004E000A0612078C00602D42046AFF30080002629
:1004F00008E0D4E901211AF806009047206A401C60
:10050000761C20624E45F4DB2078C0060AD52046D2
:10051000AFF3008006E0D4E9012130209047206A43
:10052000401C2062381EA7F10107F4DC07E0D4E983
:10053000012118F805009047206A401C2062281EFF
:10054000A5F10105F3DC2046AFF30080207800061A
:1005500002D50220BDE8F0870120FBE710B5436912
:1005600013B1AFF3008001E0FFF736FF012010BDAB
:10057000127800F124010A7000224A700122EDE78E
:1005800011684FF0FF32E9E7074B70B50D467B4429
:1005900000F011F80446284600F0A1FD10B14FF01C
:1005A000FF3070BD204670BD550B000001694A1C2C
:1005B00002610878704700B58FB0CDE901310021A4
:1005C000059105497944CDE9031011466846FFF7C6
:1005D000CFFE0FB000BD0000E5FFFFFF00487047F1
:1005E000201200207546FFF7F9FFAE460500694668
:1005F000534620F00700854618B020B5FFF72AFEC5
:10060000BDE820404FF000064FF000074FF0000813
:100610004FF0000B21F00701AC46ACE8C009ACE894
:10062000C009ACE8C009ACE8C0098D46704710B5F8
:100630000446AFF300802046BDE81040FFF7F5BD4B
:1006400000BFFEE7704700BFFEE700BFFEE7704750
:1006500006480078012808D105480078FF2804D210
:1006600003480078401C0249087070474E00002083
:100670004100002010B500241A480078012830D12C
:10068000FFF710FE04461848007820B1164800789D
:10069000401E1549087014480078F8B913480078CE
:1006A000E0B900F0A9F812481249097850F8210081
:1006B000114908600F4800781049097888420DD028
:1006C0000D480068C06B401C0B490968C8630C48A2
:1006D0000068401C0A490860FFF704FE2046FFF747
:1006E000E5FD10BD4E00002041000020420000202A
:1006F00030090020440000205C000020430000205E
:10070000280000207047000070B5002600F072F845
:10071000FFF7C8FD064631480068401C2F490860B5
:100720003046FFF7C3FD2E480078012853D12D48ED
:10073000007820B1012804D0022809D103E0012566
:100740000BE0002509E0012501202649087004E09E
:10075000012500202349087000BF00BF05B970BD06
:100760002148046833E0FFF79DFD0646206B50B337
:10077000206B401E2063206B28BB94F8340000F0EF
:10078000370040B114F8340F00F0C8002070012089
:100790006070343C02E0002084F8350094F83400A6
:1007A00000F0080078B93834A07810490978084377
:1007B0000E49087020780E49085C6178084314F8E7
:1007C00038190B4A505464693046FFF76FFD94F8AE
:1007D00036003F28C7D100BFC1E7000070000020ED
:1007E0004E00002064000020600000204500002032
:1007F00046000020704700000649074A1278885CCE
:100800000649095C034A515C01EBC001044A1170BE
:1008100070470000EC1D0008450000204600002045
:1008200044000020704700000CB5002001900090AB
:100830003448006840F480303249086000BF3148D5
:10084000006800F4003000900198401C019000986E
:1008500018B90198B0F5A04FF1D12A48006800F40A
:10086000003010B10120009001E0002000900098BD
:10087000012846D123484030006840F0805021498B
:10088000403108602048006840F440401E4908603C
:100890001C48083000681B49083108600846006899
:1008A00040F4004008600846006840F4A05008602A
:1008B0001648091F0860081F006840F08070091F73
:1008C000086000BF0F48006800F000700028F9D0F1
:1008D00040F205700E4908600A480830006820F0B0
:1008E00003000849083108600846006840F002002B
:1008F000086000BF03480830006800F00C000828BA
:10090000F8D10CBD00380240007000401954400777
:10091000003C024010B5FFF79BFEFFF7F5FEFFF726
:10092000A9FE10BD10B51548006840F470001349C9
:1009300008601348006840F0010011490860002079
:100940000F49083108600E4800680E4908400C49FC
:1009500008600D48091D0860081F006820F4802009
:10096000091F0860002006490C310860FFF75CFF92
:100970004FF0006001498039086010BD88ED00E04B
:1009800000380240FFFFF6FE103000242E48008A97
:1009900000F00200002841D02B48008A20F001001E
:1009A0002949088200BF2848008A00F00200002878
:1009B000F9D1254948620846406B40F214518842FB
:1009C00008D92148406BB0F5AF6F03D201201F4911
:1009D000087023E01D48007801281FD11C48406B97
:1009E000DC280ED91A48406BE6280AD2194800685C
:1009F0004008184908600846006840F00040086058
:100A00000CE01148406B692808D90F48406B7828E2
:100A100004D21048006840080E4908600A48008A5D
:100A200000F4007078B10848008A20F4007006498C
:100A3000088200BF0448008A00F400700028F9D141
:100A40000120054908707047000001402500002082
:100A5000004001402000002024000020324800888F
:100A600000F0010000285ED030480068B0F57A7FC1
:100A70001DD22F480068D0B92B48008820F0010013
:100A80002949088029480068401E27492431086008
:100A900026480068401C2549086000202449086059
:100AA00022480068B0F57A7F01D1012008601F4814
:100AB0000068B0F57A7F1CD81D480068012818D15D
:100AC0001948008820F0010017490880174800687D
:100AD000401E15492431086014480068401E13491F
:100AE00008600120124908601048006808B9002019
:100AF00008600D480830008820F0FF000A490831DE
:100B000008800846008840F06000088006481030E1
:100B1000008820F00F000449103108800846008842
:100B200040F00100088070471004004018000020C9
:100B30001C0000201CB52F48008A00F0010000288E
:100B400056D02C48008A20F001002A4908822A4801
:100B500000784006000E2849087028480068C0F355
:100B6000400009780843244908700846007848BBCB
:100B7000694601A800F0BEFA00B91CBD2048007803
:100B800000F0010078B91E48007820F00400001D34
:100B90001B490870BDF804004880C880BDF80000FB
:100BA0008880088106E0BDF804001549C880BDF8BA
:100BB000000008811248007820F00100401C104914
:100BC000087015E00C480078FF2811D10C48007817
:100BD00000F0010030B10A48007820F00200801CCB
:100BE000074908700648007820F0010004490870A1
:100BF00000BFC2E7001000402600002010040240A1
:100C0000F40200202949098801F02001B9B32749DD
:100C1000098821F02001254A118011468988C8B22F
:100C20002349097801EBC111224A02EB4101891CD9
:100C3000214A1268885420490968491C1E4A1160DB
:100C400011460968B1F5807F2ED111460988184AEE
:100C5000127802EBC212174B23F8121014490978CC
:100C600009B9012100E00021114A11700021124A46
:100C7000116012490968491C104A116014E0FFE72D
:100C80000A49098801F0100171B108498988C8B280
:100C900009490988064A127802EBC212054B23F86B
:100CA00012100021044A116070470000001001403A
:100CB00008000020DC000020040000200C000020C0
:100CC00000BFFEE700BFFEE7014621B90748006804
:100CD00000F003007047012905D10448001D006899
:100CE00000F00300F6E70020F4E700000C64004089
:100CF00030B585B004460D46002003900290FFF702
:100D0000E3FF10B9002005B030BD002002AB03AAFC
:100D100004A9CDE90040284600F008F89DF80C0031
:100D2000012800D102909DF80800ECE7F0B5DDE95C
:100D300005543B4E06EB0416366806F004060E70AA
:100D40000E7836B9364E06EB04163668760D066018
:100D500005E0334E06EB04163668F6080660304EA2
:100D600006EB0416366806F0020616702C4E06EBEB
:100D70000416766806F00F061E701E78092E3CD207
:100D8000DFE806F03B352E27201A130C0500244E11
:100D900006EB0416F668360EEE7100BF204E06EB29
:100DA0000416F668360CAE7100BF1D4E06EB041635
:100DB000F668360A6E7100BF194E06EB0416F66827
:100DC0002E7100BF164E06EB0416B668360EEE7096
:100DD00000BF134E06EB0416B668360CAE7000BFAB
:100DE0000F4E06EB0416B668360A6E7000BF0C4E46
:100DF00006EB0416B6682E7000E000BF00BF34B1E9
:100E0000084E366846F02006064F3E6007E0054E65
:100E1000361F366846F02006024F3F1F3E60F0BD89
:100E2000B0650040106400402DE9F84106460C46CC
:100E300015464FF000082B4600221146304600941C
:100E400000F014F807460AE008F1010080B280467D
:100E500040F6FF71884202DB0120BDE8F881384688
:100E600000F0E0F80728EFD10020F6E7F0B50546DE
:100E70000E46059C6948006800F0806008B10021BA
:100E80000FE06648006800F0006008B1012108E04A
:100E90006248006800F0805008B1022101E0FF20A4
:100EA000F0BD00275E4800EB011007601EB9C5F3D6
:100EB0000A056D0502E025F06045ED00584800EB9D
:100EC000011000682843564F07EB0117386054485B
:100ED00000EB0110006840EA8607514800EB011062
:100EE00007604F4800EB0110006840EA42074C4899
:100EF00000EB0110076003F00F03494800EB0110FD
:100F0000406820F00F07464800EB01104760444856
:100F100000EB011040681843414F07EB0117786060
:100F200000273F4800EB011087603D4800EB0110AF
:100F3000C760092B64D2DFE803F063584C403429C2
:100F40001D110500364800EB0110C068E77940EA42
:100F50000767334800EB0110C76000BF304800EB63
:100F60000110C068A77940EA07472D4800EB01103F
:100F7000C76000BF2A4800EB0110C068677940EAEB
:100F80000727274800EB0110C76000BF244800EB8B
:100F90000110C06827793843214F07EB0117F8602B
:100FA00000BF1F4800EB01108068E77840EA076740
:100FB0001B4800EB0110876000BF194800EB0110CF
:100FC0008068A77840EA0747154800EB0110876062
:100FD00000BF134800EB01108068677840EA0727DC
:100FE0000F4800EB0110876000BF0D4800EB0110B7
:100FF0008068277838430A4F07EB0117B86000E094
:1010000000BF00BF064800EB0110006840F0010778
:10101000034800EB01100760084641E70864004000
:10102000806500400146002021B1012913D002292A
:1010300033D121E01B4A126802F001021043194A21
:10104000126802F002021043164A126802F080622F
:1010500040EA126023E0134A126802F001021043D2
:10106000104A126802F0020210430E4A126802F09F
:10107000006240EA526012E00A4A126802F001027D
:101080001043084A126802F002021043054A12682F
:1010900002F0805240EA926001E0052000BF00BFEC
:1010A0007047000008640040002106E042F6E0615D
:1010B00000BF0A1EA1F10101FBD1021EA0F1010037
:1010C000F4D17047002105E00C2100BF0A1EA1F1F8
:1010D0000101FBD1021EA0F10100F5D170470146CC
:1010E0004FF0FF30704710B503460C46184600F02D
:1010F000DBFA10BD2DE9F04704460D46D02000F084
:101100003DFA0646902000F039FA0746D02000F05C
:1011100035FA8046902000F031FA8146A6EB0801AE
:10112000002901DB0A4600E04A42142A08DCA7EB4A
:101130000900002801DB024600E04242142A02DDD9
:101140000020BDE8F08706EB080000EBD071C1F38A
:101150004F01218007EB090000EBD071C1F34F0173
:10116000298020480069A52835D11E4890ED020A43
:10117000208800EE900AF8EE600A1A4890ED001AF6
:1011800000EE810ABCEEC00A10EE100A208015485D
:1011900090ED030A288800EE900AF8EE600A1148E4
:1011A00090ED011A00EE810ABCEEC00A10EE100AA2
:1011B00028802088B0F5A07F02DB40F23F1000E0DD
:1011C000208820802888B0F5F07F02DB40F2DF1015
:1011D00000E0288828802A88218803A0FFF7BCF82F
:1011E0000120AEE7E0020020B0B4CFC2BAF3783AF3
:1011F00025640A2C793A25640A000000F0B50446FB
:10120000059E00257048006840F001006E4F386070
:101210006E48006820F440006C4F38603846006823
:1012200040F4000038603846006820F040703860B4
:101230003846006840F0007038603846406820F456
:10124000C05078603846806820F07070B8603846CA
:10125000806840F02070B8603846406A20F47047DB
:101260005A484762406A40F4104758484762406A0B
:1012700020F4702755484762406A40F410275348CD
:10128000476251481030006840F000704E4F1037F0
:10129000386000204E4F38603846006840F001004A
:1012A000386006E0681C80B20546642801DD022033
:1012B000F0BD4748001D006800F001000028F1D093
:1012C0004348006840F01000414F38600020404F14
:1012D0001C3738603846006840EA86703860384607
:1012E0000768581E47EA0060394F1C373860384697
:1012F0000768501E47EA0050354F1C3738603846A3
:101300000768481E47EA0040314F1C3738603846AE
:101310000068671E38432E4F1C3738602C48006821
:1013200020F001002A4F386008E0681C80B20546B2
:101330004FF6F077B84201DD0320B9E72448001DDD
:10134000006800F001000028EFD12248006840F05A
:101350000100204F38601F481C30006820F0010059
:101360001C4F1C3738601B480C30006840F00100EF
:10137000184F0C3738601748001D006820F0010036
:10138000144F3F1D386013481430006820F00100EE
:10139000104F1437386000200E4F40373860002758
:1013A0000C48443007600B481C30006840F00100D6
:1013B000084F1C3738600748006820F00100054FCF
:1013C0003860002074E7000030380240000002401E
:1013D00000640040006600401248006840F01000C1
:1013E000104908601048006820F030000E4908607D
:1013F0000846C06820F03000C8600846006820F049
:10140000C00008600846C06820F0C000C8600846F8
:10141000006820F4407008600846C06820F44070FE
:10142000C860704730380240001002402948006808
:1014300040F00400274908602748006820F00300B6
:10144000254908600846006840F001000860081D52
:10145000006820F00100091D0860081D006820F0E8
:101460000300091D0860081D006820F00300091D25
:10147000086019481430006817491431086015488D
:10148000006840F02000134908601448006820F408
:101490004050124908600846006840F480500860D7
:1014A000081D006820F04000091D0860081D006844
:1014B00020F44050091D0860081D006820F44050C9
:1014C000091D08600548143000680449143108609B
:1014D000704700003038024000080240001402400B
:1014E00008B5FFF7A3FFFFF777FF4FF41651134836
:1014F00000F0E2F812A0FEF72FFF002002230422E2
:101500000B2100901520FFF779FE15E0082210A1AD
:10151000AF20FFF789FC10A0FEF71EFF104911480D
:10152000FFF7E6FB0E480F4902680FA0FEF714FF15
:101530004FF4FA60FFF7B8FDE8E7000000BD0105D1
:10154000636F6D696E672073746174720A000000C6
:10155000363636363600000073656E645F6F6B009A
:1015600000000020780000207265633A2573202077
:1015700067657469643A25640A00000070B5054621
:101580001348006820F4005011490860284600F014
:101590005BF81048006820F001000E490860012047
:1015A000FFF790FD0B48006840F001000949086012
:1015B0000120FFF787FD00F00FF8044624110448CE
:1015C000006840F4005002490860204670BD0000E9
:1015D000140802401404024070B50025002421E0E4
:1015E0000120FFF76FFD1148006820F001000F494E
:1015F00008600120FFF766FD0C48006840F001001C
:101600000A490860081F006800F0040020B14FF488
:1016100000402041054303E04FF400402041854352
:10162000601CC4B2102CDBDB284670BD14040240E1
:1016300000BF0449098801F040010029F9D001499F
:10164000888070470010014070B50546002424E0F2
:1016500080202041284030B11148006840F40060EB
:101660000F49086005E00E48006820F400600C494E
:1016700008600C48006820F001000A490860012059
:10168000FFF720FD0748006840F0010005490860A9
:101690000120FFF717FD601CC4B2082CD8DB70BD19
:1016A000141402401404024000B50246D0B2FFF701
:1016B000BFFF002000BD00002DE9F0412DED0A8B99
:1016C00006460D463F48006840F001003D4908606D
:1016D0003C481430006840F010003A49143108606A
:1016E0003948006820F440203749086008460068FF
:1016F00040F4002008600846406A20F0F0013248BB
:101700004162406A40F070012F484162006820F455
:1017100040102D4908600846006840F40010086039
:101720000846406A20F4706127484162406A40F4EC
:10173000E06125484162284600F03CFA41EC1C0B70
:101740009FED220B53EC102B00F048FA41EC1A0BE2
:10175000304600F02FFA41EC1B0B53EC1A2B00F033
:10176000D1F841EC190B00F09BF808EE100ABCEE22
:10177000C80A10EE100A84B200EE104AB8EE400A11
:1017800078EE400AB3EE001AB6EE000A00EE810AC7
:10179000BDEEC00A10EE100A87B24FF6FF7000EAE5
:1017A00004143C430B48048142F20C00094988812F
:1017B00000200882888200F00FF8BDEC0A8BBDE89B
:1017C000F0810000303802400000024000000000BC
:1017D0000000304000100140F0B52D48808940F0F5
:1017E00020002B4988810846808940F010008881BC
:1017F00005200346274C21684FF6FF042140264C64
:101800000C4344EA0321234C216000BF00231C4603
:101810000146C1F10707042F01D9042701E0C1F1F6
:1018200007073E460F1D072F01D2002700E0CF1EFD
:101830003D460127B7407F1E1F40AF404FF0010CCF
:101840000CFA05FCACF1010C0CEA040C47EA0C02A2
:1018500000BF25211046002908DA03071D0E0D4C94
:101860000C3401F00F031B1FE55403E003071C0EAB
:101870000A4B5C5400BF252000F01F030121994052
:1018800043099B0003F1E023C3F8001100BFF0BD42
:10189000001001400CED00E00000FA0500E400E05B
:1018A00021F00042A2F16052B2F5801F01F0004326
:1018B00028BFD2F17F6C0BD95FEA001C43EAC20259
:1018C00042EB507018BF704728BF20F001007047EE
:1018D000B2F5801FBCBF184670474FEA410C1CF59B
:1018E000001F02D2084600F07CBA70B500F020FA62
:1018F00000000089FFF7F6BF4FF00040A0F5800020
:10190000704700002DE9C04130B4DFF8A0C23CEAC6
:10191000111418BF3CEA131400F0EC8081EA0305AF
:101920001CEA111444EAD57418BF1CEA131500F020
:10193000C780A4EB05044FF0004545EAC12145EA04
:10194000C32341EA505143EA525304F17F74994250
:1019500004F500344FEAC0204FEAC22208BF90428B
:1019600000F09C804FEA13650FF24016765D4FEA57
:10197000134506FB05F7C7F1807706FB07F74FEA2B
:10198000D737A7FB03687642C8F58038A7FB06CE99
:1019900038BFA8F1010807FB08E64FF0000EA6FBD0
:1019A000028CE6FB03CEDCF1000CCEF1004E38BF1A
:1019B000AEF1010EA6FB0C584FF000074FF00005EA
:1019C000E6FB0E87A1FB08C6A0FB07CE16EB0E06B2
:1019D00045F10005E1FB076515F1E04E7EBFA4F57A
:1019E00080345FEA46066D4116F1800745F1000537
:1019F0004FEA17274FEA066647EA0567A6F1DE4673
:101A0000B6F1805F4FEA15251FD9384624F0010C46
:101A100005EBC471BCF1FE6F01EB0C1102D8F0BCF8
:101A2000BDE8008124425CBF01F5801E9EEAC47FB0
:101A300002D4F0BCBDE80081244238D4F0BCA1F14E
:101A4000C041BDE8004100F0C1B94FEAD22242EAEC
:101A500043524FEAD323A7FB02864FEAD02040EA45
:101A6000415007FB03661EEA0E0F4FEAD12105FB2A
:101A7000026658BFA6EB0056B6EB00564FEA520E70
:101A80004EEAC37E18EB0E0E56EB530EBDD518EB87
:101A900002085E417F1C55F10005B6E74FF4801542
:101AA0004FF000074FF000064FF00008ADE7F0BC24
:101AB0004FF0000001F1C04101F00041BDE800819C
:101AC00011EA0C1F0CEA131500D00CE013EA0C1FEE
:101AD00000F025804FF00000F0BC81EA030101F026
:101AE0000041BDE80081F0BCBDE8004181EA03018E
:101AF00000F06CB9F0BCBDE8004170B500F018F919
:101B0000097EFC3E00F007B881EA03014FF00000B7
:101B100001F00041704781EA030100F057B9F0BCC1
:101B2000BDE800414FF0000021497047FFFDFBF97F
:101B3000F7F5F4F2F0EEEDEBE9E8E6E4E3E1E0DE00
:101B4000DDDBDAD8D7D5D4D3D1D0CFCDCCCBCAC872
:101B5000C7C6C5C4C2C1C0BFBEBDBCBBBAB9B8B799
:101B6000B6B5B4B3B2B1B0AFAEADACABAAA9A8A88C
:101B7000A7A6A5A4A3A3A2A1A09F9F9E9D9C9C9B5A
:101B80009A99999897979695959493939291919005
:101B90008F8F8E8E8D8C8C8B8B8A89898888878796
:101BA0008685858484838382828181800000FF070B
:101BB0000000F87FB0FA80F310FA03F10AD0C3F105
:101BC0001D0303F580634FEA41504FEA035202EBD5
:101BD000D12170474FF0000070470000DFF848C186
:101BE00070B51CEA111E1EBF1CEA13159EEA0C0FED
:101BF00095EA0C0F00F06F8081EA030423EA4C138E
:101C00004EEAD47E21EA4C1141F4801143F4801352
:101C1000AE44A1FB024CA0FB0365AEF17F7E3619FA
:101C200055EB0C05A1FB034C4CF10003A0FB021C7F
:101C300016EB0C06654153F10003094218BF46F04C
:101C4000010613F4007F0BD14FEA03314FEA053050
:101C5000340341EA155140EA16506FF003020AE0DE
:101C60004FEAC3214FEAC520F40241EA555140EA48
:101C700056506FF0020202EB2E4201EB025585EA4C
:101C8000CE710AD05FEA440C18BF24F0004450F132
:101C9000000041F1000120EAD47040F2FE7C624570
:101CA00000D270BDA84214BF4FF080444FF04044B2
:101CB000002E08BF0024BEF1806FA8BFA1F1C04173
:101CC000BDE8704080F282804FF0000001F1C04119
:101CD00001F0004170479EEA0C0F0CEA131518BF83
:101CE00095EA0C0F06D04FF0000081EA030E0EF0CB
:101CF000004170BD00F01CF88900013E00F007B8FB
:101D000000F009B84FEA430C5FEA5C5C08D081EA56
:101D1000030100F05BB84FEA410C5FEA5C5CF6D16E
:101D20004FF00000014970470000FF070000F87FF6
:101D30000EF1020E2EF0030E5EF8046B364205D44F
:101D4000012A43EB030515F5001F12D8012841EBCA
:101D5000010C1CF5001F0CD80ED14FEAD17C15F5F3
:101D6000001F0CEB4C0C0CF1020C08BF4CEBD37CAD
:101D700004E04FF0080C01E04FEAD37C0CEB4C057B
:101D800026FA05F606F00706B6F1040C06D20EEBAD
:101D9000860CBDE870404CF0010C6047DFE80CF0A9
:101DA000090B02024FF000414FF00000A1F50021A5
:101DB00070BD19461046012851EB010418BFD4F537
:101DC000001484BF002001F0004170BD0808A0F598
:101DD00000114FEA310170474FF04070E1EE100AF8
:101DE0007047FF2141EAD050C00570470000010054
:101DF00002000100030001000200010004000100D4
:101E000002000100030001000200010005000100C2
:101E100002000100030001000200010004000100B3
:101E200002000100030001000200010006000100A1
:101E30000200010003000100020001000400010093
:101E40000200010003000100020001000500010082
:101E50000200010003000100020001000400010073
:101E60000200010003000100020001000700010060
:101E70000200010003000100020001000400010053
:101E80000200010003000100020001000500010042
:101E90000200010003000100020001000400010033
:101EA0000200010003000100020001000600010021
:101EB0000200010003000100020001000400010013
:101EC0000200010003000100020001000500010002
:101ED00002000100030001000200010004000100F3
:101EE0000200010003000100020001000C1F0008B5
:101EF0000000002078000000C4010008841F0008D2
:101F00007800002008180000E00100080000000030
:101F100000000000000000000000000000000000C1
:101F2000000000000A0000000000000000000000A7
:101F30000000FF00000000000000000000000000A2
:101F40000000000000000000000000000000000091
:101F50000000000000000000000000000000000081
:101F60000000000000000000000000000000000071
:101F70000000000000000000000000000000000061
:041F8000000000005D
:040000050800018965
:00000001FF
