:020000040800F2
:10000000D8FC012095020008211D0008C115000838
:100010001D1D000879150008553800080000000073
:10002000000000000000000000000000BB330008DA
:100030007D150008000000004B030008A9340008EB
:10004000AF020008AF020008AF020008AF020008CC
:10005000AF020008AF020008AF020008AF020008BC
:10006000AF020008AF020008AF020008AF020008AC
:10007000AF020008AF020008AF020008AF0200089C
:10008000AF020008AF020008AF020008AF0200088C
:10009000AF020008AF020008AF020008AF0200087C
:1000A000AF020008AF020008AF02000821350008C7
:1000B000AF020008F1350008AF020008AF020008E7
:1000C000AF020008AF020008AF020008AF0200084C
:1000D000AF02000899370008AF020008AF0200081D
:1000E000AF020008AF020008AF020008AF0200082C
:1000F000AF020008AF020008AF020008AF0200081C
:10010000AF020008AF020008AF020008AF0200080B
:10011000AF020008AF020008C9360008AF020008AD
:10012000AF020008AF020008AF020008AF020008EB
:10013000AF020008AF020008AF020008AF020008DB
:10014000AF020008AF020008AF020008AF020008CB
:10015000AF020008AF020008AF020008AF020008BB
:10016000AF020008AF020008AF020008AF020008AB
:10017000AF020008AF020008AF020008AF0200089B
:10018000AF020008AF02000800F002F800F073F8B8
:100190000AA090E8000C82448344AAF10107DA45E2
:1001A00001D100F068F8AFF2090EBAE80F0013F0C1
:1001B000010F18BFFB1A43F00103184790670000B6
:1001C000B067000010F8013B0A4413F0030408BFB5
:1001D00010F8014B1D1108BF10F8015B641E05D01B
:1001E00010F8016B641E01F8016BF9D1002D15D0D8
:1001F00010F8014B03F00C030C2BA1EB04040ABF15
:1002000010F8013BA4EB8314A4EB032405F10103D4
:1002100014F8016B5B1E01F8016BF9D5914238BFF0
:1002200010F8013BD1D3704700230024002500269D
:10023000103A28BF78C1FBD8520728BF30C148BF49
:100240000B607047662906F01A82642900F01C8151
:10025000732900F06984002070471FB506F005FA85
:1002600000F078FC04000020002105F0EBFCE060C9
:100270001FBD10B510BD00F089FD1146FFF7EDFF61
:1002800004F0DEFE00F0A7FD03B4FFF7F2FF03BCAD
:1002900003F0D6FF0948804709480047FEE7FEE71C
:1002A000FEE7FEE7FEE7FEE7FEE7FEE7FEE7FEE726
:1002B00004480549054A064B70470000B934000858
:1002C00089010008D8F60120D8FC0120D8F80120C7
:1002D000D8F80120EFF3098141B1F1EE101A40F88E
:1002E000041D20ED200A29490A6810607047B0EC0F
:1002F000200A02C8E1EE101A25490A68106070470A
:10030000EFF3108072B6704780F310887047214871
:100310004FF0FF010170002080F309881E4801683A
:1003200081F308881D48012101701D484FF080515C
:10033000016062B6FEE71A484FF0805101607047D5
:1003400017484FF080510160704772B6EFF3098093
:1003500028B1203880E8F00F0C490968086000B522
:10036000104880475DF804EB0F4810490A78027086
:10037000064807490A680260106890E8F00F2030CC
:1003800080F309884EF0F40E62B6704750000020EA
:100390005800002022ED00E0700000204A000020FC
:1003A00004ED00E0B12A00083F00002040000020DA
:1003B000704700000FB4044910B503AA029800F07A
:1003C000B7FB10BC5DF814FB0C0000202DE9F041D8
:1003D0000E460446002020622046E168884730B37C
:1003E000252805D0D4E901219047206A401CF2E776
:1003F000E168204600278847050018D0A5F1410094
:10040000192802D820354FF4006732462946204685
:100410002760FFF717FF40B1012804D0F61D26F032
:1004200007060836D8E7361DD6E72846DAE7206AF9
:10043000BDE8F08170B50C460546012A05D0287844
:10044000800600D5EA69002302E0012305E05B1C79
:10045000934202D2E05C0028F9D1A869E618C01ADC
:10046000A861286A184428622846AFF3008004E097
:10047000D5E9012114F8010B9047B442F8D328467E
:10048000AFF3008070BD00002DE9F0410646002466
:1004900010687529314616A510D0AFF300800028EA
:1004A00002DA404213A507E031688A0701D512A598
:1004B00002E0490704D511A5012401E0AFF3008053
:1004C00000210A2206F1240709E0B0FBF2FCB0FB90
:1004D000F2F302FB1C00303078541846491C002807
:1004E000F3D123462A463046BDE8F04100F0A2B8D9
:1004F000000000002D0000002B0000002000000084
:1005000040EA0103024630B59B0710D14FF0013499
:1005100000E008C208C91D1B9D4315EAC41FF8D09E
:1005200013F0FF0102F8011B0DD01B0AF8E711F8C8
:10053000013B002B02F8013B05D011F8013B002BD9
:1005400002F8013BF3D130BD4FF0000200B5134675
:1005500094469646203922BFA0E80C50A0E80C50E3
:10056000B1F12001BFF4F7AF090728BFA0E80C5094
:1005700048BF0CC05DF804EB890028BF40F8042B8D
:1005800008BF704748BF20F8022B11F0804F18BFFA
:1005900000F8012B704700004FF0013C50F8042B8D
:1005A00051F8043B9A4221D1A2EB0C03934313EA86
:1005B000CC1317D150F8042B51F8043B9A4215D1B3
:1005C000A2EB0C03934313EACC130BD150F8042B8A
:1005D00051F8043B9A4209D1A2EB0C03934313EA6E
:1005E000CC13DBD04FF00000704700BFD01A01BA27
:1005F000B1FA81F101F0180122FA01F0CB40C1F10A
:100600002001DBB2C0B2C01A2CFA01F3D11A914317
:1006100011EAC311E6D1704770477047704710B5B3
:1006200000F09CFA006810BD10B5044600F096FA80
:10063000046010BD2DE9F0470D46994692460446E8
:1006400000F124080168880604D5E06921F0100152
:10065000216000E00120A84201DD471B00E00027E7
:10066000A1697A1902EB0900081AA0612078C00676
:1006700002D42046AFF30080002608E0D4E901212F
:100680001AF806009047206A401C761C20624E45EE
:10069000F4DB2078C0060AD52046AFF3008006E0E0
:1006A000D4E9012130209047206A401C2062381E86
:1006B000A7F10107F4DC07E0D4E9012118F80500EF
:1006C0009047206A401C2062281EA5F10105F3DC3A
:1006D0002046AFF300802078000602D50220BDE856
:1006E000F0870120FBE770472DE9FF4F0C461E46BF
:1006F0004FF0FF378BB0D2E90001DDF860800A903F
:100700008A46C1F30A5505B93D46002108464FF017
:100710000000BAF1000F00F4400005DA00EB8000A1
:100720004FF4400101EA50004FEA9059B9F1010F2E
:1007300000DDB9460A9850EA4A000ED044F610503F
:10074000A5F2FF3545432F14B8F1000F1ED07542B6
:10075000291E1EDDC9F100021CE0B8F1010F4FF0A7
:10076000000001D0302103E0F24305E02154401C99
:10077000B042FBDB30460022002121540B99C1F826
:100780000880C1E900200FB0BDE8F08FBD1B6D1CD3
:10079000DEE74A4600DA694206A800F081FA06ABB5
:1007A00093E8070003AB83E8070050460A9900F07E
:1007B0001BFB8DE80700A0F500501F380090039840
:1007C000002D0ADD42F21F014A460844002303A916
:1007D0000390684600F084FD09E0A0F500504A4609
:1007E0001F38002303A90390684600F08EFD8DE8B2
:1007F00007000004000C03D04FF0FF30410800E078
:100800001046B8F1000F03D00022009215461EE0FA
:10081000751E05D400F0A6F9303262556D1EF9D56B
:10082000B3460122084302D000227F1C04E0207856
:10083000302801D100227F1E002A099784D01DE0B4
:10084000112D07DA00F08EF9303262556D1C50EA36
:100850000102F5D1084302D00098C8B10EE0002192
:10086000681E05E0235C625C63542254401E491CF0
:100870008142F7DBAB46A81B401E0990002004F81C
:100880000B000B98099AC0F80880C0E9002B7AE7A2
:1008900011264FF0000857E72DE9F04F884604462F
:1008A000D21D22F0070191B0D1E90001CDE90A0182
:1008B00002F0D2FF02460B98C00F01D02D2007E0B6
:1008C0002068810701D52B2002E0202101EAC00029
:1008D000032A099001D0072A05DB0346414620463A
:1008E00000F09EF90BE12078800601D5E06900E078
:1008F0000620B8F1650F814606D0B8F1660F18D012
:10090000B8F1670F70D131E00020B9F1110F0090FC
:1009100001DB112301E009F101030AAA01A90CA8D6
:10092000FFF7E2FEDDE90C70002609F101058346C0
:1009300047E001204B4600904FF000470AAA01A96A
:100940000CA8FFF7D1FEDDE90DB00C995D4600263D
:1009500010B909F101000D18B9EB050003D4C0F17D
:10096000FF3609F10105A5EB09002BE0B9F1010FF4
:1009700001DA4FF001090020B9F1110F009048464B
:1009800001DD112300E003460AAA01A90CA8FFF724
:10099000ABFEDDE90C704D4600268346207800074B
:1009A0000AD4AB4500DA5D4601A8012D04DD4119EA
:1009B00011F8011C302907D04F4502DA17F1040F56
:1009C00004DA012082460FE06D1EEEE7002F02DC04
:1009D000ED1B3E4403E0781CA84200DD7D1CB81BE3
:1009E00000F1010A4FF000472078000703D4AA4520
:1009F00001DB4FF0FF3A0021B7F1004F0DF1430842
:100A00008DF8431024D002202B23002F01DA7F42DF
:100A10002D230A21021EA0F1010000DC5FB197FB2B
:100A2000F1FC97FBF1F201FB1C7C17460CF1300C3A
:100A300008F801CDEEE7A8F101000370218809054F
:100A400001D5452100E06521A0F1010800F8011C55
:100A500009980FA9A1EB0807FF1D00B1012041195A
:100A600001EBEA70A1693844081A401EA0612078A1
:100A7000C00602D42046AFF30080099828B1D4E91B
:100A800001219047206A401C20622078C00622D5B0
:100A90002046AFF300801EE0002E04DBB34502DDEC
:100AA00001A8805D00E03020D4E901219047206A50
:100AB000401C2062761CAAF101005FEA000A0AD1FC
:100AC00000F048F8C0680168405CD4E90121904713
:100AD000206A401C2062281EA5F10105DCDC07E02D
:100AE000D4E9012118F8010B9047206A401C2062CC
:100AF000381EA7F10107F3DC2046AFF30080032086
:100B000011B041E610B5436913B1AFF3008001E0C5
:100B1000FFF790FC012010BD127800F124010A704B
:100B200000224A700122EDE711684FF0FF32E9E739
:100B3000074B70B50D467B4400F05FF8044628462D
:100B400003F032FF10B14FF0FF3070BD204670BD92
:100B5000773E00000048704794F601200048704737
:100B600074F6012030B5B0F10A024FEA900E71F12F
:100B700000034EEA817EB0EB0E0061EB91014FEA7B
:100B8000101E4EEA017E10EB0E0041EB11114FEAF0
:100B9000102E4EEA016E10EB0E0041EB11214FEAD0
:100BA000104E4EEA014E10EB0E0041EB1141401881
:100BB00041F100014FEAD00040EA41704FEAD10113
:100BC00010EB80054FEA810444EA907444EB010481
:100BD0006D1944EB0404521BA3414FF0000348BFBE
:100BE0000A3200D530BD401C41F1000130BD00008B
:100BF00001694A1C02610878704700B58FB0CDE9E1
:100C000001310021059105497944CDE903101146D0
:100C10006846FFF7DBFB0FB000BD0000E5FFFFFFFC
:100C20002DE9F0411F46044603260168072A01F416
:100C3000006004DB08B116A505E016A503E008B1C5
:100C400015A500E015A521F010002060A069C01EC8
:100C5000A0610FB1401EA0612046AFF300804FB1EC
:100C6000D4E9012138469047206A401C2062C01C0C
:100C7000206206E0206AFAE7D4E9012115F8010BA9
:100C80009047761EF8D22046AFF30080BDE8F08191
:100C90004E414E006E616E00494E4600696E660020
:100CA0002DE9F047814616468AB0354878440DC88C
:100CB0008DE80D0032487844801C03AC0DC884E8F0
:100CC0000D0041F69B300844372190FBF1F290FB78
:100CD000F1F5A5F1800501FB12041B3C02D564422D
:100CE000012000E00020DFF898A080460027FA44A9
:100CF000AAF1BE0A0EE0E0070AD03246684607EBCA
:100D0000470101230AEB810100F0FFFA8DE807009B
:100D100064107F1C002CEED1194F7F44AE3F19E0C8
:100D2000E80715D007EB04100DF1180A90E80E0043
:100D30008AE80E00C068F04201D198190890324646
:100D4000012306A903A800F0E0FA03AB83E807003B
:100D50006D10641C002DE3D14FF00103324669464B
:100D6000B8F1000F03A802D000F0BAFA01E000F0D9
:100D7000CCFAC9E90001C9F808200AB0BDE8F0873B
:100D8000845C00000048704774F601207546FFF748
:100D9000F9FFAE4605006946534620F00700854638
:100DA00018B020B5FFF784FABDE820404FF00006E8
:100DB0004FF000074FF000084FF0000B21F0070143
:100DC000AC46ACE8C009ACE8C009ACE8C009ACE886
:100DD000C0098D46704710B50446AFF30080204629
:100DE000BDE81040FFF750BA5FEA400C08BF91F031
:100DF000000F4FEA8C234FEAC12243EA51514FEAD8
:100E00001C5018BF00F5F0404FEA300018BF41F009
:100E100000415FEA6C5C00F02980BCF1FF3F08BF35
:100E200040F080407047130C06BF12044FF0100CC6
:100E30004FF0000C130E04BF12020CF1080C130F3C
:100E400004BF12010CF1040C930F04BF92000CF1CB
:100E5000020CD30F04BF52000CF1010C11464FF0ED
:100E60000002A0F11F00A0EB0C00704711F0004F32
:100E700008BF704731F000413FF4D5AF0B0C06BFFF
:100E800009044FF0100C4FF0000C0B0E04BF0902C8
:100E90000CF1080C0B0F04BF09010CF1040C8B0FB3
:100EA00004BF89000CF1020CCB0F04BF49000CF108
:100EB000010CCCF12003A0EB0C0022FA03F302FAA0
:100EC0000CF241EA030100F10100704720F07F4C71
:100ED00080EA030023F07F47ACEB070303F57C5364
:100EE00000F0004003F1FF032DE980494FEA154B64
:100EF00009B44FEA144325EA0B4E24EA03480FF2E3
:100F0000042606EB132749083E785FEA320203FB0A
:100F10000667C7F5000707FB06F64FEA54374FEAA6
:100F2000D64606F1020607FB066CCCF1005C4FEAE0
:100F30001C472CEA074C07FB06F40CFB06F504EBF8
:100F400015464FEA961634BF00204FF000404FEA96
:100F5000D13706FB07FC4FEA1C4C0CFB0BF7D21BEE
:100F600003FB0CF761EB07010CFB0EF7B0EB07403E
:100F700072EB17420CFB08F734BFA2EB0742B2EB4F
:100F8000074261EB17414FEA0C444FEA910706FB19
:100F900007FC4FEA1C4C0CFB0BF7B0EBC74072EBA5
:100FA000573203FB0CF734BFA2EBC742B2EBC74288
:100FB00061EB57310CFB0EF7B0EBC70072EB5772C9
:100FC0000CFB08F734BFA2EBC702B2EBC70261EB20
:100FD0005771039F4FEA816141EA921104EBCC04FF
:100FE0004FEAD1374FEA826206FB07FC42EA9012D1
:100FF0004FEA80604FEA1C4C0CFB0BF7D21B03FB43
:101000000CF761EB07010CFB0EF7B0EB074072EB3E
:1010100017420CFB08F734BFA2EB0742B2EB0742C2
:1010200061EB17414FEA8C554FEA910704EB9C2482
:1010300006FB07FC4FEA1C4C0CFB0BF7B0EBC74060
:1010400072EB573203FB0CF734BFA2EBC742B2EB93
:10105000C74261EB57310CFB0EF7B0EBC70072EBE8
:1010600057720CFB08F734BFA2EBC702B2EBC70202
:1010700061EB577115EB4C254FEA816141EA921102
:101080004FEA82624FEAD13742EA901206FB07FC30
:1010900044F100044FEA80604FEA1C4C0CFB0BF754
:1010A000D21B03FB0CF761EB07010CFB0EF7B0EB57
:1010B000074072EB17420CFB08F734BFA2EB074264
:1010C000B2EB074261EB174115EB1C154FEA81317A
:1010D00041EA92414FEA823242EA90424FEA80303E
:1010E0004FEA0C7644F1000448EA03434EEA0B4809
:1010F0004FF0000EB2EB080C71EB030724BF624601
:1011000039464EEB0E0E4FF0000B0018524149418C
:101110004BEB0B0BB2EB080C71EB03077BF1000BF5
:1011200024BF624639464EEB0E0E4FF0000B0018FE
:10113000524149414BEB0B0BB2EB080C71EB03072F
:101140007BF1000B24BF624639464EEB0E0E51EA8E
:10115000020718BF46F0010616EB0E7655F10002A5
:1011600054F1000103D5BDE88901BDE80088BDE860
:101170008901BDE80048B619524141EB0101A3F1D4
:101180000103704780807F7E7D7C7B7A79787776DB
:1011900076757473727171706F6E6E6D6C6C6B6A54
:1011A0006A696868676666656464636362616160F2
:1011B000605F5F5E5E5D5D5C5C5B5B5A5A5959586F
:1011C00058575756565555555454535352525251D9
:1011D000515050504F4F4F4E4E4D4D4D4C4C4C4B2F
:1011E0004B4B4A4A4A494949484848474747474676
:1011F00046464545454444444443434343424242B2
:1012000042414141002B9C4630D477002BD01CB585
:101210004FEA370703B44FF010004FF01001BAF156
:10122000000F06D0BCF1000FDCBF40F0080040F01A
:1012300008014FF000000FBCBDE810400BF1010B9E
:10124000BBF1010F08BF5FEA170722BF12F10102CD
:1012500011F101014FF0004143F1000300F00040A3
:1012600043EA00007047F9D35708D0E746EA06463C
:1012700013F1400F4FEA16461FDD13F1200FDFBFB9
:1012800016430A46002120335B42BED0C3F120073B
:1012900046EA064602FA07F74FEA164646EA070606
:1012A000C3F1200722FA03F201FA07F721FA03F14A
:1012B0004FF0000342EA0702A7E746EA020646EAC1
:1012C00006464FEA164646EA0106BCBF46EA06460F
:1012D000360C4FF000034FF000024FF0000194E78E
:1012E0002DE9804C9A46934670B491E8380007C8BF
:1012F00031EA400C48BF34EA430C03D5FFF7E6FD62
:10130000FFF780FFF0BCBDE8008C2DE9804C9A46C9
:10131000934670B491E8380007C810F0804F08BFBA
:1013200013F0804F03D100F005F8FFF76BFFF0BC1E
:10133000BDE8008C20F07F4780EA030023F07F4C5B
:1013400007EB0C03A3F57C5300F00040A3F1FE0370
:1013500092F0000F00F0B38095F0000F00F077805E
:101360002DE901494FEA11404FEA144621EA0048AD
:1013700000FB06FC24EA064708FB06F607FB08F814
:1013800000FB07F718EB06484CEB164C4FEA124BE4
:1013900018EB07484FEA15464CEB174022EA0B4E74
:1013A0000BFB06FC25EA06470EFB06F607FB0EFEC6
:1013B0000BFB07F71EEB064E4CEB164C4FF00006EE
:1013C0001EEB074E4CEB174B18EB0B0840F10000DF
:1013D00018EB0E0B58EB000840F100008F1A4FF08D
:1013E00000013CBFC943661B14BFB5EB040C0021D0
:1013F0003CBFC943F61B4FEA17444EEA8E0E27EA5C
:1014000004454FEA1C4704FB07622CEA074C05FB26
:1014100007F70CFB05F604FB0CFC16EB074642EB4A
:10142000174216EB0C4642EB1C421BEB060658EB30
:101430000202414146EA9E0601D5BDE80189B6197E
:10144000524141EB0101A3F10103BDE801894FEADB
:1014500014454FEA114724EA054621EA074C05FBEB
:1014600007F406FB07F70CFB06F105FB0CFC11EB80
:10147000074144EB17444FEA124711EB0C4144EB90
:101480001C4422EA074C05FB07F206FB07F70CFB9E
:1014900006F605FB0CFC16EB074642EB174216EB73
:1014A0000C4642EB1C456A1854F1000148BF7047D6
:1014B000B619524141EB0101A3F10103704795F0C8
:1014C000000F37D04FEA11424FEA144721EA024693
:1014D00024EA074C02FB07F106FB07F70CFB06F4B6
:1014E00002FB0CFC14EB074441EB17414FEA154794
:1014F00014EB0C4441EB1C4125EA074C02FB07F5B9
:1015000006FB07F70CFB06F602FB0CFC16EB074686
:1015100045EB174516EB0C4645EB1C42121951F1F1
:10152000000148BF7047B619524141EB0101A3F1D8
:10153000010370474FEA14454FEA114724EA054674
:1015400021EA074C05FB07F106FB07F70CFB06F247
:101550004FF0000605FB0CFC12EB074241EB174174
:1015600012EB0C4251EB1C4148BF7047921841EB03
:101570000101A3F10103704700BFFEE770470000BF
:101580000D48006840F001000B4908600B480088D6
:1015900040F08000094908800846008840F00800B3
:1015A00008800846008840F010000880084600883F
:1015B00040F00200088070474438024000000140BB
:1015C00000BFFEE72DE9F04104460D461646DDF862
:1015D00018802A2000F02EF8200A00F019F9E0B255
:1015E00000F016F9280A00F013F9E8B200F010F93B
:1015F0002B2000F01FF8300A00F00AF9F0B200F0DA
:1016000007F9180A00F004F9D8B200F001F92C200B
:1016100000F010F8002703E0404600F0F9F87F1CC6
:10162000281B401C991B491C4843B842F4D8BDE80C
:10163000F08100007249096821F48051704A1160FC
:101640007049096821F480516E4A11606E49096839
:1016500021F020016C4A116000F0010121B14FF42A
:101660008041121D118004E04FF48041664A921DB2
:10167000118000F0020129B14FF40041624A121DAD
:10168000118004E04FF400415F4A921D118000F088
:10169000040121B101215C4A121D118003E00121E6
:1016A000594A921D118000F0080121B10221564AC9
:1016B000121D118003E00221534A921D118000F097
:1016C000100119B18021514A118302E080214F4A53
:1016D000518300F0200121B14FF480714B4A1183F6
:1016E00003E04FF48071494A518300F0400121B179
:1016F0004FF40071454A118303E04FF40071434AEF
:10170000518300F0800121B14FF480613F4A118381
:1017100003E04FF480613D4A518300F4807121B1B0
:101720004FF40061394A118303E04FF40061374AF6
:10173000518300F4007121B14FF48051334A118379
:1017400003E04FF48051314A518300F4806121B1AC
:101750004FF400512D4A118303E04FF400512B4AFE
:10176000518300F4006121B14FF48041274A118375
:1017700003E04FF48041254A518300F4805121B1A8
:101780004FF40041214A118303E04FF400411F4A06
:10179000518300F4005129B14FF480711A4A121D8F
:1017A000118004E04FF48071174A921D118000F4FB
:1017B000804129B14FF40071134A121D118004E0D9
:1017C0004FF40071104A921D118000F4004129B1BC
:1017D0004FF480610C4A121D118004E04FF48061C7
:1017E000094A921D11800849096841F02001064A02
:1017F00011600349096841F48051014A1160704742
:101800001418024014140240140C0240001002404C
:101810007249096821F48051704A11607049096861
:1018200041F480516E4A11606E49096821F020012F
:101830006C4A116000F0010121B14FF48041121D8A
:10184000118004E04FF48041664A921D118000F03F
:10185000020129B14FF40041624A121D118004E0D7
:101860004FF400415F4A921D118000F0040121B144
:1018700001215C4A121D118003E00121594A921D89
:10188000118000F0080121B10221564A121D118079
:1018900003E00221534A921D118000F0100119B19A
:1018A0008021514A118302E080214F4A518300F088
:1018B000200121B14FF480714B4A118303E04FF4B2
:1018C0008071494A518300F0400121B14FF4007109
:1018D000454A118303E04FF40071434A518300F0FD
:1018E000800121B14FF480613F4A118303E04FF43E
:1018F00080613D4A518300F4807121B14FF4006151
:10190000394A118303E04FF40061374A518300F4F0
:10191000007121B14FF48051334A118303E04FF439
:101920008051314A518300F4806121B14FF400515C
:101930002D4A118303E04FF400512B4A518300F4E8
:10194000006121B14FF48041274A118303E04FF435
:101950008041254A518300F4805121B14FF4004168
:10196000214A118303E04FF400411F4A518300F4E0
:10197000005129B14FF480711A4A121D118004E000
:101980004FF48071174A921D118000F4804129B1F3
:101990004FF40071134A121D118004E04FF40071DE
:1019A000104A921D118000F4004129B14FF480616A
:1019B0000C4A121D118004E04FF48061094A921D07
:1019C00011800849096841F02001064A1160034965
:1019D000096841F48051014A1160704714180240AF
:1019E00014140240140C02400010024008B500F02C
:1019F000DBF8782002F0E8FEF220FFF71BFE18204B
:101A0000FFF706FFA320FFF703FF1220FFF700FFF9
:101A10000220FFF7FDFEB220FFF7FAFE1220FFF7CB
:101A2000F7FEFF20FFF7F4FE1020FFF7F1FE002085
:101A3000FFF7EEFEF820FFF7FDFD2120FFF7E8FE9F
:101A40000420FFF7E5FEF920FFF7F4FD0020FFF783
:101A5000DFFE0820FFF7DCFE3620FFF7EBFD082055
:101A6000FFF7D6FE3A20FFF7E5FD0520FFF7D0FE91
:101A7000B420FFF7DFFD0120FFF7CAFEB620FFF715
:101A8000D9FD0220FFF7C4FE2220FFF7C1FEC120CE
:101A9000FFF7D0FD4120FFF7BBFEC520FFF7CAFDD1
:101AA0000020FFF7B5FE0720FFF7B2FEE020FFF7AA
:101AB000C1FD0F20FFF7ACFE1F20FFF7A9FE1C2081
:101AC000FFF7A6FE0C20FFF7A3FE0F20FFF7A0FEF6
:101AD0000820FFF79DFE4820FFF79AFE9820FFF7A9
:101AE00097FE3720FFF794FE0A20FFF791FE1320A0
:101AF000FFF78EFE0420FFF78BFE1120FFF788FE14
:101B00000D20FFF785FE0020FFF782FEE120FFF7A2
:101B100091FD0F20FFF77CFE3220FFF779FE2E208B
:101B2000FFF776FE0B20FFF773FE0D20FFF770FE28
:101B30000520FFF76DFE4720FFF76AFE7520FFF7CF
:101B400067FE3720FFF764FE0620FFF761FE1020D6
:101B5000FFF75EFE0320FFF75BFE2420FFF758FE31
:101B60002020FFF755FE0020FFF752FE1120FFF75F
:101B700061FD782002F028FE2920FFF75BFD4FF67B
:101B8000FF7040F2DF13002240F23F110090104638
:101B9000FFF718FD0348006840F400400149086061
:101BA00008BD0000140402405548006840F00800D9
:101BB000534908600846006840F010000860084675
:101BC000006840F0400008600846006840F00200ED
:101BD00008600846006840F0200008604948006836
:101BE00040F0A0404749086046480830006840F08F
:101BF00020404449083108604248006840F0050030
:101C0000404908603F480830006840F00A003D49FC
:101C1000083108603C4800683C4908433A4908607C
:101C20000846406848600846806838490843364995
:101C300088603448006840F4A81032490860314890
:101C40000830006840F008002E49083108602D482F
:101C5000006840F4A0602B4908602A4808300068FA
:101C600040F4206027490831086026481430006895
:101C700040F030002349143108602548006840F0E6
:101C800080702349086022480830006840F00070E6
:101C90001F49083108601E481430006840F4805025
:101CA0001B49143108601B48006840F080701949D6
:101CB000086018480830006840F000701549083185
:101CC000086014481430006840F480501149143101
:101CD00008601148006840F080400F4908600E48D5
:101CE0000830006840F000400B49083108600A489D
:101CF0001430006820F40040074914310860704730
:101D000030380240000C024000100240004055559F
:101D100000180240001402400004024000BFFEE729
:101D2000704700002DE9F04106460D460027134894
:101D3000007820B1102028700020BDE8F081FEF767
:101D4000DFFA07460E48046884B1006840680C4911
:101D500008600520207026810020606009A0E060F6
:101D60003846FEF7D1FA0020287004E03846FEF726
:101D7000CBFA722028702046DFE700003D000020EB
:101D80002C0000203F0000002DE9F04F89B00546EF
:101D90000F4691469A46129E002002908C48007889
:101DA00028B102203070002009B0BDE8F08F8948CA
:101DB000007818B10D2030700020F5E7287805284C
:101DC00003D0012030700020EEE709F0800BBBF15A
:101DD000000F04D009F07F094FF0010801E04FF037
:101DE0000008FEF78DFA0290B9F1000F4AD0B9F160
:101DF000010F68D0B9F1020F03D0B9F1030F76D10A
:101E000020E0288900EA0704BC420FD1B8F1010F95
:101E100002D12889A04328816F48006884850298F0
:101E2000FEF772FA002030702046BDE74B463A4676
:101E300004A92846CDF800A000F032FF0298FEF772
:101E400063FA69E0288900EA07047CB1B8F1010F60
:101E500002D12889A04328815F48006884850298C0
:101E6000FEF752FA0020307020469DE74B463A4676
:101E700004A92846CDF800A000F012FF0298FEF752
:101E800043FA49E0288927EA0004BC420FD1B8F19F
:101E9000010F02D12889204328814F48006884859A
:101EA0000298FEF731FA0020307020467CE74B465E
:101EB0003A4604A92846CDF800A000F0F1FE0298A9
:101EC000FEF722FA28E0288927EA000484B1B8F155
:101ED000010F02D12889204328813F48006884856A
:101EE0000298FEF711FA0020307020465CE70BE004
:101EF0004B463A4604A92846CDF800A000F0D0FE93
:101F00000298FEF701FA07E00298FEF7FDF90024B7
:101F10006F203070204647E700BF01F0C3F8FEF79E
:101F2000EFF902902C48006890F8350020B32A4859
:101F3000006890F83500039000202749096881F86F
:101F4000350004A800F05AFF00202349096881F8F1
:101F500034000298FEF7D8F900240398012805D030
:101F6000022802D10E20307003E000BF0A2030703A
:101F700000BF00BF204617E717480068848DB8F1FE
:101F8000010F1ED1B9F1000F0ED0B9F1010F0CD025
:101F9000B9F1020F03D0B9F1030F0AD100E000BF7D
:101FA0002889A04328810BE000BF2889204328818D
:101FB00006E00298FEF7A8F96F2030700020F3E6E3
:101FC00000BF0298FEF7A0F9002030702046EBE633
:101FD0003D0000203E000020500000202DE9FC5F65
:101FE0000446894692461E46002000902078052827
:101FF00004D0012030700020BDE8FC9FFEF780F97E
:102000000090BAF1000F03D0BAF1010F0AD104E039
:10201000208920EA090020810BE0208940EA09009C
:10202000208106E00098FEF76FF9712030700020E3
:10203000E2E700BF4FF0000B656859E0A87C50B3A1
:1020400001283BD0022802D0032848D112E0208981
:10205000298A00EA0107288AB8420AD100223946B3
:10206000284600F09BFE8046B8F1010F01D14FF0E9
:10207000010B3BE02089298A00EA010757B10022C1
:102080003946284600F08AFE8046B8F1010F01D19A
:102090004FF0010B2AE0288A218920EA0107288ACB
:1020A000B8420AD100223946284600F077FE804621
:1020B000B8F1010F01D14FF0010B17E0288A2189F7
:1020C00020EA010757B100223946284600F066FE93
:1020D0008046B8F1010F01D14FF0010B06E00098E6
:1020E000FEF712F96F203070002085E700BF2D68E1
:1020F000002DA3D10098FEF707F9BBF1010F01D124
:1021000000F0D0FFFEF7FCF80090208901900098C5
:10211000FEF7FAF80020307001986DE710B500F076
:1021200013F800F0ADFE00F0D9FE00F0F9FE00F06B
:1021300077FE00F007FE00F08DFF00F031FF00F0A9
:1021400057FF00F019F810BD0848802102E0491E31
:10215000002204C00029FAD1054A064B1A601A462B
:10216000126822F007021A6070470000F0D70120C1
:10217000F0D9012070000020704700000648007868
:10218000012808D105480078FF2804D203480078C8
:10219000401C0249087070474A0000203D000020A2
:1021A00010B500241A480078012830D1FEF7A8F8AD
:1021B00004461848007820B116480078401E15499A
:1021C000087014480078F8B913480078E0B900F0B6
:1021D000A3FF12481249097850F8210011490860FC
:1021E0000F4800781049097888420DD00D480068E2
:1021F000C06B401C0B490968C8630C480068401C50
:102200000A490860FEF79CF82046FEF77DF810BDED
:102210004A0000203D0000203E00002000CF0120A9
:1022200040000020580000203F0000202400002033
:1022300070B5054600261048007808B1002070BD32
:10224000FEF75EF806460D480468006820B10B48AA
:1022500000684068094908603046FEF755F84CB1FF
:102260000120207000202081656005A0606120466B
:1022700000F008FD2046E2E73D0000202800002095
:102280003F0000002DE9F04104460E460027224899
:10229000007820B1102030700020BDE8F081FEF7FA
:1022A0002FF80746FF2C0ED01C4850F8240030B100
:1022B0003846FEF729F8282030700020EDE701208D
:1022C000164941F824001648056865B9FF2C03D06B
:1022D0000020124941F824003846FEF715F8042082
:1022E00030702846D9E70E48006840680C490860FD
:1022F0003846FEF709F804202870FF2040EA042041
:1023000028810020686007A06861284600F0BAFCB8
:10231000002030702846C0E73D00002000CF01209B
:10232000280000203F00000010B50B48007890B94D
:1023300000F0F2FE09480078094908700948074989
:10234000097850F8210008490860084600680749E4
:102350000860FDF7DCFF10BD4A00002040000020AF
:102360003F00002000CF0120580000205000002036
:10237000704700002DE9FE4F06460F4690461C466A
:102380004FF00009FDF7BCFF81461F48007828B1D7
:102390004846FDF7B9FF3C20BDE8FE8F1B4850F8CA
:1023A000240060BB0120194941F824004846FDF78C
:1023B000ABFF002342463946304600F011FA824610
:1023C00000200090019003460246514602902046AC
:1023D00000F0B8FE054635B90D48007801280CD14B
:1023E00000F060FE09E0FDF78BFF81460020074901
:1023F00041F824004846FDF787FF2846CCE74846C9
:10240000FDF782FF2820C7E73D00002000CF012014
:102410004A0000202DE9F04F85B081468A46934658
:102420001C46DDE90F78129D00200390FDF768FF40
:1024300003902348007830B10398FDF765FF3C20F6
:1024400005B0BDE8F08F1F4850F8240088BB01207C
:102450001C4941F824000398FDF756FF2A464146DF
:10246000384600F09DFF2B465A465146484600F03C
:10247000B7F904901198CDE9008002953A462046BC
:102480000E9B049900F05EFE064636B90E480078B1
:1024900001280CD100F006FE09E0FDF731FF0390A2
:1024A0000020084941F824000398FDF72DFF30462D
:1024B000C6E7FFE70398FDF727FF2820C0E70000E5
:1024C0003D00002000CF01204A000020704700009E
:1024D0002DE9F041054600274A48007810B1402018
:1024E000BDE8F0813F2D01D13E20F9E7FDF708FF5F
:1024F0000746FF2D03D14448006890F83650434802
:1025000050F8254024B93846FDF7FEFE4320E7E7A2
:10251000012C04D13846FDF7F7FE3D20E0E714F822
:10252000380F3B49085C617888432178384A505419
:1025300014F838091146085C30B994F83A10354857
:102540000078884333490870E06918B12046E16992
:1025500000F064FB206A18B12046216A00F075FB88
:10256000A66A16B1304600F049FC0020206384F8CA
:10257000340084F8350028480078FF2804D2264823
:102580000078401C244908703846FDF7BDFE00F075
:1025900044FBFDF7B5FE07461F48007820B11E48F2
:1025A0000078401E1C490870204600F041F81B4886
:1025B0000078401E194908700020144941F8250090
:1025C000A06930B9002061698861154960690860B7
:1025D00005E0D4E905014861D4E905108861114896
:1025E000006860610F4804600FA020653846FDF761
:1025F0008BFE0E480078012801D100F053FD002029
:102600006EE700003D0000205000002000CF0120B8
:1026100042000020410000203E0000204B0000202E
:102620005C000020540000203F0000004A00002011
:10263000704770472DE9F04106460F4614464FF0AB
:1026400000081548007818B112202070BDE8F0810C
:10265000FDF756FE8046FF2E03D11048006890F823
:1026600036600F4850F826502DB94046FDF74CFE15
:1026700043202070EAE7012D05D14046FDF744FED6
:1026800043202070E2E72F654046FDF73DFE002025
:10269000207000BFDAE700003D000020500000205D
:1026A00000CF012070B505460026FDF729FE06463D
:1026B000244850F8254024B93046FDF725FE462031
:1026C00070BD012C04D13046FDF71EFE4320F7E714
:1026D00094F8340000F0080070B314F8340F00F0E0
:1026E000F700207014F8340900F03700F8B9206BB7
:1026F000C8B93834A07814490978084312490870D9
:1027000020781249085C6178084314F838190F4A98
:1027100050543046FDF7F8FD0D480078012809D1E6
:1027200000F0C0FC06E03046FDF7EEFD02E030466A
:10273000FDF7EAFD0020C3E73046FDF7E5FD442044
:10274000BEE7000000CF0120410000204200002031
:102750004A000020704770472DE9F04707460D46B4
:102760004FF0000A002028606860FDF7C9FD82462E
:10277000FF2F03D11848006890F83670174850F8BA
:1027800027402CB95046FDF7BFFD4320BDE8F08738
:10279000012C04D15046FDF7B7FD4320F6E7207C1D
:1027A00000F0010020B95046FDF7AEFD4520EDE7F1
:1027B0000026D4F80C90D4F808805046FDF7A4FD0C
:1027C00000E0761C58F8041B0029FAD02E60A9EB13
:1027D000060068600020D9E75000002000CF0120EB
:1027E00070B50446101D20F007004FF08076051FDD
:1027F00028462E60051F28462C60684E051F284677
:102800002E604FF01236051F28462E604FF003361B
:10281000051F28462E604FF00236051F28462E6001
:102820007610051F28462E60051F284629604FF0A8
:102830001136051F28462E604FF01036051F28461A
:102840002E604FF00936051F28462E604FF00836DF
:10285000051F28462E604FF00736051F28462E60BC
:102860004FF00636051F28462E604FF00536051F2F
:1028700028462E604FF00436051F28462E6003F0D0
:102880000405002D7ED0F605051F28462E60444E17
:10289000051F28462E60434E051F28462E60424ED7
:1028A000051F28462E60414E051F28462E60404ECB
:1028B000051F28462E603F4E051F28462E603E4EBF
:1028C000051F28462E603D4E051F28462E603C4EB3
:1028D000051F28462E603B4E051F28462E603A4EA7
:1028E000051F28462E60394E051F28462E60384E9B
:1028F000051F28462E60374E051F28462E60364E8F
:10290000051F28462E604FF08346051F28462E607F
:10291000324E051F28462E60314E051F28462E6078
:10292000304E051F28462E602F4E051F28462E606C
:102930002E4E051F28462E602D4E051F28462E6060
:102940002C4E051F28462E604FF08246051F284654
:102950002E60294E051F28462E60284E051F28464A
:102960002E60274E051F28462E604FF08146051F1A
:1029700028462E60234E051F28462E603602051F6E
:10298000284600E009E02E604FF07E56051F2846DD
:102990002E600026051F28462E6070BDAD3200084F
:1029A0000000F8410000F0410000E8410000E04173
:1029B0000000D8410000D0410000C8410000C041E3
:1029C0000000B8410000B0410000A8410000A04153
:1029D00000009841000090410000884100007041D3
:1029E00000006041000050410000404100003041C3
:1029F00000002041000010410000E0400000C04005
:102A00000000A040000040402DE9F04105464FF095
:102A10000008FDF775FC8046FF2D05D120480068B1
:102A200090F83650012608E01D48006890F83600FE
:102A3000A84201D1012600E000261A4850F825409E
:102A40002CB94046FDF760FC4820BDE8F081012C20
:102A500004D14046FDF758FC4320F6E794F838705F
:102A60001148C05D94F8391088430F49C85508468D
:102A7000C05D30B994F83A100C48007888430B498F
:102A8000087094F8340040F0080084F834004046A0
:102A9000FDF73AFC012E01D100F004FB0020D4E741
:102AA0005000002000CF0120420000204100002003
:102AB0007047000070B5054600261748007800B141
:102AC00070BD1648007800B1FAE71DB3FDF718FC99
:102AD00006461348006890F838401248005D1049D7
:102AE000096891F8391088430E4908550846005D79
:102AF00040B90B48006890F83A100B4800788843BA
:102B0000094908700648006805633046FDF7FCFB7C
:102B100000F0C8FA00BFD3E73D0000203E000020CF
:102B200050000020420000204100002070B5002627
:102B300000F072F8FDF7E4FB064631480068401CDF
:102B40002F4908603046FDF7DFFB2E48007801284A
:102B500053D12D48007820B1012804D0022809D192
:102B600003E001250BE0002509E0012501202649AD
:102B7000087004E0012500202349087000BF00BF51
:102B800005B970BD2148046833E0FDF7B9FB06467E
:102B9000206B50B3206B401E2063206B28BB94F841
:102BA000340000F0370040B114F8340F00F0C800D2
:102BB000207001206070343C02E0002084F8350071
:102BC00094F8340000F0080078B93834A07810493F
:102BD000097808430E49087020780E49085C61782E
:102BE000084314F838190B4A505464693046FDF70D
:102BF0008BFB94F836003F28C7D100BFC1E7000027
:102C00006C0000204A000020600000205C000020D2
:102C100041000020420000207047704710B590F836
:102C2000382001F10B039B5C90F83940A34301F17C
:102C30000B04A35423469B5C23B98B7A90F83A404B
:102C4000A3438B720023C36110BDF0B5024612F896
:102C5000384F95785678383A0B4618680FE000F1EF
:102C60000B073F5DB74300F10B0C0CF8047067468F
:102C70003F5D17B9877AAF4387721B1D186800281C
:102C8000EDD1F0BD014600228A72002005E000234C
:102C900001F10B021354421CD0B20828F7D370473D
:102CA000F0B51446059E244F3F6897F8347047F0FE
:102CB0002007DFF884C0DCF800C08CF834700027EF
:102CC000DFF874C0DCF800C08CF835701A4F3F682C
:102CD0003E63194F3F68B9620C828B74164F3F6890
:102CE0008F6047680F6000274F60C860456805B176
:102CF00069604160104F3F6897F838200F4FBF5C04
:102D0000DFF834C0DCF800C09CF839C027EA0C07B3
:102D1000DFF828C00CF802706746BF5C5FB9064F49
:102D20003F6897F83AC0064F3F7827EA0C07DFF86C
:102D300010C08CF80070F0BD500000204200002050
:102D4000410000202DE9F0415021114800F078F9B0
:102D500000250DE0681C86B20D4800EB051400EB61
:102D600006170020207067600AA0E060681C85B22A
:102D7000042DEFD3064800EB05140020207060609E
:102D800004A0E060024804490860BDE8F08100004A
:102D9000B0CA01203F0000002C0000202DE9F041C6
:102DA000064688461746B468002044F8300F24F8D9
:102DB000048C207900F0DF00207167712079303CAD
:102DC00088B93834A0780B49097808430949087054
:102DD00020780949085C6178084314F83819064AD4
:102DE0005054012500E00025304600F007F8284641
:102DF000BDE8F081410000204200002030B50146CE
:102E00004A6808682AB9CC68606028B10025456026
:102E100002E0106000B142608B6800259D6230BD09
:102E200070B54FF4F071134800F00AF9002411E076
:102E3000601C85B204EB44000E4901EBC00305EBB6
:102E4000450001EBC006002018705E600AA05861C2
:102E5000601C84B2132CEBD304EB4400054901EB56
:102E6000C00300201870586003A058610846034949
:102E7000086070BDD0C801203F000000280000207D
:102E800000200B4908600B4908700B4908700B497A
:102E900008700B4908700B4908600B4908600B4922
:102EA00008600B4908600B4908700B4908707047AF
:102EB0006C0000203D0000203E0000204B00002060
:102EC0004A000020240000204C0000203800002090
:102ED000340000203C0000206800002000210A4A45
:102EE0001170002004E00021084A1154411CC8B2AE
:102EF0000828F8D30021064A1170064A1170064AC4
:102F00001160064A11607047410000204200002015
:102F10003F0000204000002058000020500000200A
:102F200070B54FF4F261194800F08AF84FF48071DF
:102F3000174800F085F8002413E0601CC5B204EBCC
:102F4000440000EBC400114901EBC00305EB450050
:102F500000EBC50001EBC0065E610EA01865601CA9
:102F6000C4B2152CE9D304EB440000EBC4000749BC
:102F700001EBC0030020586106A018650020064937
:102F8000086002480549086070BD000000D00120BB
:102F900000CF01203F0000005C0000205400002012
:102FA00000B587B00320002180220A4BCDE9013211
:102FB000CDE903104FF6FF703F23074A0090074802
:102FC000FFF728FA06AA06A13F20FFF733FB07B058
:102FD00000BD000000CD0120FCCE0120853200089C
:102FE00075432F4F532D49492049646C65000000FB
:102FF00000B587B00320002180220A4BCDE90132C1
:10300000CDE903104FF6FE703E23074A00900748B3
:10301000FFF700FA06AA06A13E20FFF70BFB07B058
:1030200000BD000000CB0120FCCC0120C53200080F
:1030300075432F4F532D494920537461740000008C
:1030400004E0002200F8012B4A1E91B20029F8D1B9
:10305000704700002DE9F04160211048FFF7F0FFB4
:1030600000240DE0601C86B204EB44000B4901EB28
:10307000C00506EB460001EBC0072F60601C84B260
:10308000032CEFD304EB4400044901EBC0050020FE
:103090002860084602490860BDE8F08190D7012009
:1030A0006400002010B50024FDF72AF904461348F7
:1030B0000078F8B912480078E0B900F02DF811480E
:1030C0001149097850F82100104908600E4800782D
:1030D0000F49097888420DD00C480068C06B401C2D
:1030E0000A490968C8630B480068401C0949086020
:1030F000FDF721F92046FDF707F910BD3D0000203E
:103100003E00002000CF0120400000205800002099
:103110003F000020240000200649074A1278885CFE
:103120000649095C034A515C01EBC001044A117075
:103130007047000094660008410000204200002013
:10314000400000202DE9F84F05460F46904699466D
:10315000DDE90AAB00200090FDF7D2F8009042486C
:103160000468002C7BD01C3454F8080C3E490860DD
:103170000098FDF7C9F844F81C7CA576002020765D
:103180006076606144F818BC44F810AC44F8148CC4
:103190000C9824F80C0C24F80A9C0020E077E81026
:1031A000207705F00700E076217F01208840A07796
:1031B000E17E012088406077002020606060E06050
:1031C000A0602062A0626062E062206327A060636A
:1031D0001C3C002606E0002104F1540040F82610B3
:1031E000701CC6B2002EF6D02046FFF7C1F8FDF7DE
:1031F00087F800901E4840F825400098FDF784F8B5
:103200002046FFF763F9FDF77BF800901948006846
:1032100060610020A0611748006810B1154800687F
:103220008461144804603834A0781349097808434D
:103230001149087020781149085C6178084314F836
:1032400038190E4A50540E480078401C0C4908703A
:103250000098FDF759F80020BDE8F88FFFE70098C7
:10326000FDF752F84220F7E7540000203F0000002D
:1032700000CF01205C00002041000020420000201F
:103280004B000020002400BF00BFFDF739F80446C2
:1032900005480068401C044908602046FDF734F8E2
:1032A000FFF7C7F9F1E700004C00002010B5044813
:1032B0000068FFF74FFAFF20FFF70AF910BD000082
:1032C0005000002000BF00BF02E02820FFF7F2FB03
:1032D0001F4800780028F8D01E4800686421B0FB21
:1032E000F1F01C4908600846006828B900201A4916
:1032F0000870FF20FFF788FBFDF702F80446154829
:10330000006864214843154908602046FCF7FCFF2B
:1033100000BFFCF7F5FF044610480068104908603C
:1033200000200E4908602046FCF7EEFF0C480068BC
:1033300008490968B0FBF1F0C0F164000649087063
:10334000FFF709FA00F00EF81420FFF7B3FBE0E7EF
:103350003C00002034000020300000204C00002001
:10336000380000207CB5002514E069462846FFF7A8
:10337000F3F9064666B9094850F8254044B1012CD6
:1033800006D0D4E9020100EB8100A0640198E0645A
:10339000681CC5B23F2DE8D97CBD000000CF0120DC
:1033A00002F0010343B102F002032BB102E0491E17
:1033B000002308C00029FAD1704770470CB50020DF
:1033C000019000903448006840F480303249086031
:1033D00000BF3148006800F4003000900198401CA4
:1033E0000190009818B90198B0F5A04FF1D12A4882
:1033F000006800F4003010B10120009001E00020CE
:1034000000900098012846D123484030006840F0E1
:1034100080502149403108602048006840F4404015
:103420001E4908601C48083000681B4908310860C4
:103430000846006840F4004008600846006840F410
:10344000A05008601648091F0860081F006840F077
:103450008070091F086000BF0F48006800F000700E
:103460000028F9D040F205700E4908600A4808307B
:10347000006820F003000849083108600846006829
:1034800040F00200086000BF03480830006800F008
:103490000C000828F8D10CBD003802400070004034
:1034A00019544007003C024010B5FEF767FEFFF7D5
:1034B0003DFBFEF775FE10BD10B51548006840F4E1
:1034C0007000134908601348006840F0010011497A
:1034D000086000200F49083108600E4800680E4956
:1034E00008400C4908600D48091D0860081F006865
:1034F00020F48020091F0860002006490C31086074
:10350000FFF75CFF4FF0006001498039086010BD93
:1035100088ED00E000380240FFFFF6FE1030002486
:103520002E48008A00F00200002841D02B48008A73
:1035300020F001002949088200BF2848008A00F0D5
:1035400002000028F9D1254948620846406B40F244
:103550001451884208D92148406BB0F5AF6F03D2AF
:1035600001201F49087023E01D48007801281FD161
:103570001C48406BDC280ED91A48406BE6280AD25A
:10358000194800684008184908600846006840F07B
:10359000004008600CE01148406B692808D90F48CA
:1035A000406B782804D21048006840080E49086033
:1035B0000A48008A00F4007078B10848008A20F4B4
:1035C00000700649088200BF0448008A00F40070B9
:1035D0000028F9D10120054908707047000001401A
:1035E00021000020004001401C000020200000209D
:1035F0003248008800F0010000285ED030480068A2
:10360000B0F57A7F1DD22F480068D0B92B480088CA
:1036100020F001002949088029480068401E2749F8
:103620002431086026480068401C254908600020B5
:103630002449086022480068B0F57A7F01D1012052
:1036400008601F480068B0F57A7F1CD81D480068E4
:10365000012818D11948008820F001001749088076
:1036600017480068401E1549243108601448006856
:10367000401E134908600120124908601048006884
:1036800008B9002008600D480830008820F0FF00CD
:103690000A49083108800846008840F06000088028
:1036A00006481030008820F00F00044910310880CF
:1036B0000846008840F00100088070471004004070
:1036C00014000020180000201CB52F48008A00F0CC
:1036D0000100002856D02C48008A20F001002A4919
:1036E00008822A4800784006000E284908702848B9
:1036F0000068C0F340000978084324490870084670
:10370000007848BB694601A801F05AF900B91CBD10
:103710002048007800F0010078B91E48007820F0B9
:103720000400001D1B490870BDF804004880C880D3
:10373000BDF800008880088106E0BDF80400154946
:10374000C880BDF8000008811248007820F0010010
:10375000401C1049087015E00C480078FF2811D172
:103760000C48007800F0010030B10A48007820F0E1
:103770000200801C074908700648007820F001000C
:103780000449087000BFC2E700100040220000207A
:1037900010040240C4C801202949098801F0200111
:1037A000B9B32749098821F02001254A1180114623
:1037B0008988C8B22349097801EBC111224A02EB7A
:1037C0004101891C214A1268885420490968491C12
:1037D0001E4A116011460968B1F5807F2ED111464D
:1037E0000988184A127802EBC212174B23F81210FC
:1037F0001449097809B9012100E00021114A11702A
:103800000021124A116012490968491C104A1160CE
:1038100014E0FFE70A49098801F0100171B1084975
:103820008988C8B209490988064A127802EBC2128F
:10383000054B23F812100021044A11607047000064
:103840000010014004000020ACC601200000002050
:103850000800002000BFFEE703B401984100009873
:1038600050EAC12018BF04204A0D18BF40F00100E3
:1038700040F2FF72B2EB515F08BF40F00200012836
:1038800008BF052002B0704710B52F499FED2C1BD3
:103890002DED020B84B0059820F000408842D8BF7F
:1038A0009DED040B2DDD2949884209D1049840B9CA
:1038B0004FF00100FCF7B8FE00F0A2FC06B010BD0E
:1038C00005DB9DED040B00F08FFC06B010BD6846D3
:1038D0009DED040B00F0A0F810F0030004BF9DED77
:1038E000021B9DED000B0CD001280ED09DED021B9C
:1038F0009DED000B022817D0012000F0DDFB06B083
:1039000010BD00F0A5FA06B010BD9DED021B9DEDA7
:10391000000B012000F0D0FB51EC100B02F0A8F9D5
:1039200006B041EC100B10BD00F092FA51EC100BF8
:1039300002F09EF906B041EC100B10BD0000000033
:103940000000000000000000FB21E93F0000F07FC4
:1039500010B52F499FED2C1B2DED020B84B005985F
:1039600020F000408842DCBF00209DED040B32DDDA
:103970002849884209D1049840B94FF00100FCF76A
:1039800053FE00F03DFC06B010BD05DB9DED040BC1
:1039900000F02AFC06B010BD68469DED040B00F057
:1039A0003BF810F0030011D0012818D09DED021B48
:1039B0009DED000B02281AD000F04AFA51EC100BD2
:1039C00002F056F906B041EC100B10BD9DED021B44
:1039D0009DED000B012000F06FFB06B010BD9DEDCA
:1039E000021B9DED000B00F033FA06B010BD012064
:1039F00000F062FB51EC100B02F03AF906B041EC1A
:103A0000100B10BD000000000000000000000000CE
:103A1000FB21E93F0000F07F2DE9F14F04462DED39
:103A2000020B2DED088B8AB09FEDE70B80ED020BAA
:103A3000139EE74826F0004585420ADC9DED120BF7
:103A4000002084ED000B0AB0BDEC088B03B0BDE88C
:103A5000F08FE0489FEDE0AB9FEDE1BBA84247DD72
:103A6000E14F9FEDE39B9FEDE48B9DED120B53EC3B
:103A70001A2B51EC100B002E1CDD02F09BFC41ECCC
:103A8000100BBD4208D053EC1B2B51EC100B02F075
:103A900091FCC4E900010BE053EC192B51EC100B25
:103AA00002F088FC53EC182B02F084FCC4E90001FE
:103AB0000120C8E702F01AF941EC100BBD4208D012
:103AC00053EC1B2B51EC100B02F010F9C4E9000170
:103AD0000BE053EC192B51EC100B02F007F953ECEF
:103AE000182B02F003F9C4E900014FF0FF30AAE7F8
:103AF000C348A84279DB9DED120B51EC100B00F08E
:103B000047FF41EC180B9FEDC00B53EC102B02F05C
:103B100047FB9FEDBF1B53EC112B02F0E7F802F0BF
:103B2000E5FA074602F011FB41EC190B53EC1A2B96
:103B300002F036FB53EC182B02F030FC41EC180B72
:103B400053EC1B2B51EC190B02F02AFBDFF8C8A237
:103B500041EC100B4FEA15580125FA4453EC102B99
:103B600051EC180B02F026FC032DC4E900013DD0F6
:103B7000C1F30A5005EB4511A8EB00001139814251
:103B800034DA0AEB051BB0EE48AA9BED000BF0EE11
:103B900068AA53EC102B51EC190B02F001FB41EC1D
:103BA0001B0B51EC1A0B53EC1B2B02F003FC41ECEA
:103BB000180B51EC1A0B53EC182B02F0FBFB53ECD7
:103BC0001B2B02F0F7FB9BED020B41EC1A0B53ECA5
:103BD000102B51EC190B02F0E3FA53EC1A2B02F004
:103BE000E9FB41EC100B6D1CB8E70EE0002EA8BFFE
:103BF0003846BFF628AF94ED000B51EC100B02F0E5
:103C000037F8C4E9000178421DE7C6F3130040F419
:103C1000801EC6F30A50A0F2F530471100F01F05D0
:103C2000C5F12000DDF848B008900020069007900C
:103C30000520EC467949002D07EB0002794408BFC6
:103C400051F8221009D051F8223001EB8201AB402B
:103C50004A68089922FA01F11943A1FB0E26A1FB3B
:103C60000B131A449A4234BF0123002303EB0608C6
:103C70000CEB8003D3E901A60E448E4234BF012130
:103C8000002192448A4411B1924502D903E0924541
:103C900001D2012100E00021C3E901A641444CF812
:103CA0002010011EA0F10100C4DC029800F10050B8
:103CB000850F0298DDE903678000DDF8148002F0CB
:103CC00044FA41EC1A0B304602F056FA9FED541BB1
:103CD00053EC112B02F064FA41EC1B0B384602F056
:103CE0004BFA9FED511B53EC112B02F059FA41ECAA
:103CF000180B404602F040FA9FED4D1B53EC112B80
:103D000002F04EFA41EC190B51EC180B53EC192B45
:103D100001F0ECFF53EC1B2B01F0E8FF53EC1A2BE6
:103D200001F0E4FFCDE90801002008909DED080BAB
:103D300053EC1A2B51EC100B02F03CFB53EC1B2BF9
:103D400002F038FB53EC182B02F034FB53EC192B28
:103D500002F024FB9FED381B53EC112B02F020FAEC
:103D60009FED370B41EC180B53EC102B9DED080B1E
:103D700051EC100B02F014FA53EC182B01F0B6FFC3
:103D80009FED310B41EC180B53EC102B9DED080B04
:103D900051EC100B02F004FA53EC182B01F0A6FFC3
:103DA00041EC100B139810F0004F06D06D4251EC0F
:103DB000100B01F05DFF41EC100B284684ED000B69
:103DC00041E60000000000000000000000000000CC
:103DD000FB21E93F7CD9024000004054FB21F93F20
:103DE0003163621A61B4D03DFB21F93F000000004D
:103DF0000000601A61B4D03D7370032E8A19A33B92
:103E0000FB2139410000000083C8C96D305FE43FE9
:103E1000000000000000E03F6A2C0000B82B00000A
:103E2000000000000000103E000000000000103CF8
:103E3000000000000000103A182D4454FB21F93D09
:103E40003326A611460B113C00000054FB21F93D1E
:103E500010B52DED040B2DED088B82B0B0EE419A1C
:103E6000F0EE619A0B9820F000449FED4BABB4F15B
:103E7000795F11DA9DED0A0B51EC100B02F036F967
:103E8000002801BFB0EE4A0AF0EE6A0A02B0BDECAB
:103E9000088B04BF04B010BD9DED0A0B53EC102B32
:103EA00051EC100B02F07CF941EC180B3C48062158
:103EB000B0EE480AF0EE680A784400F081F853EC5E
:103EC000182B51EC100B02F06BF99DED0A0B41EC35
:103ED0001B0B53EC192B51EC100B02F061F941EC68
:103EE000190B53EC1B2B51EC180B02F059F953EC46
:103EF000192B02F05FFA9FED2C0B41EC190B53ECE0
:103F0000102B51EC180B02F04BF941EC100B284828
:103F1000844210DA53EC192B51EC100B02F04AFAE0
:103F200053EC1A2B02F03AFA41EC100B02B0BDEC44
:103F3000088B04B010BD1F48A042BCBF9FED1E1BE4
:103F40008DED001B06DBA4F5001001900020009011
:103F50009DED001B51EC100B53EC112B02F02AFAD3
:103F60009DED000B41EC180B53EC102B51EC1A0B90
:103F700002F020FA41EC1A0B53EC192B51EC180B00
:103F800002F018FA53EC1A2B02F008FA41EC100B6D
:103F9000CCE7000000000000000000000000F03F3F
:103FA000DC28000000000000000000000000E03FEE
:103FB0003333D33F0000E93F000000000000D23F50
:103FC00070B504462DED028B4D1E00EBC500B0EE22
:103FD000408AF0EE608A90ED000B35F0060017D0B5
:103FE00053EC182B51EC100B02F0DAF841EC100BEB
:103FF0006D1E04EBC50090ED001B51EC100B53EC53
:10400000112B01F073FE41EC100B35F00600E7D1E7
:10401000022D36D0042D1CD0062D1CBFBDEC028B0A
:1040200070BD53EC182B51EC100B02F0B9F894ED65
:104030000A1B53EC112B01F059FE53EC182B02F024
:10404000AFF894ED081B53EC112B01F04FFE41EC3F
:10405000100B53EC182B51EC100B02F0A1F894ED5F
:10406000061B53EC112B01F041FE53EC182B02F010
:1040700097F894ED040B53EC102B01F037FE41EC54
:10408000100B53EC182B51EC100B02F089F894ED47
:10409000021B53EC112B01F029FE53EC182B02F0FC
:1040A0007FF894ED001B53EC112B01F01FFEBDECCB
:1040B000028B41EC100B70BD31B504462DED040BA5
:1040C0002DED0A8BB0EE41BAF0EE61BA0B989DED82
:1040D0000A0B20F00040B0F1795F0DDA51EC100BC3
:1040E000FFF7BAFB042808BF00F09AF89DED0A0B11
:1040F000BDEC0A8B05B030BD53EC102B51EC100B0E
:1041000002F04EF841EC180B9DED0A0B53EC182B06
:1041100051EC100B02F044F841EC190B2C48B0EEB6
:10412000480AF0EE680A05217844FFF749FF9FED41
:104130002ACBB0EE40AAF0EE60AA9CB353EC1C2B45
:1041400051EC190B02F02CF841EC1C0B53EC1A2B20
:1041500051EC190B02F024F89FED210B41EC190BE7
:1041600053EC102B51EC1B0B02F01AF853EC192BEB
:1041700002F020F953EC182B02F012F853EC1B2B31
:1041800002F018F953EC1C2B02F014F99DED0A1BF8
:1041900053EC112B02F002F9BDEC0A8B05B041EC97
:1041A000100B30BDFFE753EC1A2B51EC180B01F04C
:1041B000F7FF53EC1C2B01F099FD53EC192B01F088
:1041C000EFFF9DED0A1B53EC112B01F08FFDE3E790
:1041D0006427000000000000495555555555C5BFDE
:1041E000000000000000E03F10B553EC102B51EC34
:1041F000100B01F07BFD41EC100B10BD0000000026
:104200009FED050B10B553EC102B51EC100B01F08A
:1042100015FE41EC100B10BD000000000000000076
:104220009FED050B10B553EC102B51EC100B01F06A
:10423000B7FF41EC100B10BD0000000000000010A3
:1042400000BFFEE7014621B90748006800F00300FF
:104250007047012905D10448001D006800F00300E3
:10426000F6E70020F4E700000C64004030B585B0AC
:1042700004460D46002003900290FFF7E3FF10B9BB
:10428000002005B030BD002002AB03AA04A9CDE98F
:104290000040284600F008F89DF80C00012800D1E5
:1042A00002909DF80800ECE7F0B5DDE905543B4EBF
:1042B00006EB0416366806F004060E700E7836B962
:1042C000364E06EB04163668760D066005E0334E72
:1042D00006EB04163668F6080660304E06EB041648
:1042E000366806F0020616702C4E06EB0416766849
:1042F00006F00F061E701E78092E3CD2DFE806F08D
:104300003B352E27201A130C0500244E06EB04160D
:10431000F668360EEE7100BF204E06EB0416F66806
:10432000360CAE7100BF1D4E06EB0416F668360A59
:104330006E7100BF194E06EB0416F6682E7100BFB1
:10434000164E06EB0416B668360EEE7000BF134E1E
:1043500006EB0416B668360CAE7000BF0F4E06EBC7
:104360000416B668360A6E7000BF0C4E06EB0416D3
:10437000B6682E7000E000BF00BF34B1084E36684A
:1043800046F02006064F3E6007E0054E361F3668B1
:1043900046F02006024F3F1F3E60F0BDB065004072
:1043A000106400402DE9F84106460C4615464FF0D2
:1043B00000082B46002211463046009400F014F805
:1043C00007460AE008F1010080B2804640F6FF711E
:1043D000884202DB0120BDE8F881384600F0E0F8B1
:1043E0000728EFD10020F6E7F0B505460E46059CFC
:1043F0006948006800F0806008B100210FE066485D
:10440000006800F0006008B1012108E0624800681F
:1044100000F0805008B1022101E0FF20F0BD00272C
:104420005E4800EB011007601EB9C5F30A056D0573
:1044300002E025F06045ED00584800EB01100068EF
:104440002843564F07EB01173860544800EB011022
:10445000006840EA8607514800EB011007604F48AA
:1044600000EB0110006840EA42074C4800EB0110E5
:10447000076003F00F03494800EB0110406820F08B
:104480000F07464800EB01104760444800EB01105D
:1044900040681843414F07EB0117786000273F48F9
:1044A00000EB011087603D4800EB0110C760092B4D
:1044B00064D2DFE803F063584C4034291D11050035
:1044C000364800EB0110C068E77940EA07673348D7
:1044D00000EB0110C76000BF304800EB0110C0685E
:1044E000A77940EA07472D4800EB0110C76000BFDD
:1044F0002A4800EB0110C068677940EA072727487F
:1045000000EB0110C76000BF244800EB0110C06839
:1045100027793843214F07EB0117F86000BF1F4888
:1045200000EB01108068E77840EA07671B4800EB62
:104530000110876000BF194800EB01108068A77860
:1045400040EA0747154800EB0110876000BF134899
:1045500000EB01108068677840EA07270F4800EBFE
:104560000110876000BF0D4800EB011080682778BC
:1045700038430A4F07EB0117B86000E000BF00BFE7
:10458000064800EB0110006840F00107034800EB0B
:1045900001100760084641E708640040806500405C
:1045A0000146002021B1012913D0022933D121E095
:1045B0001B4A126802F001021043194A126802F005
:1045C00002021043164A126802F0806240EA12604A
:1045D00023E0134A126802F001021043104A1268E5
:1045E00002F0020210430E4A126802F0006240EA32
:1045F000526012E00A4A126802F001021043084AAF
:10460000126802F002021043054A126802F080525A
:1046100040EA926001E0052000BF00BF7047000043
:104620000864004008B5414800238322012100901E
:104630003F480068FDF7A8FB40F6FF7040F2DF132B
:10464000002240F23F1100901046FCF7BBFF6BE0E8
:10465000002438493848FFF709FE00BF08E0374812
:1046600050F8240033490968884200D102E0641CF4
:10467000092CF4DB00BF32A26421282000F0DAFE0E
:10468000012807D108222EA1AE2000F08DFE0B20BC
:10469000FEF708F82CA26421962000F0CBFE01283A
:1046A00004D108222BA1AE2000F07EFE2BA2C8214F
:1046B000282000F0BFFE012804D1082227A1AE2047
:1046C00000F072FE27A2C821962000F0B3FE012858
:1046D00004D1082226A1AE2000F066FE26A24FF4E7
:1046E0009671282000F0A6FE012804D1082222A1FC
:1046F000AE2000F059FE22A24FF49671962000F0F1
:1047000099FE012804D1082220A1AE2000F04CFE21
:1047100020A24FF4C871502000F08CFE012802D175
:104720000820FEF771F900BF92E7000028C40120BD
:1047300018C401202CC40120E4F4012030C401205D
:104740004C4544315F4F4E004C4544315F4F464627
:10475000000000004C4544315F4F46004C45443258
:104760005F4F4E004C4544325F4F4646000000000C
:104770004C4544325F4F46004C4544335F4F4E003A
:104780004C4544335F4F4646000000004C454433DF
:104790005F4F4600717569740000000010B541EC70
:1047A000100BFFF771F851EC100B10BD002106E063
:1047B00042F6E06100BF0A1EA1F10101FBD1021E19
:1047C000A0F10100F4D17047002106E042F6E0615B
:1047D00000BF0A1EA1F10101FBD1021EA0F10100E0
:1047E000F4D17047002105E00C2100BF0A1EA1F1A1
:1047F0000101FBD1021EA0F10100F5D1704730B5D7
:1048000003460C4615462A20FCF714FF180AFCF74D
:10481000FFFFD8B2FCF7FCFF180AFCF7F9FFD8B28B
:10482000FCF7F6FF2B20FCF705FF200AFCF7F0FF52
:10483000E0B2FCF7EDFF200AFCF7EAFFE0B2FCF77C
:10484000E7FF2C20FCF7F6FE2846FCF7E1FF30BD21
:104850002DE9F05F2DED068B0746884615461E466E
:10486000DDF840904FF0000AD346002466B900BF3F
:1048700007E0391988B24A464146FFF7C0FF601C7D
:1048800084B2AC42F5DB77E05A2E0DD1002408E06B
:1048900008EB040081B24A463846FFF7B0FF601CBF
:1048A00084B2AC42F4DB67E0B42E0CD1002407E004
:1048B000391B88B24A464146FFF7A1FF601C84B20B
:1048C000AC42F5DB58E0B6F5877F0DD1002408E057
:1048D000A8EB040081B24A463846FFF790FF601CFF
:1048E00084B2AC42F4DB47E0002443E0304601F000
:1048F00043FC41EC1A0B9FED220B53EC102B01F003
:104900004FFC41EC190B9FED200B53EC102B01F0E9
:1049100095FA41EC180BB0EE480AF0EE680AFFF782
:104920003DFF38441FFA80FA304601F025FC41EC87
:104930001A0B9FED130B53EC102B01F031FC41ECE3
:10494000190B9FED110B53EC102B01F077FA41EC92
:10495000180BB0EE480AF0EE680A00F0ABFDA8EBC9
:1049600000001FFA80FB4A4659465046FFF747FFB2
:10497000601C84B2AC42B9DBBDEC068BBDE8F09F95
:104980001F85EB51B81E0940000000000080664002
:1049900082B0CDE9000121F0004001909DED000BB7
:1049A00002B051EC100B704701464FF0FF307047DA
:1049B00010B503460C46184600F034FD10BD00004B
:1049C0002DE9F04704460D46D02000F057FC06467E
:1049D000902000F053FC0746D02000F04FFC8046AA
:1049E000902000F04BFC8146A6EB0801002901DB7A
:1049F0000A4600E04A42142A08DCA7EB0900002816
:104A000001DB024600E04242142A02DD0020BDE83C
:104A1000F08706EB080000EBD071C1F34F01218055
:104A200007EB090000EBD071C1F34F01298020484A
:104A30000069A52835D11E4890ED020A208800EEB5
:104A4000900AF8EE600A1A4890ED001A00EE810A0A
:104A5000BCEEC00A10EE100A2080154890ED030A43
:104A6000288800EE900AF8EE600A114890ED011ACD
:104A700000EE810ABCEEC00A10EE100A28802088E1
:104A8000B0F5A07F02DB40F23F1000E020882080DC
:104A90002888B0F5F07F02DB40F2DF1000E02888C4
:104AA00028802A88218803A0FBF784FC0120AEE738
:104AB000B0C80120B0B4CFC2BAF3783A25640A2C4A
:104AC000793A25640A000000F0B50446059E0025E9
:104AD0007048006840F001006E4F38606E48006812
:104AE00020F440006C4F38603846006840F4000005
:104AF00038603846006820F04070386038460068FA
:104B000040F0007038603846406820F4C05078604B
:104B10003846806820F07070B8603846806840F091
:104B20002070B8603846406A20F470475A4847629F
:104B3000406A40F4104758484762406A20F47027A2
:104B400055484762406A40F410275348476251482D
:104B50001030006840F000704E4F10373860002071
:104B60004E4F38603846006840F00100386006E07B
:104B7000681C80B20546642801DD0220F0BD47486C
:104B8000001D006800F001000028F1D043480068D3
:104B900040F01000414F38600020404F1C37386013
:104BA0003846006840EA8670386038460768581E04
:104BB00047EA0060394F1C37386038460768501E96
:104BC00047EA0050354F1C37386038460768481EA2
:104BD00047EA0040314F1C37386038460068671E8E
:104BE00038432E4F1C3738602C48006820F00100F5
:104BF0002A4F386008E0681C80B205464FF6F0770F
:104C0000B84201DD0320B9E72448001D006800F028
:104C100001000028EFD12248006840F00100204F39
:104C200038601F481C30006820F001001C4F1C3702
:104C300038601B480C30006840F00100184F0C37FA
:104C400038601748001D006820F00100144F3F1D18
:104C5000386013481430006820F00100104F1437FA
:104C6000386000200E4F4037386000270C48443031
:104C700007600B481C30006840F00100084F1C37EB
:104C800038600748006820F00100054F38600020B8
:104C900074E7000030380240000002400064004029
:104CA000006600401148006840F010000F4908609D
:104CB00053200F49088540F21F30C862084600881B
:104CC00040F0010008800846808940F0010088819A
:104CD000362000F01F02012191404209920002F1AA
:104CE000E022C2F8001100BF7047000040380240C7
:104CF0000010004010B54248006840F026004049CE
:104D000008604048006820F003003E4908600846FB
:104D1000006840F001000860081D006820F00100F4
:104D2000091D0860081D006820F00300091D0860C7
:104D30000846006840F0020008603348006820F030
:104D40004060314908600846006840F080600860B3
:104D5000081D006820F40050091D0860081D006847
:104D600020F04060091D08600846006840F00060BF
:104D700008602648006820F440002449086008467E
:104D8000006840F480000860081D006820F400609E
:104D9000091D0860081D006820F44000091D086016
:104DA0000846006840F4000008601648006820F0DB
:104DB00030001449086008460068086011480C304B
:104DC000006820F030000F490C3108600D48006881
:104DD00020F00C000B49086008460068086009488C
:104DE0000C30006820F00C0006490C310860FFF719
:104DF00059FF07480069A52801D000F039FC10BD13
:104E00003038024000040240000802400014024012
:104E1000B0C801201248006840F010001049086036
:104E20001048006820F030000E4908600846C0684D
:104E300020F03000C8600846006820F0C00008601C
:104E40000846C06820F0C000C8600846006820F42A
:104E5000407008600846C06820F44070C860704721
:104E60003038024000100240F8B505460E461446A0
:104E700000231E22314628460094FFF7E9FCB423A4
:104E80001E22314628460094FFF7E2FC5A231E22D8
:104E9000314628460094FFF7DBFC4FF487731E224F
:104EA000314628460094FFF7D3FCF8BD10B5044600
:104EB00022A0FBF77FFA00226421282000F0BAFA32
:104EC000012806D11F4B012211461F480068FDF73B
:104ED00085F81EA0FBF76EFA1FA2C821502000F033
:104EE000A9FA012806D1174B0122022116480068B1
:104EF000FDF774F81BA0FBF75DFA1DA264212820C2
:104F000000F098FA012806D10E4B012204210E4828
:104F10000068FDF763F818A0FBF74CFA19A26421AA
:104F2000282000F087FA012806D1064B012208212B
:104F300005480068FDF752F810BD0000636F6D6909
:104F40006E670A0020C4012018C40120B5C6B9E26A
:104F5000BFAAC6F40A000000BCECB2E2D5F0B6AFBE
:104F600000000000D5F0B6AFBFAAC6F40A000000EA
:104F7000D3EACBAE00000000B9E2C3F4BFAAC6F486
:104F80000A000000B9E2C3F40000000029480068EC
:104F900040F00400274908602748006820F003001B
:104FA000254908600846006840F001000860081DB7
:104FB000006820F00100091D0860081D006820F04D
:104FC0000300091D0860081D006820F00300091D8A
:104FD00008601948143000681749143108601548F2
:104FE000006840F02000134908601448006820F46D
:104FF0004050124908600846006840F4805008603C
:10500000081D006820F04000091D0860081D0068A8
:1050100020F44050091D0860081D006820F440502D
:10502000091D0860054814300068044914310860FF
:10503000704700003038024000080240001402406F
:1050400086B0FFF7A3FFFFF7E5FE4FF416511748B0
:1050500000F092FC16A0FBF7ADF900200223042219
:105060000B2100901520FFF72FFDFCF79DFDFCF7AD
:10507000BDFCFCF785FAFFF73DFE052000F0E4FAE1
:10508000FDF74CF8032000214FF480720A4BCDE964
:105090000132CDE903100F200346084A009008486A
:1050A000FDF7B8F9FDF740F900BFFEE700BD0105C7
:1050B00073746172740A000054DB012050DF012018
:1050C000C5540008F8B505460E4614460023502284
:1050D000314628460094FFF7BBFB05F1500188B22A
:1050E0005A23322231460094FFF7B2FB06F1320216
:1050F00091B205F1500290B2B42350220094FFF710
:10510000A7FB06F1320081B24FF4877332222846A2
:105110000094FFF79DFBF8BD2DE9FF4F81B00746D6
:1051200088469946DDE90EAB0020009000242BE074
:10513000002526E005EB04101AF800000090002678
:105140001BE0802030410099084050B1BA1902EBB1
:10515000C40290B208EB050291B2039AFFF74FFB2D
:1051600009E0BA1902EBC40290B208EB050291B251
:105170004A46FFF744FB701CC6B2082EE1DB681CF0
:10518000C5B2102DD6DB641C5C45D1DB05B0BDE893
:10519000F08F00001CB52C480023832202210090D0
:1051A0002A480068FCF7F0FD40F6FF7040F2DF137C
:1051B000002240F23F1100901046FCF703FA42E053
:1051C00023492448FFF752F870B3FF204FF4D773F8
:1051D000F022C82100905020FCF7F4F91C48006828
:1051E000AF2821D11CA11B48FBF78AF958B1052033
:1051F0001B494FF6FF734FF6F802CDE90010C821A6
:105200005020FFF789FF17A11248FBF779F958B131
:10521000082017494FF6FF734FF6F802CDE900104A
:10522000C8215020FFF778FF4FF47A70FFF7BEFADD
:1052300010A24FF4C871C82000F0FCF8012802D178
:105240000720FDF7E1FBBBE7F6C3012018C40120EE
:10525000FCC30120F0DA012076696272610000006F
:10526000740000206E6F5F7669627261000000005A
:10527000D8000020717569740000000070B5054603
:105280001348006820F4005011490860284600F0D7
:105290005BF81048006820F001000E49086001200A
:1052A000FFF7A0FA0B48006840F0010009490860C8
:1052B0000120FFF797FA00F00FF804462411044884
:1052C000006840F4005002490860204670BD0000AC
:1052D000140802401404024070B50025002421E0A7
:1052E0000120FFF77FFA1148006820F001000F4904
:1052F00008600120FFF776FA0C48006840F00100D2
:105300000A490860081F006800F0040020B14FF44B
:1053100000402041054303E04FF400402041854315
:10532000601CC4B2102CDBDB284670BD14040240A4
:1053300000BF0449098801F040010029F9D0014962
:10534000888070470010014070B50546002424E0B5
:1053500080202041284030B11148006840F40060AE
:105360000F49086005E00E48006820F400600C4911
:1053700008600C48006820F001000A49086001201C
:10538000FFF730FA0748006840F00100054908605F
:105390000120FFF727FA601CC4B2082CD8DB70BDCF
:1053A000141402401404024070B59AB004460D462D
:1053B0001646642101A8FBF7C7F8002000901CE006
:1053C000324629462046FEF7EDFF29460DA0FAF7A2
:1053D000F1FF694601A8FEF749FF0098AE280CD1FD
:1053E00001A909A0FAF7E6FF0AA101A8FBF7D4F882
:1053F00018B909A0FAF7DEFF00E0E1E700BF1AB034
:1054000070BD000025730000D3A6B4F0A3BA2573C5
:105410000A0000004F4B0000BDD3CAD5B5BDD3A6CE
:10542000B4F00A0000B50246D0B2FFF781FF0020B9
:1054300000BD000070B505460C4616464FF6F80252
:1054400021462846FFF73EFEF02D02DCB4F5D77F5B
:1054500004DD10A0FAF7AEFF002070BD11484088AF
:10546000A84214DD0F48418805F1500081420EDA50
:105470000C48818804F13200814208DA09488088AA
:10548000A04204DD08A0FAF795FF0120E5E700201F
:10549000E3E70000C9E8D6C3CEBBD6C3D3D0CEF372
:1054A0000A000000C4C80120D7BCC8B7B0B4CFC23E
:1054B0000A00000010B541EC100BFEF749FA51EC60
:1054C000100B10BD0020FCF7B3FE18490860184906
:1054D0000520FCF7D7FE1749086015490020FCF7A6
:1054E00021FC154908601223144A00211448FCF7D6
:1054F00041FF0823134A00211348FCF73BFF072311
:10550000124A00211248FCF735FF0923114A0021F5
:105510001148FCF72FFF0A23104A00211048FCF71E
:1055200029FF02E00120FDF7C5FAFBE710C40120C6
:105530001CC4012014C4012018C40120E0E401208F
:10554000AD4E0008E0E8012025460008E0EC01200F
:1055500095510008E0F40120615B0008E0F00120B3
:10556000655500081CB52C480023832208210090B3
:105570002A480068FCF708FC40F6FF7040F2DF1391
:10558000002240F23F1100901046FCF71BF842E069
:1055900023492448FEF76AFE70B3FF204FF4D77307
:1055A000F022C82100905020FCF70CF81C4800683D
:1055B000AC2821D11CA11B48FAF7A2FF58B1062044
:1055C0001B494FF6FF734FF6F802CDE90010C821D2
:1055D0005020FFF7A1FD17A11248FAF791FF58B12B
:1055E000042016494FF6FF734FF6F802CDE900107C
:1055F000C8215020FFF790FD4FF47A70FFF7D6F8DE
:105600000FA24FF4C871C820FFF714FF012802D180
:105610000A20FDF7F9F9BBE7A4C6012018C4012050
:10562000A8C6012010F601206C69676874000000AC
:1056300078C501206461726B000000000EC6012075
:10564000717569740000000000214FF0E0221161C3
:10565000916145F20821414351611146096941F0C8
:10566000020111611146096941F0010111617047A0
:1056700070B52DED028B88B0964BD3E90102196805
:10568000DB6805AC0DC4049100209349086100BF9C
:1056900000243BE004AA02EB8402518804AA32F8F9
:1056A00024004FF6F802FFF7DFFB02E00A20FFF7C5
:1056B0008BF88A480078C0F340000028F6D087486D
:1056C000007820F0020085490870084640882DF8CF
:1056D000240008468088694601EB840148807F48A1
:1056E00041887FA0FAF766FE7C48818880A0FAF79F
:1056F00061FE04AA02EB8402518804AA32F8240055
:105700004FF6FF72FFF7B0FB601CC4B2042CC1DB84
:10571000BDF80260BDF80650731B002B01DB1D466F
:1057200000E05D42B5F5FA7F26DCBDF80A60BDF801
:105730000E50721B002A01DB154600E05542B5F5FC
:10574000FA7F19DCBDF80050BDF80860A91B0029DC
:1057500001DB0D4600E04D42B5F5FA7F0CDCBDF8EB
:105760000450BDF80C60A81B002801DB054600E0D2
:105770004542B5F5FA7F00DD8AE7BDF81000BDF8B7
:105780001410401A00EE100AF8EEC00ABDF800002E
:10579000BDF80410401A00EE100AB8EEC00A80EE00
:1057A000801A4D4880ED001ABDF80000BDF80410C5
:1057B000084400EE100AF8EEC00A474890ED001ABF
:1057C0009FED4F0A01EE600AF0EE000A80EE201A0B
:1057D00080ED021ABDF81A00BDF81210401A00EE52
:1057E000100AF8EEC00ABDF80A00BDF80210401A0F
:1057F00000EE100AB8EEC00A80EE801A364880ED3E
:10580000011ABDF80A00BDF80210084400EE100AA3
:10581000F8EEC00A304890ED011A9FED3A0A01EE09
:10582000600AF0EE000A80EE201A80ED031AA5202F
:1058300029490861084690ED000A10EE101A084642
:1058400000F0A2FE41EC180B53EC182B2EA0FAF737
:10585000B1FD214890ED020A10EE101A084600F042
:1058600093FE41EC180B53EC182B2EA0FAF7A2FD77
:10587000194890ED010A10EE101A084600F084FE57
:1058800041EC180B53EC182B2DA0FAF793FD12489E
:1058900090ED030A10EE101A084600F075FE41EC78
:1058A000180B53EC182B2DA0FAF784FD0B48007849
:1058B00020F00100094908700846007820F0020035
:1058C00008700846007820F00400087008B0BDECAD
:1058D000028B70BD84660008B0C80120C4C80120D6
:1058E000D0A3D5FDB4A5C3FE783A25640D0A000007
:1058F000D0A3D5FDB4A5C3FE793A25640D0A0000F6
:105900000000A0430000F043745F61646A75737423
:105910005F706172612E78666163203D2025660D9F
:105920000A000000745F61646A7573745F7061726D
:10593000612E786F6666203D2025660D0A00000006
:10594000745F61646A7573745F706172612E7966E9
:105950006163203D2025660D0A000000745F6164CC
:105960006A7573745F706172612E796F6666203D2F
:105970002025660D0A0000002DE9F0412DED0A8B6F
:1059800006460D463F48006840F001003D4908606A
:105990003C481430006840F010003A491431086067
:1059A0003948006820F440203749086008460068FC
:1059B00040F4002008600846406A20F0F0013248B8
:1059C0004162406A40F070012F484162006820F453
:1059D00040102D4908600846006840F40010086037
:1059E0000846406A20F4706127484162406A40F4EA
:1059F000E06125484162284600F0BEFB41EC1C0BEB
:105A00009FED220B53EC102B00F0CAFB41EC1A0B5C
:105A1000304600F0B1FB41EC1B0B53EC1A2B00F0AD
:105A20000DFA41EC190B00F02FF908EE100ABCEE4C
:105A3000C80A10EE100A84B200EE104AB8EE400A0E
:105A400078EE400AB3EE001AB6EE000A00EE810AC4
:105A5000BDEEC00A10EE100A87B24FF6FF7000EAE2
:105A600004143C430B48048142F20C00094988812C
:105A700000200882888200F00FF8BDEC0A8BBDE898
:105A8000F0810000303802400000024000000000B9
:105A90000000304000100140F0B52D48808940F0F2
:105AA00020002B4988810846808940F010008881B9
:105AB00005200346274C21684FF6FF042140264C61
:105AC0000C4344EA0321234C216000BF00231C4601
:105AD0000146C1F10707042F01D9042701E0C1F1F4
