:020000040800F2
:10000000181A0020490200085B1C00085D14000853
:10001000571C000815140008E52F00080000000018
:100020000000000000000000000000004B2B000852
:100030001914000800000000FF020008392C000815
:1000400063020008630200086302000863020008FC
:1000500063020008630200086302000863020008EC
:1000600063020008630200086302000863020008DC
:1000700063020008630200086302000863020008CC
:1000800063020008630200086302000863020008BC
:1000900063020008630200086302000863020008AC
:1000A000630200086302000863020008B12C000824
:1000B00063020008812D0008630200086302000843
:1000C000630200086302000863020008630200087C
:1000D00063020008292F0008630200086302000879
:1000E000630200086302000863020008630200085C
:1000F000630200086302000863020008630200084C
:10010000630200086302000863020008630200083B
:100110006302000863020008592E00086302000809
:10012000630200086302000863020008630200081B
:10013000630200086302000863020008630200080B
:1001400063020008630200086302000863020008FB
:1001500063020008630200086302000863020008EB
:1001600063020008630200086302000863020008DB
:1001700063020008630200086302000863020008CB
:10018000630200086302000800F002F800F04CF877
:100190000AA090E8000C82448344AAF10107DA45E2
:1001A00001D100F041F8AFF2090EBAE80F0013F0E8
:1001B000010F18BFFB1A43F001031847B0150200E6
:1001C000D0150200103A24BF78C878C1FAD8520777
:1001D00024BF30C830C144BF04680C6070470000C1
:1001E0000023002400250026103A28BF78C1FBD840
:1001F000520728BF30C148BF0B607047662905F021
:100200004280642900F0F080002070471FB505F09F
:1002100030F800F0B1FB04000020002104F016FBD0
:10022000E0601FBD10B510BD00F0BEFC1146FFF729
:10023000EDFF03F0B3FE00F0DCFC03B4FFF7F2FFC8
:1002400003BC03F0C5FB000009488047094800478C
:10025000FEE7FEE7FEE7FEE7FEE7FEE7FEE7FEE776
:10026000FEE7FEE704480549054A064B70470000D3
:10027000492C00088901000818140020181A0020D1
:100280001816002018160020EFF3098141B1F1EE95
:10029000101A40F8041D20ED200A29490A68106050
:1002A0007047B0EC200A02C8E1EE101A25490A682E
:1002B00010607047EFF3108072B6704780F31088BB
:1002C000704721484FF0FF010170002080F309883A
:1002D0001E48016881F308881D48012101701D48EE
:1002E0004FF08051016062B6FEE71A484FF080512E
:1002F0000160704717484FF080510160704772B637
:10030000EFF3098028B1203880E8F00F0C49096824
:10031000086000B5104880475DF804EB0F481049AD
:100320000A780270064807490A680260106890E877
:10033000F00F203080F309884EF0F40E62B670475B
:10034000500000205800002022ED00E07000002046
:100350004A00002004ED00E0612300083F00002077
:1003600040000020704700000FB4044910B503AAF4
:10037000029800F0EBFA10BC5DF814FB0C000020B2
:100380002DE9F0410E460446002020622046E16837
:10039000884730B3252805D0D4E901219047206A49
:1003A000401CF2E7E168204600278847050018D086
:1003B000A5F14100192802D820354FF400673246D4
:1003C000294620462760FFF719FF40B1012804D0D5
:1003D000F61D26F007060836D8E7361DD6E728466C
:1003E000DAE7206ABDE8F0812DE9F04106460024F5
:1003F00010687529314616A510D0AFF3008000288B
:1004000002DA404213A507E031688A0701D512A538
:1004100002E0490704D511A5012401E0AFF30080F3
:1004200000210A2206F1240709E0B0FBF2FCB0FB30
:10043000F2F302FB1C00303078541846491C0028A7
:10044000F3D123462A463046BDE8F04100F016B805
:10045000000000002D0000002B0000002000000024
:1004600070477047704710B500F08AFA006810BDF9
:1004700010B5044600F084FA046010BD2DE9F04781
:100480000D4699469246044600F124080168880604
:1004900004D5E06921F01001216000E00120A842AC
:1004A00001DD471B00E00027A1697A1902EB090072
:1004B000081AA0612078C00602D42046AFF300805D
:1004C000002608E0D4E901211AF806009047206AC6
:1004D000401C761C20624E45F4DB2078C0060AD50D
:1004E0002046AFF3008006E0D4E901213020904798
:1004F000206A401C2062381EA7F10107F4DC07E0E7
:10050000D4E9012118F805009047206A401C2062B8
:10051000281EA5F10105F3DC2046AFF3008020780A
:10052000000602D50220BDE8F0870120FBE77047F6
:100530002DE9FF4F0C461E464FF0FF378BB0D2E936
:100540000001DDF860800A908A46C1F30A5505B9BA
:100550003D46002108464FF00000BAF1000F00F4BC
:10056000400005DA00EB80004FF4400101EA500042
:100570004FEA9059B9F1010F00DDB9460A9850EAE7
:100580004A000ED044F61050A5F2FF3545432F1413
:10059000B8F1000F1ED07542291E1EDDC9F1000200
:1005A0001CE0B8F1010F4FF0000001D0302103E052
:1005B000F24305E02154401CB042FBDB30460022F0
:1005C000002121540B99C1F80880C1E900200FB027
:1005D000BDE8F08FBD1B6D1CDEE74A4600DA6942BC
:1005E00006A800F06FFA06AB93E8070003AB83E8B8
:1005F000070050460A9900F045FB8DE80700A0F57A
:1006000000501F3800900398002D0ADD42F21F01B0
:100610004A460844002303A90390684600F0AEFD53
:1006200009E0A0F500504A461F38002303A90390B3
:10063000684600F0B8FD8DE807000004000C03D008
:100640004FF0FF30410800E01046B8F1000F03D032
:100650000022009215461EE0751E05D400F094F9A4
:10066000303262556D1EF9D5B3460122084302D0DF
:1006700000227F1C04E02078302801D100227F1E58
:10068000002A099784D01DE0112D07DA00F07CF9CB
:10069000303262556D1C50EA0102F5D1084302D098
:1006A0000098C8B10EE00021681E05E0235C625C82
:1006B00063542254401E491C8142F7DBAB46A81B01
:1006C000401E0990002004F80B000B98099AC0F80E
:1006D0000880C0E9002B7AE711264FF0000857E7A1
:1006E0002DE9F04F88460446D21D22F0070191B053
:1006F000D1E90001CDE90A0102F076FC02460B982F
:10070000C00F01D02D2007E02068810701D52B20E4
:1007100002E0202101EAC000032A099001D0072A43
:1007200005DB03464146204600F08CF90BE12078BA
:10073000800601D5E06900E00620B8F1650F81462A
:1007400006D0B8F1660F18D0B8F1670F70D131E05C
:100750000020B9F1110F009001DB112301E009F134
:1007600001030AAA01A90CA8FFF7E2FEDDE90C705B
:10077000002609F10105834647E001204B46009021
:100780004FF000470AAA01A90CA8FFF7D1FEDDE946
:100790000DB00C995D46002610B909F101000D1845
:1007A000B9EB050003D4C0F1FF3609F10105A5EB53
:1007B00009002BE0B9F1010F01DA4FF00109002027
:1007C000B9F1110F0090484601DD112300E0034606
:1007D0000AAA01A90CA8FFF7ABFEDDE90C704D4693
:1007E00000268346207800070AD4AB4500DA5D4630
:1007F00001A8012D04DD411911F8011C302907D091
:100800004F4502DA17F1040F04DA012082460FE0A7
:100810006D1EEEE7002F02DCED1B3E4403E0781C6A
:10082000A84200DD7D1CB81B00F1010A4FF0004713
:100830002078000703D4AA4501DB4FF0FF3A0021DE
:10084000B7F1004F0DF143088DF8431024D002207A
:100850002B23002F01DA7F422D230A21021EA0F153
:10086000010000DC5FB197FBF1FC97FBF1F201FBAB
:100870001C7C17460CF1300C08F801CDEEE7A8F10E
:10088000010003702188090501D5452100E065219B
:10089000A0F1010800F8011C09980FA9A1EB0807B5
:1008A000FF1D00B10120411901EBEA70A169384434
:1008B000081A401EA0612078C00602D42046AFF37B
:1008C0000080099828B1D4E901219047206A401C92
:1008D00020622078C00622D52046AFF300801EE0BB
:1008E000002E04DBB34502DD01A8805D00E030206E
:1008F000D4E901219047206A401C2062761CAAF1AD
:1009000001005FEA000A0AD100F036F8C068016809
:10091000405CD4E901219047206A401C2062281ED7
:10092000A5F10105DCDC07E0D4E9012118F8010B91
:100930009047206A401C2062381EA7F10107F3DCB3
:100940002046AFF30080032011B041E6074B70B59D
:100950000D467B4400F063F80446284603F030F966
:1009600010B14FF0FF3070BD204670BD73320000F3
:1009700000487047B813002000487047D813002083
:1009800000487047B813002030B5B0F10A024FEAB2
:10099000900E71F100034EEA817EB0EB0E0061EB28
:1009A00091014FEA101E4EEA017E10EB0E0041EB62
:1009B00011114FEA102E4EEA016E10EB0E0041EBC2
:1009C00011214FEA104E4EEA014E10EB0E0041EBA2
:1009D0001141401841F100014FEAD00040EA417056
:1009E0004FEAD10110EB80054FEA810444EA90748C
:1009F00044EB01046D1944EB0404521BA3414FF076
:100A0000000348BF0A3200D530BD401C41F100014F
:100A100030BD000001694A1C02610878704700B5CA
:100A20008FB0CDE901310021059105497944CDE927
:100A3000031011466846FFF7A3FC0FB000BD00008D
:100A4000E5FFFFFF2DE9F0411F460446032601683C
:100A5000072A01F4006004DB08B116A505E016A51D
:100A600003E008B115A500E015A521F010002060F5
:100A7000A069C01EA0610FB1401EA0612046AFF367
:100A800000804FB1D4E9012138469047206A401CCC
:100A90002062C01C206206E0206AFAE7D4E9012146
:100AA00015F8010B9047761EF8D22046AFF3008070
:100AB000BDE8F0814E414E006E616E00494E460029
:100AC000696E66002DE9F047814616468AB03548C2
:100AD00078440DC88DE80D0032487844801C03AC82
:100AE0000DC884E80D0041F69B300844372190FB87
:100AF000F1F290FBF1F5A5F1800501FB12041B3C1E
:100B000002D56442012000E00020DFF898A0804672
:100B10000027FA44AAF1BE0A0EE0E0070AD03246E6
:100B2000684607EB470101230AEB810100F03BFB1C
:100B30008DE8070064107F1C002CEED1194F7F4414
:100B4000AE3F19E0E80715D007EB04100DF1180AC5
:100B500090E80E008AE80E00C068F04201D19819B2
:100B600008903246012306A903A800F01CFB03AB42
:100B700083E807006D10641C002DE3D14FF00103E2
:100B800032466946B8F1000F03A802D000F0F6FA29
:100B900001E000F008FBC9E90001C9F808200AB02B
:100BA000BDE8F087800C02007546FFF7E1FEAE4617
:100BB00005006946534620F00700854618B020B569
:100BC000FFF750FBBDE820404FF000064FF0000754
:100BD0004FF000084FF0000B21F00701AC46ACE8E5
:100BE000C009ACE8C009ACE8C009ACE8C0098D4652
:100BF000704710B50446AFF300802046BDE81040B2
:100C0000FFF71BBB4FF0013C50F8042B51F8043B9D
:100C10009A4221D1A2EB0C03934313EACC1317D1D0
:100C200050F8042B51F8043B9A4215D1A2EB0C0367
:100C3000934313EACC130BD150F8042B51F8043B27
:100C40009A4209D1A2EB0C03934313EACC13DBD0F5
:100C50004FF00000704700BFD01A01BAB1FA81F11D
:100C600001F0180122FA01F0CB40C1F12001DBB202
:100C7000C0B2C01A2CFA01F3D11A914311EAC31180
:100C8000E6D170475FEA400C08BF91F0000F4FEAD1
:100C90008C234FEAC12243EA51514FEA1C5018BF3E
:100CA00000F5F0404FEA300018BF41F000415FEA24
:100CB0006C5C00F02980BCF1FF3F08BF40F0804031
:100CC0007047130C06BF12044FF0100C4FF0000CCD
:100CD000130E04BF12020CF1080C130F04BF120113
:100CE0000CF1040C930F04BF92000CF1020CD30F13
:100CF00004BF52000CF1010C11464FF00002A0F1AC
:100D00001F00A0EB0C00704711F0004F08BF7047A8
:100D100031F000413FF4D5AF0B0C06BF09044FF092
:100D2000100C4FF0000C0B0E04BF09020CF1080C64
:100D30000B0F04BF09010CF1040C8B0F04BF8900D9
:100D40000CF1020CCB0F04BF49000CF1010CCCF1EB
:100D50002003A0EB0C0022FA03F302FA0CF241EAA2
:100D6000030100F10100704720F07F4C80EA03008E
:100D700023F07F47ACEB070303F57C5300F0004002
:100D800003F1FF032DE980494FEA154B09B44FEAFF
:100D9000144325EA0B4E24EA03480FF2042606EB1F
:100DA000132749083E785FEA320203FB0667C7F55E
:100DB000000707FB06F64FEA54374FEAD64606F11E
:100DC000020607FB066CCCF1005C4FEA1C472CEADC
:100DD000074C07FB06F40CFB06F504EB15464FEA3F
:100DE000961634BF00204FF000404FEAD13706FB83
:100DF00007FC4FEA1C4C0CFB0BF7D21B03FB0CF758
:100E000061EB07010CFB0EF7B0EB074072EB1742EA
:100E10000CFB08F734BFA2EB0742B2EB074261EBD1
:100E200017414FEA0C444FEA910706FB07FC4FEAD3
:100E30001C4C0CFB0BF7B0EBC74072EB573203FBBB
:100E40000CF734BFA2EBC742B2EBC74261EB57319C
:100E50000CFB0EF7B0EBC70072EB57720CFB08F7F8
:100E600034BFA2EBC702B2EBC70261EB5771039F1D
:100E70004FEA816141EA921104EBCC044FEAD13789
:100E80004FEA826206FB07FC42EA90124FEA80605A
:100E90004FEA1C4C0CFB0BF7D21B03FB0CF761EB6E
:100EA00007010CFB0EF7B0EB074072EB17420CFB8F
:100EB00008F734BFA2EB0742B2EB074261EB1741E0
:100EC0004FEA8C554FEA910704EB9C2406FB07FC84
:100ED0004FEA1C4C0CFB0BF7B0EBC74072EB5732E0
:100EE00003FB0CF734BFA2EBC742B2EBC74261EB86
:100EF00057310CFB0EF7B0EBC70072EB57720CFBCF
:100F000008F734BFA2EBC702B2EBC70261EB57711F
:100F100015EB4C254FEA816141EA92114FEA82625A
:100F20004FEAD13742EA901206FB07FC44F1000475
:100F30004FEA80604FEA1C4C0CFB0BF7D21B03FB03
:100F40000CF761EB07010CFB0EF7B0EB074072EBFF
:100F500017420CFB08F734BFA2EB0742B2EB074283
:100F600061EB174115EB1C154FEA813141EA9241C3
:100F70004FEA823242EA90424FEA80304FEA0C76E2
:100F800044F1000448EA03434EEA0B484FF0000ED8
:100F9000B2EB080C71EB030724BF624639464EEBF7
:100FA0000E0E4FF0000B0018524149414BEB0B0B5A
:100FB000B2EB080C71EB03077BF1000B24BF624618
:100FC00039464EEB0E0E4FF0000B001852414941CE
:100FD0004BEB0B0BB2EB080C71EB03077BF1000B37
:100FE00024BF624639464EEB0E0E51EA020718BF87
:100FF00046F0010616EB0E7655F1000254F10001A1
:1010000003D5BDE88901BDE80088BDE88901BDE8D8
:101010000048B619524141EB0101A3F101037047A9
:1010200080807F7E7D7C7B7A797877767675747325
:10103000727171706F6E6E6D6C6C6B6A6A696868E4
:10104000676666656464636362616160605F5F5E7A
:101050005E5D5D5C5C5B5B5A5A59595858575756F0
:101060005655555554545353525252515150505055
:101070004F4F4F4E4E4D4D4D4C4C4C4B4B4B4A4AA7
:101080004A494949484848474747474646464545EB
:101090004544444444434343434242424241414124
:1010A000002B9C4630D477002BD01CB54FEA370775
:1010B00003B44FF010004FF01001BAF1000F06D04A
:1010C000BCF1000FDCBF40F0080040F008014FF019
:1010D00000000FBCBDE810400BF1010BBBF1010F8C
:1010E00008BF5FEA170722BF12F1010211F10101E7
:1010F0004FF0004143F1000300F0004043EA0000DC
:101100007047F9D35708D0E746EA064613F1400F77
:101110004FEA16461FDD13F1200FDFBF16430A46C4
:10112000002120335B42BED0C3F1200746EA0646C9
:1011300002FA07F74FEA164646EA0706C3F1200708
:1011400022FA03F201FA07F721FA03F14FF0000344
:1011500042EA0702A7E746EA020646EA06464FEADF
:10116000164646EA0106BCBF46EA0646360C4FF074
:1011700000034FF000024FF0000194E72DE9804C8E
:101180009A46934670B491E8380007C831EA400C9B
:1011900048BF34EA430C03D5FFF7E6FDFFF780FFB5
:1011A000F0BCBDE8008C2DE9804C9A46934670B4A3
:1011B00091E8380007C810F0804F08BF13F0804F47
:1011C00003D100F005F8FFF76BFFF0BCBDE8008C21
:1011D00020F07F4780EA030023F07F4C07EB0C03ED
:1011E000A3F57C5300F00040A3F1FE0392F0000F42
:1011F00000F0B38095F0000F00F077802DE90149F1
:101200004FEA11404FEA144621EA004800FB06FC71
:1012100024EA064708FB06F607FB08F800FB07F779
:1012200018EB06484CEB164C4FEA124B18EB0748EC
:101230004FEA15464CEB174022EA0B4E0BFB06FC1F
:1012400025EA06470EFB06F607FB0EFE0BFB07F72B
:101250001EEB064E4CEB164C4FF000061EEB074EF5
:101260004CEB174B18EB0B0840F1000018EB0E0B82
:1012700058EB000840F100008F1A4FF000013CBF0E
:10128000C943661B14BFB5EB040C00213CBFC94326
:10129000F61B4FEA17444EEA8E0E27EA04454FEA42
:1012A0001C4704FB07622CEA074C05FB07F70CFB05
:1012B00005F604FB0CFC16EB074642EB174216EB57
:1012C0000C4642EB1C421BEB060658EB0202414166
:1012D00046EA9E0601D5BDE80189B619524141EBA7
:1012E0000101A3F10103BDE801894FEA14454FEA6A
:1012F000114724EA054621EA074C05FB07F406FBE3
:1013000007F70CFB06F105FB0CFC11EB074144EB66
:1013100017444FEA124711EB0C4144EB1C4422EAFC
:10132000074C05FB07F206FB07F70CFB06F605FB6F
:101330000CFC16EB074642EB174216EB0C4642EB51
:101340001C456A1854F1000148BF7047B619524154
:1013500041EB0101A3F10103704795F0000F37D075
:101360004FEA11424FEA144721EA024624EA074CA9
:1013700002FB07F106FB07F70CFB06F402FB0CFC73
:1013800014EB074441EB17414FEA154714EB0C44AB
:1013900041EB1C4125EA074C02FB07F506FB07F76A
:1013A0000CFB06F602FB0CFC16EB074645EB17455B
:1013B00016EB0C4645EB1C42121951F1000148BFD7
:1013C0007047B619524141EB0101A3F10103704787
:1013D0004FEA14454FEA114724EA054621EA074C33
:1013E00005FB07F106FB07F70CFB06F24FF00006C2
:1013F00005FB0CFC12EB074241EB174112EB0C42D0
:1014000051EB1C4148BF7047921841EB0101A3F119
:101410000103704700BFFEE7704700000D480068F9
:1014200040F001000B4908600B48008840F0800044
:10143000094908800846008840F0080008800846EE
:10144000008840F0100008800846008840F0020044
:1014500008807047443802400000014000BFFEE7AA
:101460002DE9F04104460D461646DDF818802A2085
:1014700000F02EF8200A00F019F9E0B200F016F999
:10148000280A00F013F9E8B200F010F92B2000F060
:101490001FF8300A00F00AF9F0B200F007F9180A54
:1014A00000F004F9D8B200F001F92C2000F010F897
:1014B000002703E0404600F0F9F87F1C281B401C81
:1014C000991B491C4843B842F4D8BDE8F08100009C
:1014D0007249096821F48051704A116070490968A5
:1014E00021F480516E4A11606E49096821F0200193
:1014F0006C4A116000F0010121B14FF48041121DCE
:10150000118004E04FF48041664A921D118000F082
:10151000020129B14FF40041624A121D118004E01A
:101520004FF400415F4A921D118000F0040121B187
:1015300001215C4A121D118003E00121594A921DCC
:10154000118000F0080121B10221564A121D1180BC
:1015500003E00221534A921D118000F0100119B1DD
:101560008021514A118302E080214F4A518300F0CB
:10157000200121B14FF480714B4A118303E04FF4F5
:101580008071494A518300F0400121B14FF400714C
:10159000454A118303E04FF40071434A518300F040
:1015A000800121B14FF480613F4A118303E04FF481
:1015B00080613D4A518300F4807121B14FF4006194
:1015C000394A118303E04FF40061374A518300F434
:1015D000007121B14FF48051334A118303E04FF47D
:1015E0008051314A518300F4806121B14FF40051A0
:1015F0002D4A118303E04FF400512B4A518300F42C
:10160000006121B14FF48041274A118303E04FF478
:101610008041254A518300F4805121B14FF40041AB
:10162000214A118303E04FF400411F4A518300F423
:10163000005129B14FF480711A4A121D118004E043
:101640004FF48071174A921D118000F4804129B136
:101650004FF40071134A121D118004E04FF4007121
:10166000104A921D118000F4004129B14FF48061AD
:101670000C4A121D118004E04FF48061094A921D4A
:1016800011800849096841F02001064A11600349A8
:10169000096841F48051014A1160704714180240F2
:1016A00014140240140C02400010024072490968F0
:1016B00021F48051704A11607049096841F48051E9
:1016C0006E4A11606E49096821F020016C4A116070
:1016D00000F0010121B14FF48041121D118004E09E
:1016E0004FF48041664A921D118000F0020129B139
:1016F0004FF40041624A121D118004E04FF4004192
:101700005F4A921D118000F0040121B101215C4A61
:10171000121D118003E00121594A921D118000F031
:10172000080121B10221564A121D118003E0022155
:10173000534A921D118000F0100119B18021514AC5
:10174000118302E080214F4A518300F0200121B132
:101750004FF480714B4A118303E04FF48071494A82
:10176000518300F0400121B14FF40071454A1183CB
:1017700003E04FF40071434A518300F0800121B12E
:101780004FF480613F4A118303E04FF480613D4A8A
:10179000518300F4807121B14FF40061394A118303
:1017A00003E04FF40061374A518300F4007121B126
:1017B0004FF48051334A118303E04FF48051314A92
:1017C000518300F4806121B14FF400512D4A1183FF
:1017D00003E04FF400512B4A518300F4006121B122
:1017E0004FF48041274A118303E04FF48041254A9A
:1017F000518300F4805121B14FF40041214A1183FB
:1018000003E04FF400411F4A518300F4005129B115
:101810004FF480711A4A121D118004E04FF4807158
:10182000174A921D118000F4804129B14FF40071D4
:10183000134A121D118004E04FF40071104A921DEA
:10184000118000F4004129B14FF480610C4A121D4F
:10185000118004E04FF48061094A921D118008490B
:10186000096841F02001064A11600349096841F402
:101870008051014A1160704714180240141402404C
:10188000140C02400010024008B500F0DBF878208C
:1018900002F0A8F8F220FFF71BFE1820FFF706FF62
:1018A000A320FFF703FF1220FFF700FF0220FFF73E
:1018B000FDFEB220FFF7FAFE1220FFF7F7FEFF2031
:1018C000FFF7F4FE1020FFF7F1FE0020FFF7EEFE19
:1018D000F820FFF7FDFD2120FFF7E8FE0420FFF7C9
:1018E000E5FEF920FFF7F4FD0020FFF7DFFE0820FA
:1018F000FFF7DCFE3620FFF7EBFD0820FFF7D6FEF2
:101900003A20FFF7E5FD0520FFF7D0FEB420FFF7F2
:10191000DFFD0120FFF7CAFEB620FFF7D9FD022048
:10192000FFF7C4FE2220FFF7C1FEC120FFF7D0FD64
:101930004120FFF7BBFEC520FFF7CAFD0020FFF7DF
:10194000B5FE0720FFF7B2FEE020FFF7C1FD0F2034
:10195000FFF7ACFE1F20FFF7A9FE1C20FFF7A6FE35
:101960000C20FFF7A3FE0F20FFF7A0FE0820FFF7D3
:101970009DFE4820FFF79AFE9820FFF797FE37203C
:10198000FFF794FE0A20FFF791FE1320FFF78EFE6B
:101990000420FFF78BFE1120FFF788FE0D20FFF7D4
:1019A00085FE0020FFF782FEE120FFF791FD0F206A
:1019B000FFF77CFE3220FFF779FE2E20FFF776FE40
:1019C0000B20FFF773FE0D20FFF770FE0520FFF7D9
:1019D0006DFE4720FFF76AFE7520FFF767FE372090
:1019E000FFF764FE0620FFF761FE1020FFF75EFEA2
:1019F0000320FFF75BFE2420FFF758FE2020FFF7AF
:101A000055FE0020FFF752FE1120FFF761FD782000
:101A100001F0E8FF2920FFF75BFD4FF6FF7040F271
:101A2000DF13002240F23F1100901046FFF718FD2F
:101A30000348006840F400400149086008BD000008
:101A4000140402405548006840F0080053490860FB
:101A50000846006840F0100008600846006840F042
:101A6000400008600846006840F002000860084630
:101A7000006840F0200008604948006840F0A0403D
:101A80004749086046480830006840F02040444913
:101A9000083108604248006840F00500404908608D
:101AA0003F480830006840F00A003D4908310860AE
:101AB0003C4800683C4908433A4908600846406889
:101AC0004860084680683849084336498860344889
:101AD000006840F4A81032490860314808300068B6
:101AE00040F008002E49083108602D48006840F495
:101AF000A0602B4908602A480830006840F4206044
:101B000027490831086026481430006840F030004A
:101B10002349143108602548006840F0807023494B
:101B2000086022480830006840F000701F49083102
:101B300008601E481430006840F480501B4914317E
:101B400008601B48006840F0807019490860184818
:101B50000830006840F000701549083108601448EA
:101B60001430006840F48050114914310860114865
:101B7000006840F080400F4908600E480830006857
:101B800040F000400B49083108600A4814300068F2
:101B900020F4004007491431086070473038024093
:101BA000000C024000100240004055550018024051
:101BB00000140240000402402DE9F04104460D46A5
:101BC00013460027B846D878997840EA0127587913
:101BD000197940EA01282A20FFF77AFC200AFFF74A
:101BE00065FDE0B2FFF762FDE119491EC1F3072070
:101BF000FFF75CFDE119491EC8B2FFF757FD2B2026
:101C0000FFF766FC280AFFF751FDE8B2FFF74EFD2B
:101C100005EB0801491EC1F30720FFF747FD05EB5F
:101C20000801491EC8B2FFF741FD2C20FFF750FC08
:101C300000260AE0710009315A5C71000831595CD4
:101C400042EA0120FFF732FD761C07FB08F0B042A4
:101C5000F0D8BDE8F08100BFFEE7704710B500F096
:101C600013F800F0D5FC00F001FD00F021FD00F0BC
:101C70009FFC00F05FFC00F0B5FD00F059FD00F0A6
:101C80007FFD00F019F810BD0848802102E0491ED0
:101C9000002204C00029FAD1054A064B1A601A46F0
:101CA000126822F007021A6070470000B811002085
:101CB000B81300207000002070470000064800782C
:101CC000012808D105480078FF2804D2034800788D
:101CD000401C0249087070474A0000203D00002067
:101CE00010B500241A480078012830D1FEF7E2FA36
:101CF00004461848007820B116480078401E15495F
:101D0000087014480078F8B913480078E0B900F07A
:101D1000CBFD12481249097850F82100114908609A
:101D20000F4800781049097888420DD00D480068A6
:101D3000C06B401C0B490968C8630C480068401C14
:101D40000A490860FEF7D6FA2046FEF7B7FA10BD3A
:101D50004A0000203D0000203E000020C80800206E
:101D600040000020580000203F00002024000020F8
:101D7000704700002DE9F04F85B081468A469346B2
:101D80001C46DDE90F78129D00200390FEF792FAC1
:101D900003902348007830B10398FEF78FFA3C2077
:101DA00005B0BDE8F08F1F4850F8240088BB012023
:101DB0001C4941F824000398FEF780FA2A46414660
:101DC000384600F0B5FE2B465A465146484600F0CC
:101DD0005FF904901198CDE9008002953A462046BB
:101DE0000E9B049900F076FD064636B90E48007841
:101DF00001280CD100F01EFD09E0FEF75BFA03900C
:101E00000020084941F824000398FEF757FA3046AD
:101E1000C6E7FFE70398FEF751FA2820C0E7000065
:101E20003D000020C80800204A0000207047000044
:101E30002DE9F041054600274A48007810B14020BE
:101E4000BDE8F0813F2D01D13E20F9E7FEF732FADF
:101E50000746FF2D03D14448006890F836504348A8
:101E600050F8254024B93846FEF728FA4320E7E722
:101E7000012C04D13846FEF721FA3D20E0E714F8A2
:101E8000380F3B49085C617888432178384A5054C0
:101E900014F838091146085C30B994F83A103548FE
:101EA0000078884333490870E06918B12046E16939
:101EB00000F00CFB206A18B12046216A00F01DFBDF
:101EC000A66A16B1304600F061FB0020206384F85A
:101ED000340084F8350028480078FF2804D22648CA
:101EE0000078401C244908703846FEF7E7F900F0F6
:101EF000ECFAFEF7DFF907461F48007820B11E48CC
:101F00000078401E1C490870204600F041F81B482C
:101F10000078401E194908700020144941F8250036
:101F2000A06930B90020616988611549606908605D
:101F300005E0D4E905014861D4E90510886111483C
:101F4000006860610F4804600FA020653846FEF706
:101F5000B5F90E480078012801D100F06BFC002093
:101F60006EE700003D00002050000020C80800205F
:101F700042000020410000203E0000204B000020D5
:101F80005C000020540000203F0000004A000020B8
:101F9000704770472DE9F04106460F4614464FF052
:101FA00000081548007818B112202070BDE8F081B3
:101FB000FEF780F98046FF2E03D11048006890F8A4
:101FC00036600F4850F826502DB94046FEF776F996
:101FD00043202070EAE7012D05D14046FEF76EF957
:101FE00043202070E2E72F654046FEF767F90020A6
:101FF000207000BFDAE700003D0000205000002004
:10200000C8080020704770472DE9F04707460D4685
:102010004FF0000A002028606860FEF74BF9824606
:10202000FF2F03D11848006890F83670174850F811
:1020300027402CB95046FEF741F94320BDE8F08710
:10204000012C04D15046FEF739F94320F6E7207CF5
:1020500000F0010020B95046FEF730F94520EDE7C9
:102060000026D4F80C90D4F808805046FEF726F9E4
:1020700000E0761C58F8041B0029FAD02E60A9EB6A
:10208000060068600020D9E750000020C808002042
:1020900070B50446101D20F007004FF08076051F34
:1020A00028462E60051F28462C60684E051F2846CE
:1020B0002E604FF01236051F28462E604FF0033673
:1020C000051F28462E604FF00236051F28462E6059
:1020D0007610051F28462E60051F284629604FF000
:1020E0001136051F28462E604FF01036051F284672
:1020F0002E604FF00936051F28462E604FF0083637
:10210000051F28462E604FF00736051F28462E6013
:102110004FF00636051F28462E604FF00536051F86
:1021200028462E604FF00436051F28462E6003F027
:102130000405002D7ED0F605051F28462E60444E6E
:10214000051F28462E60434E051F28462E60424E2E
:10215000051F28462E60414E051F28462E60404E22
:10216000051F28462E603F4E051F28462E603E4E16
:10217000051F28462E603D4E051F28462E603C4E0A
:10218000051F28462E603B4E051F28462E603A4EFE
:10219000051F28462E60394E051F28462E60384EF2
:1021A000051F28462E60374E051F28462E60364EE6
:1021B000051F28462E604FF08346051F28462E60D7
:1021C000324E051F28462E60314E051F28462E60D0
:1021D000304E051F28462E602F4E051F28462E60C4
:1021E0002E4E051F28462E602D4E051F28462E60B8
:1021F0002C4E051F28462E604FF08246051F2846AC
:102200002E60294E051F28462E60284E051F2846A1
:102210002E60274E051F28462E604FF08146051F71
:1022200028462E60234E051F28462E603602051FC5
:10223000284600E009E02E604FF07E56051F284634
:102240002E600026051F28462E6070BD3D2A00081E
:102250000000F8410000F0410000E8410000E041CA
:102260000000D8410000D0410000C8410000C0413A
:102270000000B8410000B0410000A8410000A041AA
:10228000000098410000904100008841000070412A
:10229000000060410000504100004041000030411A
:1022A00000002041000010410000E0400000C0405C
:1022B0000000A040000040402DE9F04105464FF0ED
:1022C0000008FDF7F7FF8046FF2D05D12048006884
:1022D00090F83650012608E01D48006890F8360056
:1022E000A84201D1012600E000261A4850F82540F6
:1022F0002CB94046FDF7E2FF4820BDE8F081012CF3
:1023000004D14046FDF7DAFF4320F6E794F8387031
:102310001148C05D94F8391088430F49C8550846E4
:10232000C05D30B994F83A100C48007888430B49E6
:10233000087094F8340040F0080084F834004046F7
:10234000FDF7BCFF012E01D100F074FA0020D4E7A4
:1023500050000020C808002042000020410000205A
:102360007047000070B5054600261748007800B198
:1023700070BD1648007800B1FAE71DB3FDF79AFF6B
:1023800006461348006890F838401248005D10492E
:10239000096891F8391088430E4908550846005DD0
:1023A00040B90B48006890F83A100B480078884311
:1023B000094908700648006805633046FDF77EFF4E
:1023C00000F038FA00BFD3E73D0000203E000020B7
:1023D00050000020420000204100002070B500267F
:1023E00000F072F8FDF766FF064631480068401CB1
:1023F0002F4908603046FDF761FF2E48007801281C
:1024000053D12D48007820B1012804D0022809D1E9
:1024100003E001250BE0002509E001250120264904
:10242000087004E0012500202349087000BF00BFA8
:1024300005B970BD2148046833E0FDF73BFF06464F
:10244000206B50B3206B401E2063206B28BB94F898
:10245000340000F0370040B114F8340F00F0C80029
:10246000207001206070343C02E0002084F83500C8
:1024700094F8340000F0080078B93834A078104996
:10248000097808430E49087020780E49085C617885
:10249000084314F838190B4A505464693046FDF764
:1024A0000DFF94F836003F28C7D100BFC1E70000F8
:1024B0006C0000204A000020600000205C0000202A
:1024C00041000020420000207047704710B590F88E
:1024D000382001F10B039B5C90F83940A34301F1D4
:1024E0000B04A35423469B5C23B98B7A90F83A40A3
:1024F000A3438B720023C36110BDF0B5024612F8EE
:10250000384F95785678383A0B4618680FE000F146
:102510000B073F5DB74300F10B0C0CF804706746E6
:102520003F5D17B9877AAF4387721B1D1868002873
:10253000EDD1F0BD2DE9F0415021114800F048F9EE
:1025400000250DE0681C86B20D4800EB051400EB79
:1025500006170020207067600AA0E060681C85B242
:10256000042DEFD3064800EB0514002020706060B6
:1025700004A0E060024804490860BDE8F081000062
:10258000780400203F0000002C00002030B50146F8
:102590004A6808682AB9CC68606028B1002545609F
:1025A00002E0106000B142608B6800259D6230BD82
:1025B00070B54FF4F071134800F00AF9002411E0EF
:1025C000601C85B204EB44000E4901EBC00305EB2F
:1025D000450001EBC006002018705E600AA058613B
:1025E000601C84B2132CEBD304EB4400054901EBCF
:1025F000C00300201870586003A0586108460349C2
:10260000086070BD980200203F00000028000020F4
:1026100000200B4908600B4908700B4908700B49F2
:1026200008700B4908700B4908600B4908600B499A
:1026300008600B4908600B4908700B490870704727
:102640006C0000203D0000203E0000204B000020D8
:102650004A000020240000204C0000203800002008
:10266000340000203C0000206800002000210A4ABD
:102670001170002004E00021084A1154411CC8B226
:102680000828F8D30021064A1170064A1170064A3C
:102690001160064A1160704741000020420000208E
:1026A0003F00002040000020580000205000002083
:1026B00070B54FF4F261194800F08AF84FF4807158
:1026C000174800F085F8002413E0601CC5B204EB45
:1026D000440000EBC400114901EBC00305EB4500C9
:1026E00000EBC50001EBC0065E610EA01865601C22
:1026F000C4B2152CE9D304EB440000EBC400074935
:1027000001EBC0030020586106A0186500200649AF
:10271000086002480549086070BD0000C809002033
:10272000C80800203F0000005C000020540000208A
:1027300000B587B00320002180220A4BCDE9013289
:10274000CDE903104FF6FF703F23074A009007487A
:10275000FFF710FB06AA06A13F20FFF71BFC07B0FE
:1027600000BD0000C8060020C4080020152A00088B
:1027700075432F4F532D49492049646C6500000073
:1027800000B587B00320002180220A4BCDE9013239
:10279000CDE903104FF6FE703E23074A009007482C
:1027A000FFF7E8FA06AA06A13E20FFF7F3FB07B001
:1027B00000BD0000C8040020C4060020552A0008FF
:1027C00075432F4F532D4949205374617400000005
:1027D00004E0002200F8012B4A1E91B20029F8D132
:1027E000704700002DE9F04160211048FFF7F0FF2D
:1027F00000240DE0601C86B204EB44000B4901EBA1
:10280000C00506EB460001EBC0072F60601C84B2D8
:10281000032CEFD304EB4400044901EBC005002076
:102820002860084602490860BDE8F0815811002080
:102830006400002010B50024FDF73CFD0446134859
:102840000078F8B912480078E0B900F02DF8114886
:102850001149097850F82100104908600E480078A5
:102860000F49097888420DD00C480068C06B401CA5
:102870000A490968C8630B480068401C0949086098
:10288000FDF733FD2046FDF719FD10BD3D0000208A
:102890003E000020C8080020400000205800002012
:1028A0003F000020240000200649074A1278885C77
:1028B0000649095C034A515C01EBC001044A1170EE
:1028C00070470000B41402084100002042000020BC
:1028D000400000202DE9F84F05460F4690469946E6
:1028E000DDE90AAB00200090FDF7E4FC00904248CF
:1028F0000468002C7BD01C3454F8080C3E49086056
:102900000098FDF7DBFC44F81C7CA57600202076BF
:102910006076606144F818BC44F810AC44F8148C3C
:102920000C9824F80C0C24F80A9C0020E077E8109E
:10293000207705F00700E076217F01208840A0770E
:10294000E17E012088406077002020606060E060C8
:10295000A0602062A0626062E062206327A06063E2
:102960001C3C002606E0002104F1540040F826102B
:10297000701CC6B2002EF6D02046FFF7F9F9FDF71D
:1029800099FC00901E4840F825400098FDF796FC01
:102990002046FFF74BFAFDF78DFC009019480068C0
:1029A00060610020A0611748006810B115480068F8
:1029B0008461144804603834A078134909780843C6
:1029C0001149087020781149085C6178084314F8AF
:1029D00038190E4A50540E480078401C0C490870B3
:1029E0000098FDF76BFC0020BDE8F88FFFE700982A
:1029F000FDF764FC4220F7E7540000203F00000090
:102A0000C80800205C000020410000204200002097
:102A10004B000020002400BF00BFFDF74BFC044624
:102A200005480068401C044908602046FDF746FC44
:102A3000FFF7AFFAF1E700004C00002010B50448A2
:102A40000068FFF7DFFAFF20FFF7F2F910BD000082
:102A50005000002000BF00BF02E02820FFF782FCEA
:102A60001F4800780028F8D01E4800686421B0FB99
:102A7000F1F01C4908600846006828B900201A498E
:102A80000870FF20FFF718FCFDF714FC04461548FA
:102A9000006864214843154908602046FDF70EFC94
:102AA00000BFFDF707FC04461048006810490860A5
:102AB00000200E4908602046FDF700FC0C48006825
:102AC00008490968B0FBF1F0C0F1640006490870DC
:102AD000FFF799FA00F00EF81420FFF743FCE0E747
:102AE0003C00002034000020300000204C0000207A
:102AF000380000207CB5002514E069462846FFF721
:102B000083FA064666B9094850F8254044B1012CBD
:102B100006D0D4E9020100EB8100A0640198E064D2
:102B2000681CC5B23F2DE8D97CBD0000C808002054
:102B300002F0010343B102F002032BB102E0491E8F
:102B4000002308C00029FAD1704770470CB5002057
:102B5000019000903448006840F4803032490860A9
:102B600000BF3148006800F4003000900198401C1C
:102B70000190009818B90198B0F5A04FF1D12A48FA
:102B8000006800F4003010B10120009001E0002046
:102B900000900098012846D123484030006840F05A
:102BA00080502149403108602048006840F440408E
:102BB0001E4908601C48083000681B49083108603D
:102BC0000846006840F4004008600846006840F489
:102BD000A05008601648091F0860081F006840F0F0
:102BE0008070091F086000BF0F48006800F0007087
:102BF0000028F9D040F205700E4908600A480830F4
:102C0000006820F0030008490831086008460068A1
:102C100040F00200086000BF03480830006800F080
:102C20000C000828F8D10CBD0038024000700040AC
:102C300019544007003C024010B5FFF73FF8FFF77A
:102C4000CDFBFFF74DF810BD10B51548006840F4F6
:102C50007000134908601348006840F001001149F2
:102C6000086000200F49083108600E4800680E49CE
:102C700008400C4908600D48091D0860081F0068DD
:102C800020F48020091F0860002006490C310860EC
:102C9000FFF75CFF4FF0006001498039086010BD0C
:102CA00088ED00E000380240FFFFF6FE10300024FF
:102CB0002E48008A00F00200002841D02B48008AEC
:102CC00020F001002949088200BF2848008A00F04E
:102CD00002000028F9D1254948620846406B40F2BD
:102CE0001451884208D92148406BB0F5AF6F03D228
:102CF00001201F49087023E01D48007801281FD1DA
:102D00001C48406BDC280ED91A48406BE6280AD2D2
:102D1000194800684008184908600846006840F0F3
:102D2000004008600CE01148406B692808D90F4842
:102D3000406B782804D21048006840080E490860AB
:102D40000A48008A00F4007078B10848008A20F42C
:102D500000700649088200BF0448008A00F4007031
:102D60000028F9D101200549087070470000014092
:102D700021000020004001401C0000202000002015
:102D80003248008800F0010000285ED0304800681A
:102D9000B0F57A7F1DD22F480068D0B92B48008843
:102DA00020F001002949088029480068401E274971
:102DB0002431086026480068401C2549086000202E
:102DC0002449086022480068B0F57A7F01D10120CB
:102DD00008601F480068B0F57A7F1CD81D4800685D
:102DE000012818D11948008820F0010017490880EF
:102DF00017480068401E15492431086014480068CF
:102E0000401E1349086001201249086010480068FC
:102E100008B9002008600D480830008820F0FF0045
:102E20000A49083108800846008840F060000880A0
:102E300006481030008820F00F0004491031088047
:102E40000846008840F001000880704710040040E8
:102E500014000020180000201CB52F48008A00F044
:102E60000100002856D02C48008A20F001002A4991
:102E700008822A4800784006000E28490870284831
:102E80000068C0F3400009780843244908700846E8
:102E9000007848BB694601A800F09EFE00B91CBD41
:102EA0002048007800F0010078B91E48007820F032
:102EB0000400001D1B490870BDF804004880C8804C
:102EC000BDF800008880088106E0BDF804001549BF
:102ED000C880BDF8000008811248007820F0010089
:102EE000401C1049087015E00C480078FF2811D1EB
:102EF0000C48007800F0010030B10A48007820F05A
:102F00000200801C074908700648007820F0010084
:102F10000449087000BFC2E70010004022000020F2
:102F2000100402408C0200202949098801F0200188
:102F3000B9B32749098821F02001254A118011469B
:102F40008988C8B22349097801EBC111224A02EBF2
:102F50004101891C214A1268885420490968491C8A
:102F60001E4A116011460968B1F5807F2ED11146C5
:102F70000988184A127802EBC212174B23F8121074
:102F80001449097809B9012100E00021114A1170A2
:102F90000021124A116012490968491C104A116047
:102FA00014E0FFE70A49098801F0100171B10849EE
:102FB0008988C8B209490988064A127802EBC21208
:102FC000054B23F812100021044A116070470000DD
:102FD00000100140040000207400002000000020C8
:102FE0000800002000BFFEE703B4019841000098EC
:102FF00050EAC12018BF04204A0D18BF40F001005C
:1030000040F2FF72B2EB515F08BF40F002000128AE
:1030100008BF052002B0704710B52F499FED2C1B4B
:103020002DED020B84B0059820F000408842D8BFF7
:103030009DED040B2DDD2949884209D1049840B942
:103040004FF00100FDF714FA00F0A2FC06B010BD2D
:1030500005DB9DED040B00F08FFC06B010BD68464B
:103060009DED040B00F0A0F810F0030004BF9DEDEF
:10307000021B9DED000B0CD001280ED09DED021B14
:103080009DED000B022817D0012000F0DDFB06B0FB
:1030900010BD00F0A5FA06B010BD9DED021B9DED20
:1030A000000B012000F0D0FB51EC100B01F0E4FB11
:1030B00006B041EC100B10BD00F092FA51EC100B71
:1030C00001F0DAFB06B041EC100B10BD000000006F
:1030D0000000000000000000FB21E93F0000F07F3D
:1030E00010B52F499FED2C1B2DED020B84B00598D8
:1030F00020F000408842DCBF00209DED040B32DD53
:103100002849884209D1049840B94FF00100FDF7E1
:10311000AFF900F03DFC06B010BD05DB9DED040BE2
:1031200000F02AFC06B010BD68469DED040B00F0CF
:103130003BF810F0030011D0012818D09DED021BC0
:103140009DED000B02281AD000F04AFA51EC100B4A
:1031500001F092FB06B041EC100B10BD9DED021B7F
:103160009DED000B012000F06FFB06B010BD9DED42
:10317000021B9DED000B00F033FA06B010BD0120DC
:1031800000F062FB51EC100B01F076FB06B041EC55
:10319000100B10BD00000000000000000000000047
:1031A000FB21E93F0000F07F2DE9F14F04462DEDB2
:1031B000020B2DED088B8AB09FEDE70B80ED020B23
:1031C000139EE74826F0004585420ADC9DED120B70
:1031D000002084ED000B0AB0BDEC088B03B0BDE805
:1031E000F08FE0489FEDE0AB9FEDE1BBA84247DDEB
:1031F000E14F9FEDE39B9FEDE48B9DED120B53ECB4
:103200001A2B51EC100B002E1CDD01F0D7FE41EC07
:10321000100BBD4208D053EC1B2B51EC100B01F0EE
:10322000CDFEC4E900010BE053EC192B51EC100B5F
:1032300001F0C4FE53EC182B01F0C0FEC4E90001FC
:103240000120C8E701F056FB41EC100BBD4208D04D
:1032500053EC1B2B51EC100B01F04CFBC4E90001AB
:103260000BE053EC192B51EC100B01F043FB53EC2A
:10327000182B01F03FFBC4E900014FF0FF30AAE733
:10328000C348A84279DB9DED120B51EC100B00F006
:103290008BFC41EC180B9FEDC00B53EC102B01F095
:1032A00083FD9FEDBF1B53EC112B01F023FB01F0BD
:1032B00021FD074601F04DFD41EC190B53EC1A2B93
:1032C00001F072FD53EC182B01F06CFE41EC180B71
:1032D00053EC1B2B51EC190B01F066FDDFF8C8A273
:1032E00041EC100B4FEA15580125FA4453EC102B12
:1032F00051EC180B01F062FE032DC4E900013DD032
:10330000C1F30A5005EB4511A8EB000011398142C9
:1033100034DA0AEB051BB0EE48AA9BED000BF0EE89
:1033200068AA53EC102B51EC190B01F03DFD41EC58
:103330001B0B51EC1A0B53EC1B2B01F03FFE41EC25
:10334000180B51EC1A0B53EC182B01F037FE53EC11
:103350001B2B01F033FE9BED020B41EC1A0B53ECDF
:10336000102B51EC190B01F01FFD53EC1A2B01F03F
:1033700025FE41EC100B6D1CB8E70EE0002EA8BF37
:103380003846BFF628AF94ED000B51EC100B01F05E
:1033900073FAC4E9000178421DE7C6F3130040F454
:1033A000801EC6F30A50A0F2F530471100F01F0549
:1033B000C5F12000DDF848B0089000200690079085
:1033C0000520EC467949002D07EB0002794408BF3F
:1033D00051F8221009D051F8223001EB8201AB40A4
:1033E0004A68089922FA01F11943A1FB0E26A1FBB4
:1033F0000B131A449A4234BF0123002303EB06083F
:103400000CEB8003D3E901A60E448E4234BF0121A8
:10341000002192448A4411B1924502D903E09245B9
:1034200001D2012100E00021C3E901A641444CF88A
:103430002010011EA0F10100C4DC029800F1005030
:10344000850F0298DDE903678000DDF8148001F044
:1034500080FC41EC1A0B304601F092FC9FED541BAE
:1034600053EC112B01F0A0FC41EC1B0B384601F092
:1034700087FC9FED511B53EC112B01F095FC41ECA7
:10348000180B404601F07CFC9FED4D1B53EC112BBB
:1034900001F08AFC41EC190B51EC180B53EC192B81
:1034A00001F028FA53EC1B2B01F024FA53EC1A2BF1
:1034B00001F020FACDE90801002008909DED080BED
:1034C00053EC1A2B51EC100B01F078FD53EC1B2B35
:1034D00001F074FD53EC182B01F070FD53EC192B27
:1034E00001F060FD9FED381B53EC112B01F05CFCEB
:1034F0009FED370B41EC180B53EC102B9DED080B97
:1035000051EC100B01F050FC53EC182B01F0F2F9C8
:103510009FED310B41EC180B53EC102B9DED080B7C
:1035200051EC100B01F040FC53EC182B01F0E2F9C8
:1035300041EC100B139810F0004F06D06D4251EC87
:10354000100B01F099F941EC100B284684ED000BAB
:1035500041E6000000000000000000000000000044
:10356000FB21E93F7CD9024000004054FB21F93F98
:103570003163621A61B4D03DFB21F93F00000000C5
:103580000000601A61B4D03D7370032E8A19A33B0A
:10359000FB2139410000000083C8C96D305FE43F62
:1035A000000000000000E03FFAE2010048E20100F4
:1035B000000000000000103E000000000000103C71
:1035C000000000000000103A182D4454FB21F93D82
:1035D0003326A611460B113C00000054FB21F93D97
:1035E00010B52DED040B2DED088B82B0B0EE419A95
:1035F000F0EE619A0B9820F000449FED4BABB4F1D4
:10360000795F11DA9DED0A0B51EC100B01F072FBA2
:10361000002801BFB0EE4A0AF0EE6A0A02B0BDEC23
:10362000088B04BF04B010BD9DED0A0B53EC102BAA
:1036300051EC100B01F0B8FB41EC180B3C48062193
:10364000B0EE480AF0EE680A784400F081F853ECD6
:10365000182B51EC100B01F0A7FB9DED0A0B41EC70
:103660001B0B53EC192B51EC100B01F09DFB41ECA3
:10367000190B53EC1B2B51EC180B01F095FB53EC81
:10368000192B01F09BFC9FED2C0B41EC190B53EC1B
:10369000102B51EC180B01F087FB41EC100B284864
:1036A000844210DA53EC192B51EC100B01F086FC1C
:1036B00053EC1A2B01F076FC41EC100B02B0BDEC80
:1036C000088B04B010BD1F48A042BCBF9FED1E1B5D
:1036D0008DED001B06DBA4F500100190002000908A
:1036E0009DED001B51EC100B53EC112B01F066FC0F
:1036F0009DED000B41EC180B53EC102B51EC1A0B09
:1037000001F05CFC41EC1A0B53EC192B51EC180B3B
:1037100001F054FC53EC1A2B01F044FC41EC100B6B
:10372000CCE7000000000000000000000000F03FB7
:103730006CDF010000000000000000000000E03F1E
:103740003333D33F0000E93F000000000000D23FC8
:1037500070B504462DED028B4D1E00EBC500B0EE9A
:10376000408AF0EE608A90ED000B35F0060017D02D
:1037700053EC182B51EC100B01F016FB41EC100B25
:103780006D1E04EBC50090ED001B51EC100B53ECCB
:10379000112B01F0AFF841EC100B35F00600E7D12A
:1037A000022D36D0042D1CD0062D1CBFBDEC028B83
:1037B00070BD53EC182B51EC100B01F0F5FA94EDA1
:1037C0000A1B53EC112B01F095F853EC182B01F068
:1037D000EBFA94ED081B53EC112B01F08BF841EC44
:1037E000100B53EC182B51EC100B01F0DDFA94ED9B
:1037F000061B53EC112B01F07DF853EC182B01F054
:10380000D3FA94ED040B53EC102B01F073F841EC58
:10381000100B53EC182B51EC100B01F0C5FA94ED82
:10382000021B53EC112B01F065F853EC182B01F03F
:10383000BBFA94ED001B53EC112B01F05BF8BDECCF
:10384000028B41EC100B70BD31B504462DED040B1D
:103850002DED0A8BB0EE41BAF0EE61BA0B989DEDFA
:103860000A0B20F00040B0F1795F0DDA51EC100B3B
:10387000FFF7BAFB042808BF00F09AF89DED0A0B89
:10388000BDEC0A8B05B030BD53EC102B51EC100B86
:1038900001F08AFA41EC180B9DED0A0B53EC182B42
:1038A00051EC100B01F080FA41EC190B2C48B0EEF2
:1038B000480AF0EE680A05217844FFF749FF9FEDBA
:1038C0002ACBB0EE40AAF0EE60AA9CB353EC1C2BBE
:1038D00051EC190B01F068FA41EC1C0B53EC1A2B5C
:1038E00051EC190B01F060FA9FED210B41EC190B23
:1038F00053EC102B51EC1B0B01F056FA53EC192B27
:1039000001F05CFB53EC182B01F04EFA53EC1B2B2F
:1039100001F054FB53EC1C2B01F050FB9DED0A1BF6
:1039200053EC112B01F03EFBBDEC0A8B05B041ECD2
:10393000100B30BDFFE753EC1A2B51EC180B01F0C4
:1039400033FA53EC1C2B00F0D5FF53EC192B01F08C
:103950002BFA9DED0A1B53EC112B00F0CBFFE3E794
:10396000F4DD010000000000495555555555C5BF0F
:10397000000000000000E03F10B553EC102B51ECAC
:10398000100B00F0B7FF41EC100B10BD0000000061
:103990009FED050B10B553EC102B51EC100B01F003
:1039A00051F841EC100B10BD0000000000000000B9
:1039B0009FED050B10B553EC102B51EC100B01F0E3
:1039C000F3F941EC100B10BD0000000000000010E6
:1039D00000BFFEE710B541EC100BFFF71DFB51ECEB
:1039E000100B10BD002106E042F6E06100BF0A1E88
:1039F000A1F10101FBD1021EA0F10100F4D1704739
:103A0000002105E00C2100BF0A1EA1F10101FBD13C
:103A1000021EA0F10100F5D1704730B503460C46F7
:103A200015462A20FDF754FD180AFDF73FFED8B2CF
:103A3000FDF73CFE180AFDF739FED8B2FDF736FE59
:103A40002B20FDF745FD200AFDF730FEE0B2FDF723
:103A50002DFE200AFDF72AFEE0B2FDF727FE2C20FE
:103A6000FDF736FD2846FDF721FE30BD2DE9F05F5C
:103A70002DED068B0746884615461E46DDF840901C
:103A80004FF0000AD34600245EB900BF07E03919A1
:103A900088B24A464146FFF7C0FF601C84B2AC4280
:103AA000F5DB5A2E0CD1002408E008EB040081B2AB
:103AB0004A463846FFF7B1FF601C84B2AC42F4DBE3
:103AC000B42E0BD1002407E0391B88B24A46414688
:103AD000FFF7A3FF601C84B2AC42F5DBB6F5877F2D
:103AE0000DD1002408E0A8EB040081B24A46384614
:103AF000FFF793FF601C84B2AC42F4DB47E0002484
:103B000043E0304601F03CF941EC1A0B9FED220BEB
:103B100053EC102B01F048F941EC190B9FED200BF1
:103B200053EC102B00F08EFF41EC180BB0EE480A5E
:103B3000F0EE680AFFF74EFF38441FFA80FA30466D
:103B400001F01EF941EC1A0B9FED130B53EC102BF7
:103B500001F02AF941EC190B9FED110B53EC102BDE
:103B600000F070FF41EC180BB0EE480AF0EE680A66
:103B700000F0EBFAA8EB00001FFA80FB4A4659461A
:103B80005046FFF74AFF601C84B2AC42B9DBBDEC83
:103B9000068BBDE8F09F00001F85EB51B81E094061
:103BA000000000000080664082B0CDE9000121F0F5
:103BB000004001909DED000B02B051EC100B7047DE
:103BC00001464FF0FF30704710B503460C461846CB
:103BD00000F0B4FA10BD00002DE9F04704460D4690
:103BE000D02000F015FA0646902000F011FA0746A2
:103BF000D02000F00DFA8046902000F009FA8146AE
:103C0000A6EB0801002901DB0A4600E04A42142A1B
:103C100008DCA7EB0900002801DB024600E0424275
:103C2000142A02DD0020BDE8F08706EB080000EB57
:103C3000D071C1F34F01218007EB090000EBD07177
:103C4000C1F34F01298020480069A52835D11E48BD
:103C500090ED020A208800EE900AF8EE600A1A48F9
:103C600090ED001A00EE810ABCEEC00A10EE100AB8
:103C70002080154890ED030A288800EE900AF8EE9F
:103C8000600A114890ED011A00EE810ABCEEC00AEC
:103C900010EE100A28802088B0F5A07F02DB40F2E9
:103CA0003F1000E0208820802888B0F5F07F02DBFC
:103CB00040F2DF1000E0288828802A88218803A0AD
:103CC000FCF752FB0120AEE778020020B0B4CFC26F
:103CD000BAF3783A25640A2C793A25640A00000080
:103CE0001148006840F010000F49086053200F4948
:103CF000088540F21F30C8620846008840F0010085
:103D000008800846808940F001008881362000F054
:103D10001F02012191404209920002F1E022C2F803
:103D2000001100BF70470000403802400010004002
:103D300010B54248006840F02600404908604048FD
:103D4000006820F003003E4908600846006840F023
:103D500001000860081D006820F00100091D0860CE
:103D6000081D006820F00300091D0860084600686F
:103D700040F0020008603348006820F0406031499C
:103D800008600846006840F080600860081D006810
:103D900020F40050091D0860081D006820F04060F4
:103DA000091D08600846006840F000600860264869
:103DB000006820F44000244908600846006840F488
:103DC00080000860081D006820F40060091D08607C
:103DD000081D006820F44000091D086008460068BE
:103DE00040F4000008601648006820F030001449D4
:103DF000086008460068086011480C30006820F030
:103E000030000F490C3108600D48006820F00C00AC
:103E10000B49086008460068086009480C300068D3
:103E200020F00C0006490C310860FFF759FF0748E5
:103E30000069A52801D000F08DFA10BD303802408D
:103E400000040240000802400014024078020020F2
:103E50001248006840F010001049086010480068DF
:103E600020F030000E4908600846C06820F030009D
:103E7000C8600846006820F0C00008600846C068B6
:103E800020F0C000C8600846006820F44070086058
:103E90000846C06820F44070C8607047303802405F
:103EA00000100240F8B505460E46144600231E22B7
:103EB000314628460094FFF7D9FDB4231E2231462F
:103EC00028460094FFF7D2FD5A231E223146284689
:103ED0000094FFF7CBFD4FF487731E22314628462E
:103EE0000094FFF7C3FDF8BD2948006840F00400C6
:103EF000274908602748006820F00300254908602A
:103F00000846006840F001000860081D006820F0C5
:103F10000100091D0860081D006820F00300091D4C
:103F20000860081D006820F00300091D086019489A
:103F3000143000681749143108601548006840F0D3
:103F40002000134908601448006820F440501249CA
:103F500008600846006840F480500860081D00684A
:103F600020F04000091D0860081D006820F4405042
:103F7000091D0860081D006820F44050091D0860F4
:103F80000548143000680449143108607047000087
:103F9000303802400008024000140240FFF7A4FF3E
:103FA000FFF756FF4FF41651124800F05BFB12A0CA
:103FB000FCF7DAF9FDF746FDFDF766FCFDF72EFA92
:103FC000FFF7B6FE052000F0C8F800F0DBF8FDF7BB
:103FD00045FE00240DE00C4A96210020FDF7ECFD83
:103FE0002146641C09A0FCF7BFF94FF47A70FFF773
:103FF000F9FCF0E700BD0105636F6D696E67207322
:10400000746174720A0000009A52000825640A0064
:1040100070B505461348006820F400501149086047
:10402000284600F05BF81048006820F001000E49B7
:1040300008600120FFF7E4FC0B48006840F0010035
:10404000094908600120FFF7DBFC00F00FF8044687
:1040500024110448006840F40050024908602046DA
:1040600070BD0000140802401404024070B5002521
:10407000002421E00120FFF7C3FC1148006820F074
:1040800001000F4908600120FFF7BAFC0C480068E6
:1040900040F001000A490860081F006800F00400B1
:1040A00020B14FF400402041054303E04FF40040AD
:1040B00020418543601CC4B2102CDBDB284670BD58
:1040C0001404024000BF0449098801F0400100299E
:1040D000F9D00149888070470010014070B505464D
:1040E000002424E080202041284030B1114800689D
:1040F00040F400600F49086005E00E48006820F4B5
:1041000000600C4908600C48006820F001000A4972
:1041100008600120FFF774FC0748006840F00100C8
:10412000054908600120FFF76BFC601CC4B2082C35
:10413000D8DB70BD141402401404024000B50246DE
:10414000D0B2FFF7BFFF002000BD10B541EC100B4F
:10415000FEF7C6FF51EC100B10BD00214FF0E0221E
:104160001161916145F2082141435161114609698C
:1041700041F0020111611146096941F0010111612B
:10418000704700002DE9F0416B48006840F00100E5
:10419000694908606948006820F440306749086050
:1041A0000846006840F4003008600846C06820F403
:1041B0004030C8600846406A20F00F015F48416205
:1041C000406A40F001015D4841625B48143000687C
:1041D00040F480305849143108605948008B40F051
:1041E0000100574908830846008B20F00C00088323
:1041F0000846008B40F0F000088300200880084645
:10420000008840F4807008800846008840F0040070
:1042100008800846008920F0070008814948008D81
:1042200040F247310843474908850846C06A42F6CC
:10423000DF6108434349C862002048620846008A9B
:1042400020F0010008820846808A40F00100888240
:104250000846808940F0020088810846808940F045
:104260000100888105200246374B19684FF6FF038D
:104270001940364B0B4343EA0221334B196000BF10
:104280001B200522002425461346C3F1070CBCF170
:10429000040F02D94FF0040C01E0C3F1070C67468C
:1042A00003F1040CBCF1070F02D24FF0000C01E047
:1042B000A3F1030C66464FF0010C0CFA07FCACF1BD
:1042C000010C0CEA040C0CFA06FC4FF0010808FA89
:1042D00006F8A8F1010808EA05084CEA080100BF41
:1042E000002808DA0A07140E174A0C3200F00F03F0
:1042F0001B1FD45403E00A07130E154A135400BFC2
:104300001B20012181404209920002F1E022C2F803
:10431000001100BF0A48008C20F0060008490884FC
:104320000846008C40F0010008840846008840F0F0
:1043300001000880BDE8F0813038024000000240F2
:1043400000400140000001400CED00E00000FA05D3
:1043500000E400E0F0B52DED028B89B0984B0FCB57
:1043600005AC0FC400209749086100BF00243BE062
:1043700005AA02EB8402917805AA12F824004FF6F0
:10438000F802FFF78FFD02E00A20FFF72BFB8E48B3
:104390000078C0F340000028F6D08B48007820F069
:1043A0000200894908700846408801A921F82400C4
:1043B0008548808801EB840148808348418883A038
:1043C000FBF7D2FF8048818884A0FBF7CDFF05AAC8
:1043D00002EB8402917805AA12F824004FF6FF72CE
:1043E000FFF760FD601CC4B2042CC1DBBDF8067091
:1043F000BDF80A60BD1B002D01DB2E4600E06E42B9
:10440000642E2FDCBDF80E70BDF81260BB1B002BB4
:1044100001DB1E4600E05E42642E23DCBDF8046032
:10442000BDF80C70F21B002A01DB164600E0564274
:10443000642E17DCBDF80860BDF81070F11B002970
:1044400001DB0E4600E04E42642E0BDCBDF804603A
:10445000BDF80870F01B002801DB064600E046426C
:10446000322E00DA82E7BDF81400BDF81810401AA9
:1044700000EE100AF8EEC00ABDF80400BDF80810FE
:10448000401A00EE100AB8EEC00A80EE801A4D48BD
:1044900080ED001ABDF80400BDF80810084400EED5
:1044A000100AF8EEC00A474890ED001A9FED4F0A37
:1044B00001EE600AF0EE000A80EE201A80ED021A8A
:1044C000BDF81E00BDF81610401A00EE100AF8EEF6
:1044D000C00ABDF80E00BDF80610401A00EE100A22
:1044E000B8EEC00A80EE801A364880ED011ABDF899
:1044F0000E00BDF80610084400EE100AF8EEC00ADF
:10450000304890ED011A9FED3A0A01EE600AF0EE94
:10451000000A80EE201A80ED031AA52029490861BF
:10452000084690ED000A10EE101A084600F030FE22
:1045300041EC180B53EC182B2EA0FBF715FF21486C
:1045400090ED020A10EE101A084600F021FE41EC30
:10455000180B53EC182B2EA0FBF706FF194890ED13
:10456000010A10EE101A084600F012FE41EC180B7A
:1045700053EC182B2DA0FBF7F7FE124890ED030A21
:1045800010EE101A084600F003FE41EC180B53EC35
:10459000182B2DA0FBF7E8FE0B48007820F0010057
:1045A000094908700846007820F0020008700846A3
:1045B000007820F00400087009B0BDEC028BF0BD5B
:1045C000A4140208780200208C020020D0A3D5FD9C
:1045D000B4A5C3FE783A25640D0A0000D0A3D5FD2A
:1045E000B4A5C3FE793A25640D0A00000000A0437B
:1045F0000000F043745F61646A7573745F70617288
:10460000612E78666163203D2025660D0A0000005A
:10461000745F61646A7573745F706172612E786F24
:104620006666203D2025660D0A000000745F616407
:104630006A7573745F706172612E79666163203D83
:104640002025660D0A000000745F61646A7573744A
:104650005F706172612E796F6666203D2025660D60
:104660000A0000002DE9F0412DED0A8B06460D46AB
:104670003F48006840F001003D4908603C48143064
:10468000006840F010003A49143108603948006869
:1046900020F44020374908600846006840F40020B4
:1046A00008600846406A20F0F00132484162406AE2
:1046B00040F070012F484162006820F440102D49FD
:1046C00008600846006840F4001008600846406A28
:1046D00020F4706127484162406A40F4E061254857
:1046E0004162284600F04CFB41EC1C0B9FED220B75
:1046F00053EC102B00F058FB41EC1A0B304600F045
:104700003FFB41EC1B0B53EC1A2B00F09BF941ECE7
:10471000190B00F0BDF808EE100ABCEEC80A10EE46
:10472000100A84B200EE104AB8EE400A78EE400A51
:10473000B3EE001AB6EE000A00EE810ABDEEC00A22
:1047400010EE100A87B24FF6FF7000EA04143C43E3
:104750000B48048142F20C0009498881002008823C
:10476000888200F00FF8BDEC0A8BBDE8F0810000F4
:1047700030380240000002400000000000003040DD
:1047800000100140F0B52D48808940F020002B49F1
:1047900088810846808940F0100088810520034602
:1047A000274C21684FF6FF042140264C0C4344EA75
:1047B0000321234C216000BF00231C460146C1F1A8
:1047C0000707042F01D9042701E0C1F107073E467E
:1047D0000F1D072F01D2002700E0CF1E3D46012705
:1047E000B7407F1E1F40AF404FF0010C0CFA05FC94
:1047F000ACF1010C0CEA040C47EA0C0200BF2521C5
:104800001046002908DA03071D0E0D4C0C3401F088
:104810000F031B1FE55403E003071C0E0A4B5C54F7
:1048200000BF252000F01F030121994043099B0090
:1048300003F1E023C3F8001100BFF0BD00100140F8
:104840000CED00E00000FA0500E400E010B50029DE
:104850000AD00878002807D005487844FCF7D2F938
:10486000002801D0002010BD0248784410BD00008F
:1048700032CF01002ACF010081F00041704780F063
:104880000040704721F00041704720F00040704721
:1048900021F00042A2F16052B2F5801F01F0004306
:1048A00028BFD2F17F6C0BD95FEA001C43EAC20239
:1048B00042EB507018BF704728BF20F001007047CE
:1048C000B2F5801FBCBF184670474FEA410C1CF57B
:1048D000001F02D2084600F0D1BC70B500F00EFBFC
:1048E00000000089FFF7F6BF4FF00040A0F5800000
:1048F0007047000010B591EA030F48BF83F00043F2
:1049000000F16483841A71EB030C05D2121943EB96
:104910000C03001B61EB0C01DFF824E14FEA11549A
:10492000A4EB135C1EEA430F18BF9EEA445F73D0EA
:1049300023EA0E03DCF1200E21EA045143F4801334
:1049400032D322FA0CFE10EB0E0023FA0CFE41EBE0
:104950000E01CCF1200E03FA0EFE10EB0E0051F109
:104960000001B1F5801FCCF1200E32D201EB0451D1
:1049700012FA0EF2BDE8104058BF7047401C38BF15
:104980005FEA420218BF7047002814BF20F0010000
:1049900041F100014FEA410313F5001F38BF704792
:1049A000A1F1C04100F0F8BA012A43EB0302ACF1D7
:1049B000200CDCF11F0E32BF4FF0000E23FA0CF377
:1049C00010EB030041EB0451B4EB115FD0D0A1EB2D
:1049D000045101F5801149085FEA300001EB0451F0
:1049E0000ED350F1000038BF12FA0EFE08D1BDE818
:1049F0001040C9E7401C38BF5FEA4202CAD1C3E792
:104A0000BDE810404FEA410313F5001F38BF70475F
:104A1000A1F1C04100F0C0BA9EEA445F08D011EA9B
:104A20005E0FBDE8104004BF01F000410020704758
:104A3000BDE8104070B500F061FA00BF64FBBE3EF7
:104A40000000E0FF2DE9C04130B4DFF8A0C23CEA2D
:104A5000111418BF3CEA131400F0EC8081EA03053E
:104A60001CEA111444EAD57418BF1CEA131500F0AF
:104A7000C780A4EB05044FF0004545EAC12145EA93
:104A8000C32341EA505143EA525304F17F749942DF
:104A900004F500344FEAC0204FEAC22208BF90421A
:104AA00000F09C804FEA13650FF24016765D4FEAE6
:104AB000134506FB05F7C7F1807706FB07F74FEABA
:104AC000D737A7FB03687642C8F58038A7FB06CE28
:104AD00038BFA8F1010807FB08E64FF0000EA6FB5F
:104AE000028CE6FB03CEDCF1000CCEF1004E38BFA9
:104AF000AEF1010EA6FB0C584FF000074FF0000579
:104B0000E6FB0E87A1FB08C6A0FB07CE16EB0E0640
:104B100045F10005E1FB076515F1E04E7EBFA4F508
:104B200080345FEA46066D4116F1800745F10005C5
:104B30004FEA17274FEA066647EA0567A6F1DE4601
:104B4000B6F1805F4FEA15251FD9384624F0010CD5
:104B500005EBC471BCF1FE6F01EB0C1102D8F0BC87
:104B6000BDE8008124425CBF01F5801E9EEAC47F3F
:104B700002D4F0BCBDE80081244238D4F0BCA1F1DD
:104B8000C041BDE8004100F007BA4FEAD22242EA34
:104B900043524FEAD323A7FB02864FEAD02040EAD4
:104BA000415007FB03661EEA0E0F4FEAD12105FBB9
:104BB000026658BFA6EB0056B6EB00564FEA520EFF
:104BC0004EEAC37E18EB0E0E56EB530EBDD518EB16
:104BD00002085E417F1C55F10005B6E74FF48015D1
:104BE0004FF000074FF000064FF00008ADE7F0BCB3
:104BF0004FF0000001F1C04101F00041BDE800812B
:104C000011EA0C1F0CEA131500D00CE013EA0C1F7C
:104C100000F025804FF00000F0BC81EA030101F0B4
:104C20000041BDE80081F0BCBDE8004181EA03011C
:104C300000F0B2B9F0BCBDE8004170B500F05EF91B
:104C4000097EFC3E00F007B881EA03014FF0000046
:104C500001F00041704781EA030100F09DB9F0BC0A
:104C6000BDE800414FF0000021497047FFFDFBF90E
:104C7000F7F5F4F2F0EEEDEBE9E8E6E4E3E1E0DE8F
:104C8000DDDBDAD8D7D5D4D3D1D0CFCDCCCBCAC801
:104C9000C7C6C5C4C2C1C0BFBEBDBCBBBAB9B8B728
:104CA000B6B5B4B3B2B1B0AFAEADACABAAA9A8A81B
:104CB000A7A6A5A4A3A3A2A1A09F9F9E9D9C9C9BE9
:104CC0009A99999897979695959493939291919094
:104CD0008F8F8E8E8D8C8C8B8B8A89898888878725
:104CE0008685858484838382828181800000FF079A
:104CF0000000F87F4FEA41034FEA5353A3F5806366
:104D0000D3F11E03C8BFD3F1210C0CDD4FF00042DC
:104D100042EAC12242EA505232FA03FC8CEAE17CB8
:104D2000ACEBE1707047102BC4BF0020704703F557
:104D3000787CBCF1FF3F04D06FF0004282EA210092
:104D4000704770B500F0DAF849922480002070476F
:104D5000F2E710F0004248BF4042B0FA80F310FA88
:104D600003F10AD0C3F11D0303F580634FEA4150FC
:104D700002EB035202EBD12170474FF00000704765
:104D8000B0FA80F310FA03F10AD0C3F11D0303F562
:104D900080634FEA41504FEA035202EBD121704742
:104DA0004FF0000070470000DFF848C170B51CEA02
:104DB000111E1EBF1CEA13159EEA0C0F95EA0C0F7C
:104DC00000F06F8081EA030423EA4C134EEAD47E9C
:104DD00021EA4C1141F4801143F48013AE44A1FB4D
:104DE000024CA0FB0365AEF17F7E361955EB0C0536
:104DF000A1FB034C4CF10003A0FB021C16EB0C06BC
:104E0000654153F10003094218BF46F0010613F44F
:104E1000007F0BD14FEA03314FEA0530340341EAFA
:104E2000155140EA16506FF003020AE04FEAC32121
:104E30004FEAC520F40241EA555140EA56506FF05E
:104E4000020202EB2E4201EB025585EACE710AD036
:104E50005FEA440C18BF24F0004450F1000041F117
:104E6000000120EAD47040F2FE7C624500D270BDA1
:104E7000A84214BF4FF080444FF04044002E08BFBA
:104E80000024BEF1806FA8BFA1F1C041BDE8704011
:104E900080F282804FF0000001F1C04101F000413A
:104EA00070479EEA0C0F0CEA131518BF95EA0C0F19
:104EB00006D04FF0000081EA030E0EF0004170BDF5
:104EC00000F01CF88900013E00F007B800F009B8B6
:104ED0004FEA430C5FEA5C5C08D081EA030100F012
:104EE0005BB84FEA410C5FEA5C5CF6D14FF0000022
:104EF000014970470000FF070000F87F0EF1020E25
:104F00002EF0030E5EF8046B364205D4012A43EB03
:104F1000030515F5001F12D8012841EB010C1CF503
:104F2000001F0CD80ED14FEAD17C15F5001F0CEBF9
:104F30004C0C0CF1020C08BF4CEBD37C04E04FF09E
:104F4000080C01E04FEAD37C0CEB4C0526FA05F681
:104F500006F00706B6F1040C06D20EEB860CBDE88F
:104F600070404CF0010C6047DFE80CF0090B0202C6
:104F70004FF000414FF00000A1F5002170BD19462F
:104F80001046012851EB010418BFD4F5001484BF6A
:104F9000002001F0004170BD0808A0F500114FEAA3
:104FA0003101704791EA030F10B581F000413FF5E0
:104FB000A9AC83F0004300F009B8000010B591EAF5
:104FC000030F48BF83F000433FF59CAC841A71EB9C
:104FD000030C07D212198CF0004C43EB0C03001B9E
:104FE00061EB0C01DFF8A4E14FEA1154A4EB135C70
:104FF0001EEA430F18BF9EEA445F00F0B08023EA28
:105000006E03524221EA0451C3EB6E0338BF5B1EAC
:10501000DCF1200E25D322FA0CFE10EB0E0043FA31
:105020000CFE41EB0E01CCF1200E03FA0EFE10EB4C
:105030000E0051F10001CCF1200E29D412FA0EF22B
:1050400001EB0451BDE8104058BF7047401C1CBF25
:10505000B2F1004F704700280CBF491C20F001003E
:10506000704712EB020E43EB030218BF4FF0010E24
:105070004EEA4202ACF1200CDCF11E0E54D943FA88
:105080000CFE10EB0E0051F1FF31CCF11E0ED5D508
:105090000EF1010E12FA0EFE404141EB010101EB4F
:1050A000445C5FEA5C5C10D910EBDE7001EB0451EC
:1050B00038BFBEF1004FBDE8104018BF7047002850
:1050C0000CBF491C20F00100704730D24FEAD42CAD
:1050D00011F5001124F400641BD0B1FA81F20B3AEF
:1050E000A41AA41ED2F12003914030FA03F319430D
:1050F000904001EBCC71002C01EB0451BDE8104055
:10510000A8BF704701F1C0414FF0000001F000411D
:105110007047B0FA80F310FA03F100D110BDE41A21
:10512000173C4805C90AE4E701EB045110BD4910DA
:1051300001EB0451BDE810404FEA300002E04FF0AF
:10514000000170474A0008BF0042F8D0B2F5001FC6
:1051500028BF704701F000414FF0000070479EEA01
:10516000445F07D011EA5E0FBDE8104004BF002184
:1051700000207047BDE8104070B5FFF7BFFE00BFCC
:1051800040DFF63E83F00041104670470000E0FF2C
:1051900043004FEAD30C4FEA3C0C43401FBF40078B
:1051A0000CF1605113F0FE4F70471CF0006F03D1FB
:1051B00000200CF0004170470CF0004343EA5070AF
:1051C00010B540EACC0000F00EF800BF00000092DD
:1051D0004FEA0001FFF7E0BE4FF000414FF0000042
:1051E000A1F5002170470EF1020E2EF0030E5EF8BD
:1051F000044B244204D44FEA4102B2F17F4F11D84C
:105200004FEA4003B3F17F4F0CD80ED14FEAD07C68
:10521000B2F17F4F0CEB4C0C0CF1020C08BF4CEBC5
:10522000D17C04E04FF0080C01E04FEAD17C0CEB9C
:105230004C0324FA03F404F00704B4F1040C06D27E
:105240000EEB840CBDE810404CF0010C6047DFE829
:105250000CF0070802024FF00040A0F5800010BDDE
:105260000846420018BFD2F1807288BF00F00040AB
:1052700010BD4FF04070E1EE100A7047FF2141EA87
:10528000D050C0057047FBF72BBA000000622624FF
:105290001C18181C3426624300001010014000B492
:1052A000011BF79DEF7EE75ECEBD8CF75BD353D538
:1052B0005C57859DA61DDEFDD6BCD6FDDF3EDF5EBC
:1052C000DF3ED6FDD6FDD6DDD6FCDF1DE73DE73D52
:1052D000DF3DDF1CDEFCDEFCD6DCD6BBCE9BC65A37
:1052E000BE19BE19BE19B5F9B5F8B5F8B5F9B5F9D5
:1052F000B5F9ADD8ADB8ADB8ADD8ADD8ADD8ADD89D
:10530000ADD8ADD8ADB8A597A597A597ADB8ADD890
:10531000B5D8B5F9B5F9B5D8B5D8B5D8B5D8B5D8E3
:10532000B5D8B5D8B5D8B5D8ADD8ADD8ADD8ADD835
:10533000ADB8ADB8ADB8ADB8ADB8ADB8AD97AD9787
:10534000AD97AD97A597A597A577A5779D57953666
:10535000953695168D168D168CF68CF68CF684F691
:105360008CF68CD684D684B57CB57C957CB57CB522
:1053700074B56C956C756C55643564146414643440
:10538000745584D69D98C69CE73DF79DF7BFDF5FB7
:1053900084D642F132912AB21A521A3212111211E3
:1053A00002100211023102310231023002300210C9
:1053B00002100210021002300230023002300230BD
:1053C000023002300230023002300230023002304D
:1053D0000230023002310231023102300230020F5B
:1053E0001250331343753B141A7122703AF19D9990
:1053F000CEDCEF7DEF7DEF7DF79EF79EF79EF7BE4B
:10540000F7BEF7BFFFDFFFDFFFDFF7BFF79EF79EB7
:10541000F79EEF7EEF7EEF7EEF5DEF5DE73DE73DD0
:10542000E71CE71CDEFCDEFCDEFCDEFCDEFCDF1C39
:10543000DF1CDEFCDEFCDEFCD6DCD6DCD6BBD6BB5D
:10544000CE9BCE9BCE9BD6BBCE9BCE9ACE7AC65A57
:10545000C65ABE3ABE39BE19B5D8B5D8AD97AD98C3
:10546000A578A5579D379D179517951795169516ED
:105470009D369D369D37A557A557A557A577A557A6
:105480009D169CF6A537AD78A5589D388CB674133B
:1054900074139537ADD9D69BDEFCDEFCDEFCDEFC5A
:1054A000DEDBD6BBD6BBD6BBDEDBDEFCE71CE71CF7
:1054B000E71CDEDCDEFCDEFCE6FCE71CE71CE71C90
:1054C000E71CE71DE71DE71CDF1CDEFCDEDCD6DC8D
:1054D000CEDCCEBBCE7AC659C639BE19B5F9ADD928
:1054E000ADB9A5789D388D186C564BB43B542AF253
:1054F000225009AD016C014C014B012B010B010B3A
:10550000010B010B010B010B010B010A00EA00EA80
:1055100000EA00EA00CA00CA00CA00CA00CA00CAFB
:1055200000CAEF5DEF7EDF3DD71EBE9D6C5553B3C5
:1055300053D54BB57CF8CEFECEDDC69CC67CCEBC2A
:10554000DF1DE73EDEFDD6BCD6BCD6DCD6DCD6FC05
:10555000DEFCDF1DDF1DDF1CDEFCDEFCD6BBCE7AF1
:10556000C65AC63ABE39BE19B619B5F9B5F9B5F974
:10557000B5F9ADD8ADD8ADB8ADD8ADD8ADD8ADD8FA
:10558000ADD8B5F9ADD8ADB8ADD8B5D8ADD8ADD8E2
:10559000B5D8B5F9B5F8B5D8B5D8B5D8B5D8B5F842
:1055A000B5F8B5D8ADD8ADD8ADD8ADD8ADD8ADB8C3
:1055B000ADB8ADB8ADB8ADB8ADB8ADB8AD97AD9705
:1055C000A597A577A577A577A5779D779D5795365C
:1055D00095168CF58CF58CF584F584D584D584D519
:1055E00084D584D684B684B57C957C957495749561
:1055F00074956C746C756C766C556C556C756C55DB
:10560000747584D69D78BE5BDF1CF79EEF9FE77FA5
:10561000C6BD8CF853932A702A7122512250120F62
:1056200012300A1002100231023002100230023130
:105630000231023102100210023002300230023018
:1056400002300230023002300230023002300230CA
:1056500002300230023002310231023002300230B8
:105660000A301A9122B21A5112311250224F851863
:10567000CEDDE73DEF5DEF7DF79EEF9EF79EF79E57
:10568000F79EF7BEF7BFFFDFFFDFFFDFF7BEF79E36
:10569000F79EEF7EEF7EEF7EEF5DE75DE73DE71C77
:1056A000E71CE71CDF1CDEFCDF1CE71CDEFCDEFC6D
:1056B000DEFCDEFCDEDCD6DCD6DCD6BBD6BBCE9B8D
:1056C000CE9BCE9BCE9BCE9BCE9BCE9AC67AC65A05
:1056D000C65ABE3ABE3ABE19B5F9B5D8ADB8A59806
:1056E000A5789D57951794F794F6951695379D577D
:1056F000A557A557A557A578A578AD98AD98AD98AD
:10570000A578AD98ADB8B5B9ADB9AD999D587C54F3
:105710008CB59D77B5F9CE7ADEFCDF1CDEFCDEDCD5
:10572000DEDBD6BBD69BD6BBDEDBDEDCDEFCE6FCFE
:10573000E6FCDEFCE6FCE71CE71CE71CE71CE71CBC
:10574000E6FCE6FCDF1CDEFCDEFCD6DCD6BCD6BB11
:10575000CE9BC67AC65AC639BE19B5F9ADB8A5985A
:105760009D789D388CD77456435222701A502AB2B5
:10577000229109AE016C014B012B012B010B010B96
:10578000010B010B010B010B010B010A00EA00EAFE
:1057900000EA00EA00CA00CA00CA00CA00CA00CA79
:1057A00000CAEF7DEF7EE75EE77FD73FADFB6C146D
:1057B0005BB35BD46C358D3895599D999D589D3759
:1057C000BE1AE71DE71DDEDCD6BCCEBBCEBBCEBB12
:1057D000D6DCDF1CDF1CDF1CDF1CDF1CD6DCCEBBF5
:1057E000CE9AC67AC65AC65ABE3ABE19BE19B6195C
:1057F000B5F9B5F9ADD8ADB8ADD8ADD8ADD8ADD84F
:10580000ADD8ADD8ADD8B5D8B5D8B5F9B5D8B5D827
:10581000B5D8B5D8B5D8B5D8B5D8B5D8B5D8B5F800
:10582000B5F8B5F8B5D8ADD8B5D8ADD8ADD8ADB810
:10583000ADB8AD97AD97AD97AD97ADB8AD97A5772E
:10584000A577A5579D579D569D579D579D579516D2
:105850008D168CF58CD584D584D584D584B584B546
:1058600084B584B584957C957C95747574757475D0
:1058700074756C746C546C556C556C556C76749670
:105880007CB68D179D98BE5BD6DCEF7DEF7EE75E24
:10589000D71EBE5C953963D463F5641553526C769C
:1058A0007498331209EF02100230023002100230F5
:1058B00002100210021002100230023002300230D8
:1058C0000230023002300230023002300230023048
:1058D0000230023002300230023002300230023038
:1058E000023002300A300A100A310A511A2F6C763F
:1058F000CEDEDF1DE75DEF5DEF7EF79FF79EF79E43
:10590000F79EF7BEF7BFFFDFFFDFFFDFFFDFF7BE6A
:10591000F79EEF7EEF7EEF7EEF5DE75DE73DE71CF4
:10592000E71CE71CE71CE71CE71CE71CDEFCDEFCB1
:10593000DEDCDEDBD6BBD6BBD6BBCE9BCE9BCE9B06
:10594000CE7BCE9BCE9BCE9BCE9ACE7AC65AC65AE3
:10595000BE3ABE3ABE1AB5F9B5D9ADB8A5989D788C
:105960009D589D3794F794F7951795169557A577F9
:10597000A577AD98AD98ADB9B5D9B5D9B5F9B5F9A3
:10598000B5F9BDF9BDF9B5D9B5D9B5D9A578AD98F1
:10599000BE5ABE3AC69BD69BDEFCDEFCDEFCDEDCDD
:1059A000DEDCD6BBD6BBD6DBDEDBDEDCDEDCDEFC63
:1059B000DEFCE71CE71CE71CE71CE71CE6FCDEFC42
:1059C000DEFCDEFCDEDCD6DBD6BBD69BCE9BCE7B04
:1059D000C65AC63AC639BDF9B5F9ADB9A5999D798A
:1059E0008D187C9663F44B52224F09CE09CE122FAC
:1059F00011EE014C014C012B012B010B010B010B92
:105A0000010B010B010B010B010B010A00EA00EA7B
:105A100000EA00EA00CA00CA00CA00CA00CA00CAF6
:105A200000CAEF7EE75DE75EE77FD71ED71FBE7C2B
:105A30008D38743463D384D79DBABE9DADFA951664
:105A4000B5D9D6DCE6FDE6FDD6DCCEBCCEBBCEBB02
:105A5000D6DCDEFCDEFCDF1CDF1CDF1CDEFCD6DB64
:105A6000D6BBCE9BCE9BC69BC67AC65ABE5ABE3A02
:105A7000BE3AB619ADD8ADD8ADD8ADD8ADB8ADB881
:105A8000ADB8ADB8ADB8ADB8ADD8ADD8ADD8B5D866
:105A9000B5D8B5D8B5D8B5D8B5D8B5D8B5D8B5F87E
:105AA000B5F8B5F8B5D8B5D8B5D8B5D8ADD8ADB87E
:105AB000ADB8AD97AD97A597A577A597A576A5772E
:105AC000A5569D569D569D569D369D3695369516E6
:105AD0008D168CF58CD584D584D584D584B57C95EC
